{
  "_format": "hh-sol-artifact-1",
  "contractName": "TreasureTokenFactory",
  "sourceName": "contracts/TreasureTokenFactory.sol",
  "abi": [
    {
      "inputs": [],
      "stateMutability": "nonpayable",
      "type": "constructor"
    },
    {
      "anonymous": false,
      "inputs": [
        {
          "indexed": true,
          "internalType": "address",
          "name": "owner",
          "type": "address"
        },
        {
          "indexed": true,
          "internalType": "address",
          "name": "approved",
          "type": "address"
        },
        {
          "indexed": true,
          "internalType": "uint256",
          "name": "tokenId",
          "type": "uint256"
        }
      ],
      "name": "Approval",
      "type": "event"
    },
    {
      "anonymous": false,
      "inputs": [
        {
          "indexed": true,
          "internalType": "address",
          "name": "owner",
          "type": "address"
        },
        {
          "indexed": true,
          "internalType": "address",
          "name": "operator",
          "type": "address"
        },
        {
          "indexed": false,
          "internalType": "bool",
          "name": "approved",
          "type": "bool"
        }
      ],
      "name": "ApprovalForAll",
      "type": "event"
    },
    {
      "anonymous": false,
      "inputs": [
        {
          "indexed": false,
          "internalType": "uint256",
          "name": "offerId",
          "type": "uint256"
        }
      ],
      "name": "OfferCompleted",
      "type": "event"
    },
    {
      "anonymous": false,
      "inputs": [
        {
          "indexed": false,
          "internalType": "uint256",
          "name": "offerId",
          "type": "uint256"
        },
        {
          "indexed": false,
          "internalType": "string",
          "name": "buyerId",
          "type": "string"
        },
        {
          "indexed": false,
          "internalType": "string",
          "name": "sellerId",
          "type": "string"
        },
        {
          "indexed": false,
          "internalType": "string",
          "name": "postId",
          "type": "string"
        },
        {
          "indexed": false,
          "internalType": "uint256",
          "name": "bidAmount",
          "type": "uint256"
        }
      ],
      "name": "OfferCreated",
      "type": "event"
    },
    {
      "anonymous": false,
      "inputs": [
        {
          "indexed": false,
          "internalType": "uint256",
          "name": "offerId",
          "type": "uint256"
        }
      ],
      "name": "OfferVerified",
      "type": "event"
    },
    {
      "anonymous": false,
      "inputs": [
        {
          "indexed": true,
          "internalType": "address",
          "name": "previousOwner",
          "type": "address"
        },
        {
          "indexed": true,
          "internalType": "address",
          "name": "newOwner",
          "type": "address"
        }
      ],
      "name": "OwnershipTransferred",
      "type": "event"
    },
    {
      "anonymous": false,
      "inputs": [
        {
          "indexed": true,
          "internalType": "address",
          "name": "from",
          "type": "address"
        },
        {
          "indexed": true,
          "internalType": "address",
          "name": "to",
          "type": "address"
        },
        {
          "indexed": true,
          "internalType": "uint256",
          "name": "tokenId",
          "type": "uint256"
        }
      ],
      "name": "Transfer",
      "type": "event"
    },
    {
      "anonymous": false,
      "inputs": [
        {
          "indexed": false,
          "internalType": "string",
          "name": "userId",
          "type": "string"
        },
        {
          "indexed": false,
          "internalType": "address",
          "name": "userAddress",
          "type": "address"
        }
      ],
      "name": "UserLinked",
      "type": "event"
    },
    {
      "inputs": [
        {
          "internalType": "uint256",
          "name": "_offerId",
          "type": "uint256"
        }
      ],
      "name": "accept",
      "outputs": [],
      "stateMutability": "nonpayable",
      "type": "function"
    },
    {
      "inputs": [
        {
          "internalType": "address",
          "name": "to",
          "type": "address"
        },
        {
          "internalType": "uint256",
          "name": "tokenId",
          "type": "uint256"
        }
      ],
      "name": "approve",
      "outputs": [],
      "stateMutability": "nonpayable",
      "type": "function"
    },
    {
      "inputs": [
        {
          "internalType": "address",
          "name": "owner",
          "type": "address"
        }
      ],
      "name": "balanceOf",
      "outputs": [
        {
          "internalType": "uint256",
          "name": "",
          "type": "uint256"
        }
      ],
      "stateMutability": "view",
      "type": "function"
    },
    {
      "inputs": [],
      "name": "baseURI",
      "outputs": [
        {
          "internalType": "string",
          "name": "",
          "type": "string"
        }
      ],
      "stateMutability": "view",
      "type": "function"
    },
    {
      "inputs": [
        {
          "internalType": "string",
          "name": "_buyerId",
          "type": "string"
        },
        {
          "internalType": "string",
          "name": "_sellerId",
          "type": "string"
        },
        {
          "internalType": "string",
          "name": "_postId",
          "type": "string"
        },
        {
          "internalType": "uint256",
          "name": "_bidAmount",
          "type": "uint256"
        }
      ],
      "name": "createOffer",
      "outputs": [],
      "stateMutability": "payable",
      "type": "function"
    },
    {
      "inputs": [
        {
          "internalType": "uint256",
          "name": "tokenId",
          "type": "uint256"
        }
      ],
      "name": "getApproved",
      "outputs": [
        {
          "internalType": "address",
          "name": "",
          "type": "address"
        }
      ],
      "stateMutability": "view",
      "type": "function"
    },
    {
      "inputs": [
        {
          "internalType": "string",
          "name": "_userId",
          "type": "string"
        }
      ],
      "name": "getUser",
      "outputs": [
        {
          "internalType": "address payable",
          "name": "",
          "type": "address"
        }
      ],
      "stateMutability": "view",
      "type": "function"
    },
    {
      "inputs": [
        {
          "internalType": "address",
          "name": "owner",
          "type": "address"
        },
        {
          "internalType": "address",
          "name": "operator",
          "type": "address"
        }
      ],
      "name": "isApprovedForAll",
      "outputs": [
        {
          "internalType": "bool",
          "name": "",
          "type": "bool"
        }
      ],
      "stateMutability": "view",
      "type": "function"
    },
    {
      "inputs": [
        {
          "internalType": "string",
          "name": "_userId",
          "type": "string"
        },
        {
          "internalType": "address payable",
          "name": "_userAddress",
          "type": "address"
        }
      ],
      "name": "mapUser",
      "outputs": [],
      "stateMutability": "nonpayable",
      "type": "function"
    },
    {
      "inputs": [],
      "name": "name",
      "outputs": [
        {
          "internalType": "string",
          "name": "",
          "type": "string"
        }
      ],
      "stateMutability": "view",
      "type": "function"
    },
    {
      "inputs": [],
      "name": "owner",
      "outputs": [
        {
          "internalType": "address",
          "name": "",
          "type": "address"
        }
      ],
      "stateMutability": "view",
      "type": "function"
    },
    {
      "inputs": [
        {
          "internalType": "uint256",
          "name": "tokenId",
          "type": "uint256"
        }
      ],
      "name": "ownerOf",
      "outputs": [
        {
          "internalType": "address",
          "name": "",
          "type": "address"
        }
      ],
      "stateMutability": "view",
      "type": "function"
    },
    {
      "inputs": [
        {
          "internalType": "uint256",
          "name": "_offerId",
          "type": "uint256"
        }
      ],
      "name": "reject",
      "outputs": [],
      "stateMutability": "nonpayable",
      "type": "function"
    },
    {
      "inputs": [],
      "name": "renounceOwnership",
      "outputs": [],
      "stateMutability": "nonpayable",
      "type": "function"
    },
    {
      "inputs": [
        {
          "internalType": "address",
          "name": "from",
          "type": "address"
        },
        {
          "internalType": "address",
          "name": "to",
          "type": "address"
        },
        {
          "internalType": "uint256",
          "name": "tokenId",
          "type": "uint256"
        }
      ],
      "name": "safeTransferFrom",
      "outputs": [],
      "stateMutability": "nonpayable",
      "type": "function"
    },
    {
      "inputs": [
        {
          "internalType": "address",
          "name": "from",
          "type": "address"
        },
        {
          "internalType": "address",
          "name": "to",
          "type": "address"
        },
        {
          "internalType": "uint256",
          "name": "tokenId",
          "type": "uint256"
        },
        {
          "internalType": "bytes",
          "name": "_data",
          "type": "bytes"
        }
      ],
      "name": "safeTransferFrom",
      "outputs": [],
      "stateMutability": "nonpayable",
      "type": "function"
    },
    {
      "inputs": [
        {
          "internalType": "address",
          "name": "operator",
          "type": "address"
        },
        {
          "internalType": "bool",
          "name": "approved",
          "type": "bool"
        }
      ],
      "name": "setApprovalForAll",
      "outputs": [],
      "stateMutability": "nonpayable",
      "type": "function"
    },
    {
      "inputs": [
        {
          "internalType": "bytes4",
          "name": "interfaceId",
          "type": "bytes4"
        }
      ],
      "name": "supportsInterface",
      "outputs": [
        {
          "internalType": "bool",
          "name": "",
          "type": "bool"
        }
      ],
      "stateMutability": "view",
      "type": "function"
    },
    {
      "inputs": [],
      "name": "symbol",
      "outputs": [
        {
          "internalType": "string",
          "name": "",
          "type": "string"
        }
      ],
      "stateMutability": "view",
      "type": "function"
    },
    {
      "inputs": [
        {
          "internalType": "uint256",
          "name": "index",
          "type": "uint256"
        }
      ],
      "name": "tokenByIndex",
      "outputs": [
        {
          "internalType": "uint256",
          "name": "",
          "type": "uint256"
        }
      ],
      "stateMutability": "view",
      "type": "function"
    },
    {
      "inputs": [
        {
          "internalType": "address",
          "name": "owner",
          "type": "address"
        },
        {
          "internalType": "uint256",
          "name": "index",
          "type": "uint256"
        }
      ],
      "name": "tokenOfOwnerByIndex",
      "outputs": [
        {
          "internalType": "uint256",
          "name": "",
          "type": "uint256"
        }
      ],
      "stateMutability": "view",
      "type": "function"
    },
    {
      "inputs": [
        {
          "internalType": "uint256",
          "name": "tokenId",
          "type": "uint256"
        }
      ],
      "name": "tokenURI",
      "outputs": [
        {
          "internalType": "string",
          "name": "",
          "type": "string"
        }
      ],
      "stateMutability": "view",
      "type": "function"
    },
    {
      "inputs": [],
      "name": "totalSupply",
      "outputs": [
        {
          "internalType": "uint256",
          "name": "",
          "type": "uint256"
        }
      ],
      "stateMutability": "view",
      "type": "function"
    },
    {
      "inputs": [
        {
          "internalType": "address",
          "name": "from",
          "type": "address"
        },
        {
          "internalType": "address",
          "name": "to",
          "type": "address"
        },
        {
          "internalType": "uint256",
          "name": "tokenId",
          "type": "uint256"
        }
      ],
      "name": "transferFrom",
      "outputs": [],
      "stateMutability": "nonpayable",
      "type": "function"
    },
    {
      "inputs": [
        {
          "internalType": "address",
          "name": "newOwner",
          "type": "address"
        }
      ],
      "name": "transferOwnership",
      "outputs": [],
      "stateMutability": "nonpayable",
      "type": "function"
    },
    {
      "inputs": [
        {
          "internalType": "uint256",
          "name": "_offerId",
          "type": "uint256"
        }
      ],
      "name": "verifyOffer",
      "outputs": [],
      "stateMutability": "nonpayable",
      "type": "function"
    }
  ],
  "bytecode": "0x60806040523480156200001157600080fd5b506040518060400160405280600f81526020017f54726561737572654f72626974616c00000000000000000000000000000000008152506040518060400160405280600381526020017f544f520000000000000000000000000000000000000000000000000000000000815250620000966301ffc9a760e01b620001c960201b60201c565b8160069080519060200190620000ae929190620002da565b508060079080519060200190620000c7929190620002da565b50620000e06380ac58cd60e01b620001c960201b60201c565b620000f8635b5e139f60e01b620001c960201b60201c565b6200011063780e9d6360e01b620001c960201b60201c565b5050600062000124620002d260201b60201c565b905080600a60006101000a81548173ffffffffffffffffffffffffffffffffffffffff021916908373ffffffffffffffffffffffffffffffffffffffff1602179055508073ffffffffffffffffffffffffffffffffffffffff16600073ffffffffffffffffffffffffffffffffffffffff167f8be0079c531659141344cd1fd0a4f28419497f9722a3daafe3b4186f6b6457e060405160405180910390a35062000380565b63ffffffff60e01b817bffffffffffffffffffffffffffffffffffffffffffffffffffffffff1916141562000266576040517f08c379a000000000000000000000000000000000000000000000000000000000815260040180806020018281038252601c8152602001807f4552433136353a20696e76616c696420696e746572666163652069640000000081525060200191505060405180910390fd5b6001600080837bffffffffffffffffffffffffffffffffffffffffffffffffffffffff19167bffffffffffffffffffffffffffffffffffffffffffffffffffffffff1916815260200190815260200160002060006101000a81548160ff02191690831515021790555050565b600033905090565b828054600181600116156101000203166002900490600052602060002090601f016020900481019282601f106200031d57805160ff19168380011785556200034e565b828001600101855582156200034e579182015b828111156200034d57825182559160200191906001019062000330565b5b5090506200035d919062000361565b5090565b5b808211156200037c57600081600090555060010162000362565b5090565b61554980620003906000396000f3fe6080604052600436106101815760003560e01c80636c0360eb116100d1578063a22cb4651161008a578063c87b56dd11610064578063c87b56dd14610d19578063e985e9c514610dcd578063eade033014610e54578063f2fde38b14610e8f57610181565b8063a22cb46514610b6f578063b88d4fde14610bcc578063b8adaa1114610cde57610181565b80636c0360eb146108aa57806370a082311461093a578063715018a61461099f5780637db582a9146109b65780638da5cb5b14610a9e57806395d89b4114610adf57610181565b806323b872dd1161013e57806338061d821161011857806338061d821461058857806342842e0e1461077b5780634f6ccce7146107f65780636352211e1461084557610181565b806323b872dd146103ac5780632f745c591461042757806331feb6711461049657610181565b806301ffc9a71461018657806306fdde03146101f6578063081812fc14610286578063095ea7b3146102eb57806318160ddd1461034657806319b05f4914610371575b600080fd5b34801561019257600080fd5b506101de600480360360208110156101a957600080fd5b8101908080357bffffffffffffffffffffffffffffffffffffffffffffffffffffffff19169060200190929190505050610ee0565b60405180821515815260200191505060405180910390f35b34801561020257600080fd5b5061020b610f47565b6040518080602001828103825283818151815260200191508051906020019080838360005b8381101561024b578082015181840152602081019050610230565b50505050905090810190601f1680156102785780820380516001836020036101000a031916815260200191505b509250505060405180910390f35b34801561029257600080fd5b506102bf600480360360208110156102a957600080fd5b8101908080359060200190929190505050610fe9565b604051808273ffffffffffffffffffffffffffffffffffffffff16815260200191505060405180910390f35b3480156102f757600080fd5b506103446004803603604081101561030e57600080fd5b81019080803573ffffffffffffffffffffffffffffffffffffffff16906020019092919080359060200190929190505050611084565b005b34801561035257600080fd5b5061035b6111c8565b6040518082815260200191505060405180910390f35b34801561037d57600080fd5b506103aa6004803603602081101561039457600080fd5b81019080803590602001909291905050506111d9565b005b3480156103b857600080fd5b50610425600480360360608110156103cf57600080fd5b81019080803573ffffffffffffffffffffffffffffffffffffffff169060200190929190803573ffffffffffffffffffffffffffffffffffffffff16906020019092919080359060200190929190505050611b48565b005b34801561043357600080fd5b506104806004803603604081101561044a57600080fd5b81019080803573ffffffffffffffffffffffffffffffffffffffff16906020019092919080359060200190929190505050611bbe565b6040518082815260200191505060405180910390f35b3480156104a257600080fd5b5061055c600480360360208110156104b957600080fd5b81019080803590602001906401000000008111156104d657600080fd5b8201836020820111156104e857600080fd5b8035906020019184600183028401116401000000008311171561050a57600080fd5b91908080601f016020809104026020016040519081016040528093929190818152602001838380828437600081840152601f19601f820116905080830192505050505050509192919290505050611c19565b604051808273ffffffffffffffffffffffffffffffffffffffff16815260200191505060405180910390f35b6107796004803603608081101561059e57600080fd5b81019080803590602001906401000000008111156105bb57600080fd5b8201836020820111156105cd57600080fd5b803590602001918460018302840111640100000000831117156105ef57600080fd5b91908080601f016020809104026020016040519081016040528093929190818152602001838380828437600081840152601f19601f8201169050808301925050505050505091929192908035906020019064010000000081111561065257600080fd5b82018360208201111561066457600080fd5b8035906020019184600183028401116401000000008311171561068657600080fd5b91908080601f016020809104026020016040519081016040528093929190818152602001838380828437600081840152601f19601f820116905080830192505050505050509192919290803590602001906401000000008111156106e957600080fd5b8201836020820111156106fb57600080fd5b8035906020019184600183028401116401000000008311171561071d57600080fd5b91908080601f016020809104026020016040519081016040528093929190818152602001838380828437600081840152601f19601f82011690508083019250505050505050919291929080359060200190929190505050611e87565b005b34801561078757600080fd5b506107f46004803603606081101561079e57600080fd5b81019080803573ffffffffffffffffffffffffffffffffffffffff169060200190929190803573ffffffffffffffffffffffffffffffffffffffff16906020019092919080359060200190929190505050612288565b005b34801561080257600080fd5b5061082f6004803603602081101561081957600080fd5b81019080803590602001909291905050506122a8565b6040518082815260200191505060405180910390f35b34801561085157600080fd5b5061087e6004803603602081101561086857600080fd5b81019080803590602001909291905050506122cb565b604051808273ffffffffffffffffffffffffffffffffffffffff16815260200191505060405180910390f35b3480156108b657600080fd5b506108bf612302565b6040518080602001828103825283818151815260200191508051906020019080838360005b838110156108ff5780820151818401526020810190506108e4565b50505050905090810190601f16801561092c5780820380516001836020036101000a031916815260200191505b509250505060405180910390f35b34801561094657600080fd5b506109896004803603602081101561095d57600080fd5b81019080803573ffffffffffffffffffffffffffffffffffffffff1690602001909291905050506123a4565b6040518082815260200191505060405180910390f35b3480156109ab57600080fd5b506109b4612479565b005b3480156109c257600080fd5b50610a9c600480360360408110156109d957600080fd5b81019080803590602001906401000000008111156109f657600080fd5b820183602082011115610a0857600080fd5b80359060200191846001830284011164010000000083111715610a2a57600080fd5b91908080601f016020809104026020016040519081016040528093929190818152602001838380828437600081840152601f19601f820116905080830192505050505050509192919290803573ffffffffffffffffffffffffffffffffffffffff1690602001909291905050506125e9565b005b348015610aaa57600080fd5b50610ab361290c565b604051808273ffffffffffffffffffffffffffffffffffffffff16815260200191505060405180910390f35b348015610aeb57600080fd5b50610af4612936565b6040518080602001828103825283818151815260200191508051906020019080838360005b83811015610b34578082015181840152602081019050610b19565b50505050905090810190601f168015610b615780820380516001836020036101000a031916815260200191505b509250505060405180910390f35b348015610b7b57600080fd5b50610bca60048036036040811015610b9257600080fd5b81019080803573ffffffffffffffffffffffffffffffffffffffff1690602001909291908035151590602001909291905050506129d8565b005b348015610bd857600080fd5b50610cdc60048036036080811015610bef57600080fd5b81019080803573ffffffffffffffffffffffffffffffffffffffff169060200190929190803573ffffffffffffffffffffffffffffffffffffffff1690602001909291908035906020019092919080359060200190640100000000811115610c5657600080fd5b820183602082011115610c6857600080fd5b80359060200191846001830284011164010000000083111715610c8a57600080fd5b91908080601f016020809104026020016040519081016040528093929190818152602001838380828437600081840152601f19601f820116905080830192505050505050509192919290505050612b8e565b005b348015610cea57600080fd5b50610d1760048036036020811015610d0157600080fd5b8101908080359060200190929190505050612c06565b005b348015610d2557600080fd5b50610d5260048036036020811015610d3c57600080fd5b81019080803590602001909291905050506134f2565b6040518080602001828103825283818151815260200191508051906020019080838360005b83811015610d92578082015181840152602081019050610d77565b50505050905090810190601f168015610dbf5780820380516001836020036101000a031916815260200191505b509250505060405180910390f35b348015610dd957600080fd5b50610e3c60048036036040811015610df057600080fd5b81019080803573ffffffffffffffffffffffffffffffffffffffff169060200190929190803573ffffffffffffffffffffffffffffffffffffffff1690602001909291905050506137c3565b60405180821515815260200191505060405180910390f35b348015610e6057600080fd5b50610e8d60048036036020811015610e7757600080fd5b8101908080359060200190929190505050613857565b005b348015610e9b57600080fd5b50610ede60048036036020811015610eb257600080fd5b81019080803573ffffffffffffffffffffffffffffffffffffffff169060200190929190505050613a7a565b005b6000806000837bffffffffffffffffffffffffffffffffffffffffffffffffffffffff19167bffffffffffffffffffffffffffffffffffffffffffffffffffffffff1916815260200190815260200160002060009054906101000a900460ff169050919050565b606060068054600181600116156101000203166002900480601f016020809104026020016040519081016040528092919081815260200182805460018160011615610100020316600290048015610fdf5780601f10610fb457610100808354040283529160200191610fdf565b820191906000526020600020905b815481529060010190602001808311610fc257829003601f168201915b5050505050905090565b6000610ff482613c6f565b611049576040517f08c379a000000000000000000000000000000000000000000000000000000000815260040180806020018281038252602c8152602001806153cc602c913960400191505060405180910390fd5b6004600083815260200190815260200160002060009054906101000a900473ffffffffffffffffffffffffffffffffffffffff169050919050565b600061108f826122cb565b90508073ffffffffffffffffffffffffffffffffffffffff168373ffffffffffffffffffffffffffffffffffffffff161415611116576040517f08c379a00000000000000000000000000000000000000000000000000000000081526004018080602001828103825260218152602001806154776021913960400191505060405180910390fd5b8073ffffffffffffffffffffffffffffffffffffffff16611135613c8c565b73ffffffffffffffffffffffffffffffffffffffff16148061116457506111638161115e613c8c565b6137c3565b5b6111b9576040517f08c379a00000000000000000000000000000000000000000000000000000000081526004018080602001828103825260388152602001806152ef6038913960400191505060405180910390fd5b6111c38383613c94565b505050565b60006111d46002613d4d565b905090565b80600d805490508110611254576040517f08c379a00000000000000000000000000000000000000000000000000000000081526004018080602001828103825260148152602001807f4f6666657220646f6573206e6f7420657869737400000000000000000000000081525060200191505060405180910390fd5b8161125d6150f6565b600d828154811061126a57fe5b90600052602060002090600502016040518060c0016040529081600082018054600181600116156101000203166002900480601f01602080910402602001604051908101604052809291908181526020018280546001816001161561010002031660029004801561131c5780601f106112f15761010080835404028352916020019161131c565b820191906000526020600020905b8154815290600101906020018083116112ff57829003601f168201915b50505050508152602001600182018054600181600116156101000203166002900480601f0160208091040260200160405190810160405280929190818152602001828054600181600116156101000203166002900480156113be5780601f10611393576101008083540402835291602001916113be565b820191906000526020600020905b8154815290600101906020018083116113a157829003601f168201915b50505050508152602001600282018054600181600116156101000203166002900480601f0160208091040260200160405190810160405280929190818152602001828054600181600116156101000203166002900480156114605780601f1061143557610100808354040283529160200191611460565b820191906000526020600020905b81548152906001019060200180831161144357829003601f168201915b50505050508152602001600382015481526020016004820160009054906101000a900460ff161515151581526020016004820160019054906101000a900460ff16151515158152505090506000600c82602001516040518082805190602001908083835b602083106114e757805182526020820191506020810190506020830392506114c4565b6001836020036101000a038019825116818451168082178552505050505050905001915050908152602001604051809103902060009054906101000a900473ffffffffffffffffffffffffffffffffffffffff1690508073ffffffffffffffffffffffffffffffffffffffff163373ffffffffffffffffffffffffffffffffffffffff16146115c1576040517f08c379a00000000000000000000000000000000000000000000000000000000081526004018080602001828103825260278152602001806154216027913960400191505060405180910390fd5b846115ca6150f6565b600d82815481106115d757fe5b90600052602060002090600502016040518060c0016040529081600082018054600181600116156101000203166002900480601f0160208091040260200160405190810160405280929190818152602001828054600181600116156101000203166002900480156116895780601f1061165e57610100808354040283529160200191611689565b820191906000526020600020905b81548152906001019060200180831161166c57829003601f168201915b50505050508152602001600182018054600181600116156101000203166002900480601f01602080910402602001604051908101604052809291908181526020018280546001816001161561010002031660029004801561172b5780601f106117005761010080835404028352916020019161172b565b820191906000526020600020905b81548152906001019060200180831161170e57829003601f168201915b50505050508152602001600282018054600181600116156101000203166002900480601f0160208091040260200160405190810160405280929190818152602001828054600181600116156101000203166002900480156117cd5780601f106117a2576101008083540402835291602001916117cd565b820191906000526020600020905b8154815290600101906020018083116117b057829003601f168201915b50505050508152602001600382015481526020016004820160009054906101000a900460ff161515151581526020016004820160019054906101000a900460ff16151515158152505090508060a0015115611890576040517f08c379a000000000000000000000000000000000000000000000000000000000815260040180806020018281038252601b8152602001807f4f6666657220697320616c726561647920636f6d706c657465642e000000000081525060200191505060405180910390fd5b8060800151611907576040517f08c379a00000000000000000000000000000000000000000000000000000000081526004018080602001828103825260168152602001807f4f66666572206973206e6f742076657269666965642e0000000000000000000081525060200191505060405180910390fd5b6000600d888154811061191657fe5b906000526020600020906005020190506000600c8260010160405180828054600181600116156101000203166002900480156119895780601f10611967576101008083540402835291820191611989565b820191906000526020600020905b815481529060010190602001808311611975575b5050915050908152602001604051809103902060009054906101000a900473ffffffffffffffffffffffffffffffffffffffff169050600060608273ffffffffffffffffffffffffffffffffffffffff166009600a8660030154816119ea57fe5b040260405180600001905060006040518083038185875af1925050503d8060008114611a32576040519150601f19603f3d011682016040523d82523d6000602084013e611a37565b606091505b509150915060006060611a4861290c565b73ffffffffffffffffffffffffffffffffffffffff16600a876003015481611a6c57fe5b0460405180600001905060006040518083038185875af1925050503d8060008114611ab3576040519150601f19603f3d011682016040523d82523d6000602084013e611ab8565b606091505b509150915083611b30576040517f08c379a00000000000000000000000000000000000000000000000000000000081526004018080602001828103825260148152602001807f4661696c656420746f2073656e6420657468657200000000000000000000000081525060200191505060405180910390fd5b611b398d613d62565b50505050505050505050505050565b611b59611b53613c8c565b8261419d565b611bae576040517f08c379a00000000000000000000000000000000000000000000000000000000081526004018080602001828103825260318152602001806154bb6031913960400191505060405180910390fd5b611bb9838383614291565b505050565b6000611c1182600160008673ffffffffffffffffffffffffffffffffffffffff1673ffffffffffffffffffffffffffffffffffffffff1681526020019081526020016000206144d490919063ffffffff16565b905092915050565b6000611c23613c8c565b73ffffffffffffffffffffffffffffffffffffffff16611c4161290c565b73ffffffffffffffffffffffffffffffffffffffff1614611cca576040517f08c379a00000000000000000000000000000000000000000000000000000000081526004018080602001828103825260208152602001807f4f776e61626c653a2063616c6c6572206973206e6f7420746865206f776e657281525060200191505060405180910390fd5b600073ffffffffffffffffffffffffffffffffffffffff16600c836040518082805190602001908083835b60208310611d185780518252602082019150602081019050602083039250611cf5565b6001836020036101000a038019825116818451168082178552505050505050905001915050908152602001604051809103902060009054906101000a900473ffffffffffffffffffffffffffffffffffffffff1673ffffffffffffffffffffffffffffffffffffffff161415611df6576040517f08c379a00000000000000000000000000000000000000000000000000000000081526004018080602001828103825260198152602001807f54686973207573657220646f6573206e6f74206578697374730000000000000081525060200191505060405180910390fd5b600c826040518082805190602001908083835b60208310611e2c5780518252602082019150602081019050602083039250611e09565b6001836020036101000a038019825116818451168082178552505050505050905001915050908152602001604051809103902060009054906101000a900473ffffffffffffffffffffffffffffffffffffffff169050919050565b600c846040518082805190602001908083835b60208310611ebd5780518252602082019150602081019050602083039250611e9a565b6001836020036101000a038019825116818451168082178552505050505050905001915050908152602001604051809103902060009054906101000a900473ffffffffffffffffffffffffffffffffffffffff1673ffffffffffffffffffffffffffffffffffffffff163373ffffffffffffffffffffffffffffffffffffffff1614611f94576040517f08c379a00000000000000000000000000000000000000000000000000000000081526004018080602001828103825260288152602001806154ec6028913960400191505060405180910390fd5b80341015611fed576040517f08c379a000000000000000000000000000000000000000000000000000000000815260040180806020018281038252603081526020018061539c6030913960400191505060405180910390fd5b600d6040518060c001604052808681526020018581526020018481526020018381526020016000151581526020016000151581525090806001815401808255809150506001900390600052602060002090600502016000909190919091506000820151816000019080519060200190612067929190615130565b506020820151816001019080519060200190612084929190615130565b5060408201518160020190805190602001906120a1929190615130565b506060820151816003015560808201518160040160006101000a81548160ff02191690831515021790555060a08201518160040160016101000a81548160ff021916908315150217905550505060006001600d805490500390507fe4ee73f89832e5ff7620d747c1a0f4e9d23831e61f79be2dbbd54b5a91e3ab71818686868660405180868152602001806020018060200180602001858152602001848103845288818151815260200191508051906020019080838360005b8381101561217557808201518184015260208101905061215a565b50505050905090810190601f1680156121a25780820380516001836020036101000a031916815260200191505b50848103835287818151815260200191508051906020019080838360005b838110156121db5780820151818401526020810190506121c0565b50505050905090810190601f1680156122085780820380516001836020036101000a031916815260200191505b50848103825286818151815260200191508051906020019080838360005b83811015612241578082015181840152602081019050612226565b50505050905090810190601f16801561226e5780820380516001836020036101000a031916815260200191505b509850505050505050505060405180910390a15050505050565b6122a383838360405180602001604052806000815250612b8e565b505050565b6000806122bf8360026144ee90919063ffffffff16565b50905080915050919050565b60006122fb8260405180606001604052806029815260200161535160299139600261451a9092919063ffffffff16565b9050919050565b606060098054600181600116156101000203166002900480601f01602080910402602001604051908101604052809291908181526020018280546001816001161561010002031660029004801561239a5780601f1061236f5761010080835404028352916020019161239a565b820191906000526020600020905b81548152906001019060200180831161237d57829003601f168201915b5050505050905090565b60008073ffffffffffffffffffffffffffffffffffffffff168273ffffffffffffffffffffffffffffffffffffffff16141561242b576040517f08c379a000000000000000000000000000000000000000000000000000000000815260040180806020018281038252602a815260200180615327602a913960400191505060405180910390fd5b612472600160008473ffffffffffffffffffffffffffffffffffffffff1673ffffffffffffffffffffffffffffffffffffffff168152602001908152602001600020614539565b9050919050565b612481613c8c565b73ffffffffffffffffffffffffffffffffffffffff1661249f61290c565b73ffffffffffffffffffffffffffffffffffffffff1614612528576040517f08c379a00000000000000000000000000000000000000000000000000000000081526004018080602001828103825260208152602001807f4f776e61626c653a2063616c6c6572206973206e6f7420746865206f776e657281525060200191505060405180910390fd5b600073ffffffffffffffffffffffffffffffffffffffff16600a60009054906101000a900473ffffffffffffffffffffffffffffffffffffffff1673ffffffffffffffffffffffffffffffffffffffff167f8be0079c531659141344cd1fd0a4f28419497f9722a3daafe3b4186f6b6457e060405160405180910390a36000600a60006101000a81548173ffffffffffffffffffffffffffffffffffffffff021916908373ffffffffffffffffffffffffffffffffffffffff160217905550565b6125f1613c8c565b73ffffffffffffffffffffffffffffffffffffffff1661260f61290c565b73ffffffffffffffffffffffffffffffffffffffff1614612698576040517f08c379a00000000000000000000000000000000000000000000000000000000081526004018080602001828103825260208152602001807f4f776e61626c653a2063616c6c6572206973206e6f7420746865206f776e657281525060200191505060405180910390fd5b600073ffffffffffffffffffffffffffffffffffffffff16600c836040518082805190602001908083835b602083106126e657805182526020820191506020810190506020830392506126c3565b6001836020036101000a038019825116818451168082178552505050505050905001915050908152602001604051809103902060009054906101000a900473ffffffffffffffffffffffffffffffffffffffff1673ffffffffffffffffffffffffffffffffffffffff16146127a6576040517f08c379a00000000000000000000000000000000000000000000000000000000081526004018080602001828103825260238152602001806154986023913960400191505060405180910390fd5b80600c836040518082805190602001908083835b602083106127dd57805182526020820191506020810190506020830392506127ba565b6001836020036101000a038019825116818451168082178552505050505050905001915050908152602001604051809103902060006101000a81548173ffffffffffffffffffffffffffffffffffffffff021916908373ffffffffffffffffffffffffffffffffffffffff1602179055507fbd24583d1f34ebaec5bacc0cb3d29df1ac91e8fc13018ebc80e3f29e3d49ce16828260405180806020018373ffffffffffffffffffffffffffffffffffffffff168152602001828103825284818151815260200191508051906020019080838360005b838110156128cd5780820151818401526020810190506128b2565b50505050905090810190601f1680156128fa5780820380516001836020036101000a031916815260200191505b50935050505060405180910390a15050565b6000600a60009054906101000a900473ffffffffffffffffffffffffffffffffffffffff16905090565b606060078054600181600116156101000203166002900480601f0160208091040260200160405190810160405280929190818152602001828054600181600116156101000203166002900480156129ce5780601f106129a3576101008083540402835291602001916129ce565b820191906000526020600020905b8154815290600101906020018083116129b157829003601f168201915b5050505050905090565b6129e0613c8c565b73ffffffffffffffffffffffffffffffffffffffff168273ffffffffffffffffffffffffffffffffffffffff161415612a81576040517f08c379a00000000000000000000000000000000000000000000000000000000081526004018080602001828103825260198152602001807f4552433732313a20617070726f766520746f2063616c6c65720000000000000081525060200191505060405180910390fd5b8060056000612a8e613c8c565b73ffffffffffffffffffffffffffffffffffffffff1673ffffffffffffffffffffffffffffffffffffffff16815260200190815260200160002060008473ffffffffffffffffffffffffffffffffffffffff1673ffffffffffffffffffffffffffffffffffffffff16815260200190815260200160002060006101000a81548160ff0219169083151502179055508173ffffffffffffffffffffffffffffffffffffffff16612b3b613c8c565b73ffffffffffffffffffffffffffffffffffffffff167f17307eab39ab6107e8899845ad3d59bd9653f200f220920489ca2b5937696c318360405180821515815260200191505060405180910390a35050565b612b9f612b99613c8c565b8361419d565b612bf4576040517f08c379a00000000000000000000000000000000000000000000000000000000081526004018080602001828103825260318152602001806154bb6031913960400191505060405180910390fd5b612c008484848461454e565b50505050565b80600d805490508110612c81576040517f08c379a00000000000000000000000000000000000000000000000000000000081526004018080602001828103825260148152602001807f4f6666657220646f6573206e6f7420657869737400000000000000000000000081525060200191505060405180910390fd5b81612c8a6150f6565b600d8281548110612c9757fe5b90600052602060002090600502016040518060c0016040529081600082018054600181600116156101000203166002900480601f016020809104026020016040519081016040528092919081815260200182805460018160011615610100020316600290048015612d495780601f10612d1e57610100808354040283529160200191612d49565b820191906000526020600020905b815481529060010190602001808311612d2c57829003601f168201915b50505050508152602001600182018054600181600116156101000203166002900480601f016020809104026020016040519081016040528092919081815260200182805460018160011615610100020316600290048015612deb5780601f10612dc057610100808354040283529160200191612deb565b820191906000526020600020905b815481529060010190602001808311612dce57829003601f168201915b50505050508152602001600282018054600181600116156101000203166002900480601f016020809104026020016040519081016040528092919081815260200182805460018160011615610100020316600290048015612e8d5780601f10612e6257610100808354040283529160200191612e8d565b820191906000526020600020905b815481529060010190602001808311612e7057829003601f168201915b50505050508152602001600382015481526020016004820160009054906101000a900460ff161515151581526020016004820160019054906101000a900460ff16151515158152505090508060a0015115612f50576040517f08c379a000000000000000000000000000000000000000000000000000000000815260040180806020018281038252601b8152602001807f4f6666657220697320616c726561647920636f6d706c657465642e000000000081525060200191505060405180910390fd5b8060800151612fc7576040517f08c379a00000000000000000000000000000000000000000000000000000000081526004018080602001828103825260168152602001807f4f66666572206973206e6f742076657269666965642e0000000000000000000081525060200191505060405180910390fd5b612fcf6150f6565b600d8581548110612fdc57fe5b90600052602060002090600502016040518060c0016040529081600082018054600181600116156101000203166002900480601f01602080910402602001604051908101604052809291908181526020018280546001816001161561010002031660029004801561308e5780601f106130635761010080835404028352916020019161308e565b820191906000526020600020905b81548152906001019060200180831161307157829003601f168201915b50505050508152602001600182018054600181600116156101000203166002900480601f0160208091040260200160405190810160405280929190818152602001828054600181600116156101000203166002900480156131305780601f1061310557610100808354040283529160200191613130565b820191906000526020600020905b81548152906001019060200180831161311357829003601f168201915b50505050508152602001600282018054600181600116156101000203166002900480601f0160208091040260200160405190810160405280929190818152602001828054600181600116156101000203166002900480156131d25780601f106131a7576101008083540402835291602001916131d2565b820191906000526020600020905b8154815290600101906020018083116131b557829003601f168201915b50505050508152602001600382015481526020016004820160009054906101000a900460ff161515151581526020016004820160019054906101000a900460ff16151515158152505090506000600c82602001516040518082805190602001908083835b602083106132595780518252602082019150602081019050602083039250613236565b6001836020036101000a038019825116818451168082178552505050505050905001915050908152602001604051809103902060009054906101000a900473ffffffffffffffffffffffffffffffffffffffff1690506000600c83600001516040518082805190602001908083835b602083106132eb57805182526020820191506020810190506020830392506132c8565b6001836020036101000a038019825116818451168082178552505050505050905001915050908152602001604051809103902060009054906101000a900473ffffffffffffffffffffffffffffffffffffffff1690508173ffffffffffffffffffffffffffffffffffffffff163373ffffffffffffffffffffffffffffffffffffffff1614806133a657508073ffffffffffffffffffffffffffffffffffffffff163373ffffffffffffffffffffffffffffffffffffffff16145b6133fb576040517f08c379a00000000000000000000000000000000000000000000000000000000081526004018080602001828103825260318152602001806152226031913960400191505060405180910390fd5b600060608273ffffffffffffffffffffffffffffffffffffffff16856060015160405180600001905060006040518083038185875af1925050503d8060008114613461576040519150601f19603f3d011682016040523d82523d6000602084013e613466565b606091505b5091509150816134de576040517f08c379a00000000000000000000000000000000000000000000000000000000081526004018080602001828103825260168152602001807f4661696c656420746f20726566756e642065746865720000000000000000000081525060200191505060405180910390fd5b6134e789613d62565b505050505050505050565b60606134fd82613c6f565b613552576040517f08c379a000000000000000000000000000000000000000000000000000000000815260040180806020018281038252602f815260200180615448602f913960400191505060405180910390fd5b6060600860008481526020019081526020016000208054600181600116156101000203166002900480601f0160208091040260200160405190810160405280929190818152602001828054600181600116156101000203166002900480156135fb5780601f106135d0576101008083540402835291602001916135fb565b820191906000526020600020905b8154815290600101906020018083116135de57829003601f168201915b50505050509050606061360c612302565b90506000815114156136225781925050506137be565b6000825111156136f35780826040516020018083805190602001908083835b602083106136645780518252602082019150602081019050602083039250613641565b6001836020036101000a03801982511681845116808217855250505050505090500182805190602001908083835b602083106136b55780518252602082019150602081019050602083039250613692565b6001836020036101000a03801982511681845116808217855250505050505090500192505050604051602081830303815290604052925050506137be565b806136fd856145c0565b6040516020018083805190602001908083835b602083106137335780518252602082019150602081019050602083039250613710565b6001836020036101000a03801982511681845116808217855250505050505090500182805190602001908083835b602083106137845780518252602082019150602081019050602083039250613761565b6001836020036101000a03801982511681845116808217855250505050505090500192505050604051602081830303815290604052925050505b919050565b6000600560008473ffffffffffffffffffffffffffffffffffffffff1673ffffffffffffffffffffffffffffffffffffffff16815260200190815260200160002060008373ffffffffffffffffffffffffffffffffffffffff1673ffffffffffffffffffffffffffffffffffffffff16815260200190815260200160002060009054906101000a900460ff16905092915050565b80600d8054905081106138d2576040517f08c379a00000000000000000000000000000000000000000000000000000000081526004018080602001828103825260148152602001807f4f6666657220646f6573206e6f7420657869737400000000000000000000000081525060200191505060405180910390fd5b6138da613c8c565b73ffffffffffffffffffffffffffffffffffffffff166138f861290c565b73ffffffffffffffffffffffffffffffffffffffff1614613981576040517f08c379a00000000000000000000000000000000000000000000000000000000081526004018080602001828103825260208152602001807f4f776e61626c653a2063616c6c6572206973206e6f7420746865206f776e657281525060200191505060405180910390fd5b600082101580156139965750600d8054905082105b613a08576040517f08c379a00000000000000000000000000000000000000000000000000000000081526004018080602001828103825260158152602001807f4f6666657220646f6573206e6f7420657869737473000000000000000000000081525060200191505060405180910390fd5b6001600d8381548110613a1757fe5b906000526020600020906005020160040160006101000a81548160ff0219169083151502179055507f4e8eede0f2478306c407ef4ad15f6916989e920e47ef176157e39c991f747b0c826040518082815260200191505060405180910390a15050565b613a82613c8c565b73ffffffffffffffffffffffffffffffffffffffff16613aa061290c565b73ffffffffffffffffffffffffffffffffffffffff1614613b29576040517f08c379a00000000000000000000000000000000000000000000000000000000081526004018080602001828103825260208152602001807f4f776e61626c653a2063616c6c6572206973206e6f7420746865206f776e657281525060200191505060405180910390fd5b600073ffffffffffffffffffffffffffffffffffffffff168173ffffffffffffffffffffffffffffffffffffffff161415613baf576040517f08c379a00000000000000000000000000000000000000000000000000000000081526004018080602001828103825260268152602001806152536026913960400191505060405180910390fd5b8073ffffffffffffffffffffffffffffffffffffffff16600a60009054906101000a900473ffffffffffffffffffffffffffffffffffffffff1673ffffffffffffffffffffffffffffffffffffffff167f8be0079c531659141344cd1fd0a4f28419497f9722a3daafe3b4186f6b6457e060405160405180910390a380600a60006101000a81548173ffffffffffffffffffffffffffffffffffffffff021916908373ffffffffffffffffffffffffffffffffffffffff16021790555050565b6000613c8582600261470790919063ffffffff16565b9050919050565b600033905090565b816004600083815260200190815260200160002060006101000a81548173ffffffffffffffffffffffffffffffffffffffff021916908373ffffffffffffffffffffffffffffffffffffffff160217905550808273ffffffffffffffffffffffffffffffffffffffff16613d07836122cb565b73ffffffffffffffffffffffffffffffffffffffff167f8c5be1e5ebec7d5bd14f71427d1e84f3dd0314c0f7b2291e5b200ac8c7c3b92560405160405180910390a45050565b6000613d5b82600001614721565b9050919050565b80600d805490508110613ddd576040517f08c379a00000000000000000000000000000000000000000000000000000000081526004018080602001828103825260148152602001807f4f6666657220646f6573206e6f7420657869737400000000000000000000000081525060200191505060405180910390fd5b81613de66150f6565b600d8281548110613df357fe5b90600052602060002090600502016040518060c0016040529081600082018054600181600116156101000203166002900480601f016020809104026020016040519081016040528092919081815260200182805460018160011615610100020316600290048015613ea55780601f10613e7a57610100808354040283529160200191613ea5565b820191906000526020600020905b815481529060010190602001808311613e8857829003601f168201915b50505050508152602001600182018054600181600116156101000203166002900480601f016020809104026020016040519081016040528092919081815260200182805460018160011615610100020316600290048015613f475780601f10613f1c57610100808354040283529160200191613f47565b820191906000526020600020905b815481529060010190602001808311613f2a57829003601f168201915b50505050508152602001600282018054600181600116156101000203166002900480601f016020809104026020016040519081016040528092919081815260200182805460018160011615610100020316600290048015613fe95780601f10613fbe57610100808354040283529160200191613fe9565b820191906000526020600020905b815481529060010190602001808311613fcc57829003601f168201915b50505050508152602001600382015481526020016004820160009054906101000a900460ff161515151581526020016004820160019054906101000a900460ff16151515158152505090508060a00151156140ac576040517f08c379a000000000000000000000000000000000000000000000000000000000815260040180806020018281038252601b8152602001807f4f6666657220697320616c726561647920636f6d706c657465642e000000000081525060200191505060405180910390fd5b8060800151614123576040517f08c379a00000000000000000000000000000000000000000000000000000000081526004018080602001828103825260168152602001807f4f66666572206973206e6f742076657269666965642e0000000000000000000081525060200191505060405180910390fd5b6000600d858154811061413257fe5b9060005260206000209060050201905060018160040160016101000a81548160ff0219169083151502179055507f422b793202eb794642b1017af34abd55c83b22253a8323bfb35132b8cf8d5cc3856040518082815260200191505060405180910390a15050505050565b60006141a882613c6f565b6141fd576040517f08c379a000000000000000000000000000000000000000000000000000000000815260040180806020018281038252602c8152602001806152c3602c913960400191505060405180910390fd5b6000614208836122cb565b90508073ffffffffffffffffffffffffffffffffffffffff168473ffffffffffffffffffffffffffffffffffffffff16148061427757508373ffffffffffffffffffffffffffffffffffffffff1661425f84610fe9565b73ffffffffffffffffffffffffffffffffffffffff16145b80614288575061428781856137c3565b5b91505092915050565b8273ffffffffffffffffffffffffffffffffffffffff166142b1826122cb565b73ffffffffffffffffffffffffffffffffffffffff161461431d576040517f08c379a00000000000000000000000000000000000000000000000000000000081526004018080602001828103825260298152602001806153f86029913960400191505060405180910390fd5b600073ffffffffffffffffffffffffffffffffffffffff168273ffffffffffffffffffffffffffffffffffffffff1614156143a3576040517f08c379a00000000000000000000000000000000000000000000000000000000081526004018080602001828103825260248152602001806152796024913960400191505060405180910390fd5b6143ae838383614732565b6143b9600082613c94565b61440a81600160008673ffffffffffffffffffffffffffffffffffffffff1673ffffffffffffffffffffffffffffffffffffffff16815260200190815260200160002061473790919063ffffffff16565b5061445c81600160008573ffffffffffffffffffffffffffffffffffffffff1673ffffffffffffffffffffffffffffffffffffffff16815260200190815260200160002061475190919063ffffffff16565b506144738183600261476b9092919063ffffffff16565b50808273ffffffffffffffffffffffffffffffffffffffff168473ffffffffffffffffffffffffffffffffffffffff167fddf252ad1be2c89b69c2b068fc378daa952ba7f163c4a11628f55a4df523b3ef60405160405180910390a4505050565b60006144e383600001836147a0565b60001c905092915050565b6000806000806145018660000186614823565b915091508160001c8160001c9350935050509250929050565b600061452d846000018460001b846148bc565b60001c90509392505050565b6000614547826000016149b2565b9050919050565b614559848484614291565b614565848484846149c3565b6145ba576040517f08c379a00000000000000000000000000000000000000000000000000000000081526004018080602001828103825260328152602001806151f06032913960400191505060405180910390fd5b50505050565b60606000821415614608576040518060400160405280600181526020017f30000000000000000000000000000000000000000000000000000000000000008152509050614702565b600082905060005b60008214614632578080600101915050600a828161462a57fe5b049150614610565b60608167ffffffffffffffff8111801561464b57600080fd5b506040519080825280601f01601f19166020018201604052801561467e5781602001600182028036833780820191505090505b50905060006001830390508593505b600084146146fa57600a848161469f57fe5b0660300160f81b828280600190039350815181106146b957fe5b60200101907effffffffffffffffffffffffffffffffffffffffffffffffffffffffffffff1916908160001a905350600a84816146f257fe5b04935061468d565b819450505050505b919050565b6000614719836000018360001b614bdc565b905092915050565b600081600001805490509050919050565b505050565b6000614749836000018360001b614bff565b905092915050565b6000614763836000018360001b614ce7565b905092915050565b6000614797846000018460001b8473ffffffffffffffffffffffffffffffffffffffff1660001b614d57565b90509392505050565b600081836000018054905011614801576040517f08c379a00000000000000000000000000000000000000000000000000000000081526004018080602001828103825260228152602001806151ce6022913960400191505060405180910390fd5b82600001828154811061481057fe5b9060005260206000200154905092915050565b60008082846000018054905011614885576040517f08c379a000000000000000000000000000000000000000000000000000000000815260040180806020018281038252602281526020018061537a6022913960400191505060405180910390fd5b600084600001848154811061489657fe5b906000526020600020906002020190508060000154816001015492509250509250929050565b60008084600101600085815260200190815260200160002054905060008114158390614983576040517f08c379a00000000000000000000000000000000000000000000000000000000081526004018080602001828103825283818151815260200191508051906020019080838360005b8381101561494857808201518184015260208101905061492d565b50505050905090810190601f1680156149755780820380516001836020036101000a031916815260200191505b509250505060405180910390fd5b5084600001600182038154811061499657fe5b9060005260206000209060020201600101549150509392505050565b600081600001805490509050919050565b60006149e48473ffffffffffffffffffffffffffffffffffffffff16614e33565b6149f15760019050614bd4565b6060614b5b63150b7a0260e01b614a06613c8c565b888787604051602401808573ffffffffffffffffffffffffffffffffffffffff1681526020018473ffffffffffffffffffffffffffffffffffffffff16815260200183815260200180602001828103825283818151815260200191508051906020019080838360005b83811015614a8a578082015181840152602081019050614a6f565b50505050905090810190601f168015614ab75780820380516001836020036101000a031916815260200191505b5095505050505050604051602081830303815290604052907bffffffffffffffffffffffffffffffffffffffffffffffffffffffff19166020820180517bffffffffffffffffffffffffffffffffffffffffffffffffffffffff83818316178352505050506040518060600160405280603281526020016151f0603291398773ffffffffffffffffffffffffffffffffffffffff16614e469092919063ffffffff16565b90506000818060200190516020811015614b7457600080fd5b8101908080519060200190929190505050905063150b7a0260e01b7bffffffffffffffffffffffffffffffffffffffffffffffffffffffff1916817bffffffffffffffffffffffffffffffffffffffffffffffffffffffff191614925050505b949350505050565b600080836001016000848152602001908152602001600020541415905092915050565b60008083600101600084815260200190815260200160002054905060008114614cdb5760006001820390506000600186600001805490500390506000866000018281548110614c4a57fe5b9060005260206000200154905080876000018481548110614c6757fe5b9060005260206000200181905550600183018760010160008381526020019081526020016000208190555086600001805480614c9f57fe5b60019003818190600052602060002001600090559055866001016000878152602001908152602001600020600090556001945050505050614ce1565b60009150505b92915050565b6000614cf38383614e5e565b614d4c578260000182908060018154018082558091505060019003906000526020600020016000909190919091505582600001805490508360010160008481526020019081526020016000208190555060019050614d51565b600090505b92915050565b6000808460010160008581526020019081526020016000205490506000811415614dfe57846000016040518060400160405280868152602001858152509080600181540180825580915050600190039060005260206000209060020201600090919091909150600082015181600001556020820151816001015550508460000180549050856001016000868152602001908152602001600020819055506001915050614e2c565b82856000016001830381548110614e1157fe5b90600052602060002090600202016001018190555060009150505b9392505050565b600080823b905060008111915050919050565b6060614e558484600085614e81565b90509392505050565b600080836001016000848152602001908152602001600020541415905092915050565b606082471015614edc576040517f08c379a000000000000000000000000000000000000000000000000000000000815260040180806020018281038252602681526020018061529d6026913960400191505060405180910390fd5b614ee585614e33565b614f57576040517f08c379a000000000000000000000000000000000000000000000000000000000815260040180806020018281038252601d8152602001807f416464726573733a2063616c6c20746f206e6f6e2d636f6e747261637400000081525060200191505060405180910390fd5b600060608673ffffffffffffffffffffffffffffffffffffffff1685876040518082805190602001908083835b60208310614fa75780518252602082019150602081019050602083039250614f84565b6001836020036101000a03801982511681845116808217855250505050505090500191505060006040518083038185875af1925050503d8060008114615009576040519150601f19603f3d011682016040523d82523d6000602084013e61500e565b606091505b509150915061501e82828661502a565b92505050949350505050565b6060831561503a578290506150ef565b60008351111561504d5782518084602001fd5b816040517f08c379a00000000000000000000000000000000000000000000000000000000081526004018080602001828103825283818151815260200191508051906020019080838360005b838110156150b4578082015181840152602081019050615099565b50505050905090810190601f1680156150e15780820380516001836020036101000a031916815260200191505b509250505060405180910390fd5b9392505050565b6040518060c00160405280606081526020016060815260200160608152602001600081526020016000151581526020016000151581525090565b828054600181600116156101000203166002900490600052602060002090601f016020900481019282601f1061517157805160ff191683800117855561519f565b8280016001018555821561519f579182015b8281111561519e578251825591602001919060010190615183565b5b5090506151ac91906151b0565b5090565b5b808211156151c95760008160009055506001016151b1565b509056fe456e756d657261626c655365743a20696e646578206f7574206f6620626f756e64734552433732313a207472616e7366657220746f206e6f6e20455243373231526563656976657220696d706c656d656e746572596f7520617265206e6f7420746865206275796572206f72207468652073656c6c6572206f662074686973206f666665724f776e61626c653a206e6577206f776e657220697320746865207a65726f20616464726573734552433732313a207472616e7366657220746f20746865207a65726f2061646472657373416464726573733a20696e73756666696369656e742062616c616e636520666f722063616c6c4552433732313a206f70657261746f7220717565727920666f72206e6f6e6578697374656e7420746f6b656e4552433732313a20617070726f76652063616c6c6572206973206e6f74206f776e6572206e6f7220617070726f76656420666f7220616c6c4552433732313a2062616c616e636520717565727920666f7220746865207a65726f20616464726573734552433732313a206f776e657220717565727920666f72206e6f6e6578697374656e7420746f6b656e456e756d657261626c654d61703a20696e646578206f7574206f6620626f756e6473496e73756666696369656e742076616c75652c20706c65617365206d61746368207468652062696420616d6f756e742e4552433732313a20617070726f76656420717565727920666f72206e6f6e6578697374656e7420746f6b656e4552433732313a207472616e73666572206f6620746f6b656e2074686174206973206e6f74206f776e4f6e6c79207468652073656c6c65722063616e2063616c6c20746869732066756e6374696f6e2e4552433732314d657461646174613a2055524920717565727920666f72206e6f6e6578697374656e7420746f6b656e4552433732313a20617070726f76616c20746f2063757272656e74206f776e6572557365726e616d6520616c726561647920697320616c7265616479206c696e6b6564214552433732313a207472616e736665722063616c6c6572206973206e6f74206f776e6572206e6f7220617070726f766564596f752063616e206f6e6c7920637265617465206f66666572732066726f6d20796f757273656c66a2646970667358221220c4bd5cb6393df4ddda15d55ce3094a2295aa1b572be8a30cea7ca6de6e27bd8364736f6c63430007030033",
  "linkReferences": {},
  "deployedLinkReferences": {}
}