{
  "_format": "hh-sol-artifact-1",
  "contractName": "TreasureTokenFactory",
  "sourceName": "contracts/TreasureTokenFactory.sol",
  "abi": [
    {
      "inputs": [],
      "stateMutability": "nonpayable",
      "type": "constructor"
    },
    {
      "anonymous": false,
      "inputs": [
        {
          "indexed": true,
          "internalType": "address",
          "name": "owner",
          "type": "address"
        },
        {
          "indexed": true,
          "internalType": "address",
          "name": "approved",
          "type": "address"
        },
        {
          "indexed": true,
          "internalType": "uint256",
          "name": "tokenId",
          "type": "uint256"
        }
      ],
      "name": "Approval",
      "type": "event"
    },
    {
      "anonymous": false,
      "inputs": [
        {
          "indexed": true,
          "internalType": "address",
          "name": "owner",
          "type": "address"
        },
        {
          "indexed": true,
          "internalType": "address",
          "name": "operator",
          "type": "address"
        },
        {
          "indexed": false,
          "internalType": "bool",
          "name": "approved",
          "type": "bool"
        }
      ],
      "name": "ApprovalForAll",
      "type": "event"
    },
    {
      "anonymous": false,
      "inputs": [
        {
          "indexed": false,
          "internalType": "uint256",
          "name": "offerId",
          "type": "uint256"
        }
      ],
      "name": "OfferCompleted",
      "type": "event"
    },
    {
      "anonymous": false,
      "inputs": [
        {
          "indexed": false,
          "internalType": "uint256",
          "name": "offerId",
          "type": "uint256"
        },
        {
          "indexed": false,
          "internalType": "string",
          "name": "buyerId",
          "type": "string"
        },
        {
          "indexed": false,
          "internalType": "string",
          "name": "sellerId",
          "type": "string"
        },
        {
          "indexed": false,
          "internalType": "string",
          "name": "postId",
          "type": "string"
        },
        {
          "indexed": false,
          "internalType": "uint256",
          "name": "bidAmount",
          "type": "uint256"
        }
      ],
      "name": "OfferCreated",
      "type": "event"
    },
    {
      "anonymous": false,
      "inputs": [
        {
          "indexed": false,
          "internalType": "uint256",
          "name": "offerId",
          "type": "uint256"
        },
        {
          "indexed": false,
          "internalType": "string",
          "name": "contentId",
          "type": "string"
        }
      ],
      "name": "OfferVerified",
      "type": "event"
    },
    {
      "anonymous": false,
      "inputs": [
        {
          "indexed": true,
          "internalType": "address",
          "name": "previousOwner",
          "type": "address"
        },
        {
          "indexed": true,
          "internalType": "address",
          "name": "newOwner",
          "type": "address"
        }
      ],
      "name": "OwnershipTransferred",
      "type": "event"
    },
    {
      "anonymous": false,
      "inputs": [
        {
          "indexed": false,
          "internalType": "uint256",
          "name": "tokenId",
          "type": "uint256"
        },
        {
          "indexed": false,
          "internalType": "string",
          "name": "ownerId",
          "type": "string"
        }
      ],
      "name": "TokenCreated",
      "type": "event"
    },
    {
      "anonymous": false,
      "inputs": [
        {
          "indexed": true,
          "internalType": "address",
          "name": "from",
          "type": "address"
        },
        {
          "indexed": true,
          "internalType": "address",
          "name": "to",
          "type": "address"
        },
        {
          "indexed": true,
          "internalType": "uint256",
          "name": "tokenId",
          "type": "uint256"
        }
      ],
      "name": "Transfer",
      "type": "event"
    },
    {
      "anonymous": false,
      "inputs": [
        {
          "indexed": false,
          "internalType": "string",
          "name": "userId",
          "type": "string"
        },
        {
          "indexed": false,
          "internalType": "address",
          "name": "userAddress",
          "type": "address"
        }
      ],
      "name": "UserLinked",
      "type": "event"
    },
    {
      "inputs": [
        {
          "internalType": "uint256",
          "name": "_offerId",
          "type": "uint256"
        }
      ],
      "name": "accept",
      "outputs": [],
      "stateMutability": "nonpayable",
      "type": "function"
    },
    {
      "inputs": [
        {
          "internalType": "address",
          "name": "to",
          "type": "address"
        },
        {
          "internalType": "uint256",
          "name": "tokenId",
          "type": "uint256"
        }
      ],
      "name": "approve",
      "outputs": [],
      "stateMutability": "nonpayable",
      "type": "function"
    },
    {
      "inputs": [
        {
          "internalType": "address",
          "name": "owner",
          "type": "address"
        }
      ],
      "name": "balanceOf",
      "outputs": [
        {
          "internalType": "uint256",
          "name": "",
          "type": "uint256"
        }
      ],
      "stateMutability": "view",
      "type": "function"
    },
    {
      "inputs": [],
      "name": "baseURI",
      "outputs": [
        {
          "internalType": "string",
          "name": "",
          "type": "string"
        }
      ],
      "stateMutability": "view",
      "type": "function"
    },
    {
      "inputs": [
        {
          "internalType": "string",
          "name": "_buyerId",
          "type": "string"
        },
        {
          "internalType": "string",
          "name": "_sellerId",
          "type": "string"
        },
        {
          "internalType": "string",
          "name": "_postId",
          "type": "string"
        },
        {
          "internalType": "uint256",
          "name": "_bidAmount",
          "type": "uint256"
        }
      ],
      "name": "createOffer",
      "outputs": [],
      "stateMutability": "payable",
      "type": "function"
    },
    {
      "inputs": [
        {
          "internalType": "uint256",
          "name": "tokenId",
          "type": "uint256"
        }
      ],
      "name": "getApproved",
      "outputs": [
        {
          "internalType": "address",
          "name": "",
          "type": "address"
        }
      ],
      "stateMutability": "view",
      "type": "function"
    },
    {
      "inputs": [
        {
          "internalType": "string",
          "name": "_postId",
          "type": "string"
        }
      ],
      "name": "getContentId",
      "outputs": [
        {
          "internalType": "string",
          "name": "",
          "type": "string"
        }
      ],
      "stateMutability": "view",
      "type": "function"
    },
    {
      "inputs": [
        {
          "internalType": "string",
          "name": "_userId",
          "type": "string"
        }
      ],
      "name": "getUser",
      "outputs": [
        {
          "internalType": "address payable",
          "name": "",
          "type": "address"
        }
      ],
      "stateMutability": "view",
      "type": "function"
    },
    {
      "inputs": [
        {
          "internalType": "address",
          "name": "owner",
          "type": "address"
        },
        {
          "internalType": "address",
          "name": "operator",
          "type": "address"
        }
      ],
      "name": "isApprovedForAll",
      "outputs": [
        {
          "internalType": "bool",
          "name": "",
          "type": "bool"
        }
      ],
      "stateMutability": "view",
      "type": "function"
    },
    {
      "inputs": [
        {
          "internalType": "string",
          "name": "_userId",
          "type": "string"
        },
        {
          "internalType": "address payable",
          "name": "_userAddress",
          "type": "address"
        }
      ],
      "name": "mapUser",
      "outputs": [],
      "stateMutability": "nonpayable",
      "type": "function"
    },
    {
      "inputs": [],
      "name": "name",
      "outputs": [
        {
          "internalType": "string",
          "name": "",
          "type": "string"
        }
      ],
      "stateMutability": "view",
      "type": "function"
    },
    {
      "inputs": [],
      "name": "owner",
      "outputs": [
        {
          "internalType": "address",
          "name": "",
          "type": "address"
        }
      ],
      "stateMutability": "view",
      "type": "function"
    },
    {
      "inputs": [
        {
          "internalType": "uint256",
          "name": "tokenId",
          "type": "uint256"
        }
      ],
      "name": "ownerOf",
      "outputs": [
        {
          "internalType": "address",
          "name": "",
          "type": "address"
        }
      ],
      "stateMutability": "view",
      "type": "function"
    },
    {
      "inputs": [
        {
          "internalType": "uint256",
          "name": "_offerId",
          "type": "uint256"
        }
      ],
      "name": "reject",
      "outputs": [],
      "stateMutability": "nonpayable",
      "type": "function"
    },
    {
      "inputs": [],
      "name": "renounceOwnership",
      "outputs": [],
      "stateMutability": "nonpayable",
      "type": "function"
    },
    {
      "inputs": [
        {
          "internalType": "address",
          "name": "from",
          "type": "address"
        },
        {
          "internalType": "address",
          "name": "to",
          "type": "address"
        },
        {
          "internalType": "uint256",
          "name": "tokenId",
          "type": "uint256"
        }
      ],
      "name": "safeTransferFrom",
      "outputs": [],
      "stateMutability": "nonpayable",
      "type": "function"
    },
    {
      "inputs": [
        {
          "internalType": "address",
          "name": "from",
          "type": "address"
        },
        {
          "internalType": "address",
          "name": "to",
          "type": "address"
        },
        {
          "internalType": "uint256",
          "name": "tokenId",
          "type": "uint256"
        },
        {
          "internalType": "bytes",
          "name": "_data",
          "type": "bytes"
        }
      ],
      "name": "safeTransferFrom",
      "outputs": [],
      "stateMutability": "nonpayable",
      "type": "function"
    },
    {
      "inputs": [
        {
          "internalType": "address",
          "name": "operator",
          "type": "address"
        },
        {
          "internalType": "bool",
          "name": "approved",
          "type": "bool"
        }
      ],
      "name": "setApprovalForAll",
      "outputs": [],
      "stateMutability": "nonpayable",
      "type": "function"
    },
    {
      "inputs": [
        {
          "internalType": "bytes4",
          "name": "interfaceId",
          "type": "bytes4"
        }
      ],
      "name": "supportsInterface",
      "outputs": [
        {
          "internalType": "bool",
          "name": "",
          "type": "bool"
        }
      ],
      "stateMutability": "view",
      "type": "function"
    },
    {
      "inputs": [],
      "name": "symbol",
      "outputs": [
        {
          "internalType": "string",
          "name": "",
          "type": "string"
        }
      ],
      "stateMutability": "view",
      "type": "function"
    },
    {
      "inputs": [
        {
          "internalType": "uint256",
          "name": "index",
          "type": "uint256"
        }
      ],
      "name": "tokenByIndex",
      "outputs": [
        {
          "internalType": "uint256",
          "name": "",
          "type": "uint256"
        }
      ],
      "stateMutability": "view",
      "type": "function"
    },
    {
      "inputs": [
        {
          "internalType": "address",
          "name": "owner",
          "type": "address"
        },
        {
          "internalType": "uint256",
          "name": "index",
          "type": "uint256"
        }
      ],
      "name": "tokenOfOwnerByIndex",
      "outputs": [
        {
          "internalType": "uint256",
          "name": "",
          "type": "uint256"
        }
      ],
      "stateMutability": "view",
      "type": "function"
    },
    {
      "inputs": [
        {
          "internalType": "uint256",
          "name": "tokenId",
          "type": "uint256"
        }
      ],
      "name": "tokenURI",
      "outputs": [
        {
          "internalType": "string",
          "name": "",
          "type": "string"
        }
      ],
      "stateMutability": "view",
      "type": "function"
    },
    {
      "inputs": [],
      "name": "totalSupply",
      "outputs": [
        {
          "internalType": "uint256",
          "name": "",
          "type": "uint256"
        }
      ],
      "stateMutability": "view",
      "type": "function"
    },
    {
      "inputs": [
        {
          "internalType": "address",
          "name": "from",
          "type": "address"
        },
        {
          "internalType": "address",
          "name": "to",
          "type": "address"
        },
        {
          "internalType": "uint256",
          "name": "tokenId",
          "type": "uint256"
        }
      ],
      "name": "transferFrom",
      "outputs": [],
      "stateMutability": "nonpayable",
      "type": "function"
    },
    {
      "inputs": [
        {
          "internalType": "address",
          "name": "newOwner",
          "type": "address"
        }
      ],
      "name": "transferOwnership",
      "outputs": [],
      "stateMutability": "nonpayable",
      "type": "function"
    },
    {
      "inputs": [
        {
          "internalType": "uint256",
          "name": "_offerId",
          "type": "uint256"
        },
        {
          "internalType": "string",
          "name": "_contentId",
          "type": "string"
        }
      ],
      "name": "verifyOffer",
      "outputs": [],
      "stateMutability": "nonpayable",
      "type": "function"
    }
  ],
  "bytecode": "0x60806040523480156200001157600080fd5b50604080518082018252600f81526e151c99585cdd5c9953dc989a5d185b608a1b602080830191909152825180840190935260038352622a27a960e91b9083015290620000656301ffc9a760e01b6200012a565b81516200007a906006906020850190620001b3565b50805162000090906007906020840190620001b3565b50620000a36380ac58cd60e01b6200012a565b620000b5635b5e139f60e01b6200012a565b620000c763780e9d6360e01b6200012a565b5060009050620000d6620001af565b600a80546001600160a01b0319166001600160a01b038316908117909155604051919250906000907f8be0079c531659141344cd1fd0a4f28419497f9722a3daafe3b4186f6b6457e0908290a3506200024f565b6001600160e01b031980821614156200018a576040805162461bcd60e51b815260206004820152601c60248201527f4552433136353a20696e76616c696420696e7465726661636520696400000000604482015290519081900360640190fd5b6001600160e01b0319166000908152602081905260409020805460ff19166001179055565b3390565b828054600181600116156101000203166002900490600052602060002090601f016020900481019282601f10620001f657805160ff191683800117855562000226565b8280016001018555821562000226579182015b828111156200022657825182559160200191906001019062000209565b506200023492915062000238565b5090565b5b8082111562000234576000815560010162000239565b6141ad806200025f6000396000f3fe6080604052600436106101ac5760003560e01c80636352211e116100ec57806395d89b411161008a578063b8adaa1111610064578063b8adaa1114610aa9578063c87b56dd14610ad3578063e985e9c514610afd578063f2fde38b14610b38576101ac565b806395d89b4114610986578063a22cb4651461099b578063b88d4fde146109d6576101ac565b8063715018a6116100c6578063715018a6146107eb5780637db582a914610800578063875f7179146108be5780638da5cb5b14610971576101ac565b80636352211e146107795780636c0360eb146107a357806370a08231146107b8576101ac565b806323b872dd1161015957806331feb6711161013357806331feb671146104a357806338061d821461055657806342842e0e1461070c5780634f6ccce71461074f576101ac565b806323b872dd1461036d57806329f2ac81146103b05780632f745c591461046a576101ac565b8063095ea7b31161018a578063095ea7b3146102e157806318160ddd1461031c57806319b05f4914610343576101ac565b806301ffc9a7146101b157806306fdde0314610211578063081812fc1461029b575b600080fd5b3480156101bd57600080fd5b506101fd600480360360208110156101d457600080fd5b50357fffffffff0000000000000000000000000000000000000000000000000000000016610b6b565b604080519115158252519081900360200190f35b34801561021d57600080fd5b50610226610ba6565b6040805160208082528351818301528351919283929083019185019080838360005b83811015610260578181015183820152602001610248565b50505050905090810190601f16801561028d5780820380516001836020036101000a031916815260200191505b509250505060405180910390f35b3480156102a757600080fd5b506102c5600480360360208110156102be57600080fd5b5035610c3c565b604080516001600160a01b039092168252519081900360200190f35b3480156102ed57600080fd5b5061031a6004803603604081101561030457600080fd5b506001600160a01b038135169060200135610c9e565b005b34801561032857600080fd5b50610331610d79565b60408051918252519081900360200190f35b34801561034f57600080fd5b5061031a6004803603602081101561036657600080fd5b5035610d8a565b34801561037957600080fd5b5061031a6004803603606081101561039057600080fd5b506001600160a01b0381358116916020810135909116906040013561148d565b3480156103bc57600080fd5b5061031a600480360360408110156103d357600080fd5b813591908101906040810160208201356401000000008111156103f557600080fd5b82018360208201111561040757600080fd5b8035906020019184600183028401116401000000008311171561042957600080fd5b91908080601f0160208091040260200160405190810160405280939291908181526020018383808284376000920191909152509295506114e4945050505050565b34801561047657600080fd5b506103316004803603604081101561048d57600080fd5b506001600160a01b03813516906020013561190d565b3480156104af57600080fd5b506102c5600480360360208110156104c657600080fd5b8101906020810181356401000000008111156104e157600080fd5b8201836020820111156104f357600080fd5b8035906020019184600183028401116401000000008311171561051557600080fd5b91908080601f016020809104026020016040519081016040528093929190818152602001838380828437600092019190915250929550611938945050505050565b61031a6004803603608081101561056c57600080fd5b81019060208101813564010000000081111561058757600080fd5b82018360208201111561059957600080fd5b803590602001918460018302840111640100000000831117156105bb57600080fd5b91908080601f016020809104026020016040519081016040528093929190818152602001838380828437600092019190915250929594936020810193503591505064010000000081111561060e57600080fd5b82018360208201111561062057600080fd5b8035906020019184600183028401116401000000008311171561064257600080fd5b91908080601f016020809104026020016040519081016040528093929190818152602001838380828437600092019190915250929594936020810193503591505064010000000081111561069557600080fd5b8201836020820111156106a757600080fd5b803590602001918460018302840111640100000000831117156106c957600080fd5b91908080601f0160208091040260200160405190810160405280939291908181526020018383808284376000920191909152509295505091359250611ae9915050565b34801561071857600080fd5b5061031a6004803603606081101561072f57600080fd5b506001600160a01b03813581169160208101359091169060400135611e56565b34801561075b57600080fd5b506103316004803603602081101561077257600080fd5b5035611e71565b34801561078557600080fd5b506102c56004803603602081101561079c57600080fd5b5035611e87565b3480156107af57600080fd5b50610226611eaf565b3480156107c457600080fd5b50610331600480360360208110156107db57600080fd5b50356001600160a01b0316611f10565b3480156107f757600080fd5b5061031a611f78565b34801561080c57600080fd5b5061031a6004803603604081101561082357600080fd5b81019060208101813564010000000081111561083e57600080fd5b82018360208201111561085057600080fd5b8035906020019184600183028401116401000000008311171561087257600080fd5b91908080601f016020809104026020016040519081016040528093929190818152602001838380828437600092019190915250929550505090356001600160a01b031691506120439050565b3480156108ca57600080fd5b50610226600480360360208110156108e157600080fd5b8101906020810181356401000000008111156108fc57600080fd5b82018360208201111561090e57600080fd5b8035906020019184600183028401116401000000008311171561093057600080fd5b91908080601f016020809104026020016040519081016040528093929190818152602001838380828437600092019190915250929550612298945050505050565b34801561097d57600080fd5b506102c561238c565b34801561099257600080fd5b5061022661239b565b3480156109a757600080fd5b5061031a600480360360408110156109be57600080fd5b506001600160a01b03813516906020013515156123fc565b3480156109e257600080fd5b5061031a600480360360808110156109f957600080fd5b6001600160a01b03823581169260208101359091169160408201359190810190608081016060820135640100000000811115610a3457600080fd5b820183602082011115610a4657600080fd5b80359060200191846001830284011164010000000083111715610a6857600080fd5b91908080601f016020809104026020016040519081016040528093929190818152602001838380828437600092019190915250929550612501945050505050565b348015610ab557600080fd5b5061031a60048036036020811015610acc57600080fd5b503561255f565b348015610adf57600080fd5b5061022660048036036020811015610af657600080fd5b5035612996565b348015610b0957600080fd5b506101fd60048036036040811015610b2057600080fd5b506001600160a01b0381358116916020013516612c19565b348015610b4457600080fd5b5061031a60048036036020811015610b5b57600080fd5b50356001600160a01b0316612c47565b7fffffffff00000000000000000000000000000000000000000000000000000000811660009081526020819052604090205460ff165b919050565b60068054604080516020601f6002600019610100600188161502019095169490940493840181900481028201810190925282815260609390929091830182828015610c325780601f10610c0757610100808354040283529160200191610c32565b820191906000526020600020905b815481529060010190602001808311610c1557829003601f168201915b5050505050905090565b6000610c4782612d69565b610c825760405162461bcd60e51b815260040180806020018281038252602c815260200180614004602c913960400191505060405180910390fd5b506000908152600460205260409020546001600160a01b031690565b6000610ca982611e87565b9050806001600160a01b0316836001600160a01b03161415610cfc5760405162461bcd60e51b81526004018080602001828103825260218152602001806140db6021913960400191505060405180910390fd5b806001600160a01b0316610d0e612d76565b6001600160a01b03161480610d2f5750610d2f81610d2a612d76565b612c19565b610d6a5760405162461bcd60e51b8152600401808060200182810382526038815260200180613f276038913960400191505060405180910390fd5b610d748383612d7a565b505050565b6000610d856002612df5565b905090565b80610d9481612e00565b81610d9d613cc3565b600f8281548110610daa57fe5b600091825260209182902060408051600593909302909101805460026001821615610100026000190190911604601f8101859004909402830160e090810190925260c0830184815292939092849290918491840182828015610e4d5780601f10610e2257610100808354040283529160200191610e4d565b820191906000526020600020905b815481529060010190602001808311610e3057829003601f168201915b50505050508152602001600182018054600181600116156101000203166002900480601f016020809104026020016040519081016040528092919081815260200182805460018160011615610100020316600290048015610eef5780601f10610ec457610100808354040283529160200191610eef565b820191906000526020600020905b815481529060010190602001808311610ed257829003601f168201915b5050509183525050600282810180546040805160206001841615610100026000190190931694909404601f81018390048302850183019091528084529381019390830182828015610f815780601f10610f5657610100808354040283529160200191610f81565b820191906000526020600020905b815481529060010190602001808311610f6457829003601f168201915b5050509183525050600382015460208083019190915260049092015460ff80821615156040808501919091526101009092041615156060909201919091528282015190518151939450600093600c938291908401908083835b60208310610ff95780518252601f199092019160209182019101610fda565b51815160209384036101000a60001901801990921691161790529201948552506040519384900301909220546001600160a01b031692505033821490506110715760405162461bcd60e51b81526004018080602001828103825260278152602001806140856027913960400191505060405180910390fd5b8461107b81612e59565b6000600f878154811061108a57fe5b906000526020600020906005020190506000600c8260010160405180828054600181600116156101000203166002900480156110fd5780601f106110db5761010080835404028352918201916110fd565b820191906000526020600020905b8154815290600101906020018083116110e9575b505092835250506040519081900360200190205460038301546001600160a01b0390911691506000906060908390600a9060405191900460090290600081818185875af1925050503d8060008114611171576040519150601f19603f3d011682016040523d82523d6000602084013e611176565b606091505b50915091506111848a612f4c565b6000606061119061238c565b6001600160a01b0316600a8760030154816111a757fe5b60405191900490600081818185875af1925050503d80600081146111e7576040519150601f19603f3d011682016040523d82523d6000602084013e6111ec565b606091505b509150915083611243576040805162461bcd60e51b815260206004820152601e60248201527f4661696c656420746f2073656e6420657468657220746f2073656c6c65720000604482015290519081900360640190fd5b81611295576040805162461bcd60e51b815260206004820152601d60248201527f4661696c656420746f2073656e6420657468657220746f206f776e6572000000604482015290519081900360640190fd5b6000611398600d8860020160405180828054600181600116156101000203166002900480156112fb5780601f106112d95761010080835404028352918201916112fb565b820191906000526020600020905b8154815290600101906020018083116112e7575b505092835250506040805160209281900383018120805460026001821615610100026000190190911604601f8101859004850283018501909352828252909290919083018282801561138e5780601f106113635761010080835404028352916020019161138e565b820191906000526020600020905b81548152906001019060200180831161137157829003601f168201915b5050505050612fcd565b6000818152600e6020526040902088549192506113c991899060026000196101006001841615020190911604613cfd565b5060408051828152602081018281528954600260001961010060018416150201909116049282018390527f5d3ac5872118b949a1f8db596134a0e1587ecf18f2203bb1e3ea420c3c3f8fa99284928b92909160608301908490801561146f5780601f106114445761010080835404028352916020019161146f565b820191906000526020600020905b81548152906001019060200180831161145257829003601f168201915b5050935050505060405180910390a150505050505050505050505050565b61149e611498612d76565b82613002565b6114d95760405162461bcd60e51b815260040180806020018281038252603181526020018061411f6031913960400191505060405180910390fd5b610d748383836130a6565b816114ee81612e00565b6114f6612d76565b6001600160a01b031661150761238c565b6001600160a01b031614611562576040805162461bcd60e51b815260206004820181905260248201527f4f776e61626c653a2063616c6c6572206973206e6f7420746865206f776e6572604482015290519081900360640190fd5b600f5483106115b8576040805162461bcd60e51b815260206004820152601560248201527f4f6666657220646f6573206e6f74206578697374730000000000000000000000604482015290519081900360640190fd5b6115c0613cc3565b600f84815481106115cd57fe5b600091825260209182902060408051600593909302909101805460026001821615610100026000190190911604601f8101859004909402830160e090810190925260c08301848152929390928492909184918401828280156116705780601f1061164557610100808354040283529160200191611670565b820191906000526020600020905b81548152906001019060200180831161165357829003601f168201915b50505050508152602001600182018054600181600116156101000203166002900480601f0160208091040260200160405190810160405280929190818152602001828054600181600116156101000203166002900480156117125780601f106116e757610100808354040283529160200191611712565b820191906000526020600020905b8154815290600101906020018083116116f557829003601f168201915b5050509183525050600282810180546040805160206001841615610100026000190190931694909404601f810183900483028501830190915280845293810193908301828280156117a45780601f10611779576101008083540402835291602001916117a4565b820191906000526020600020905b81548152906001019060200180831161178757829003601f168201915b5050509183525050600382015460208083019190915260049092015460ff808216151560408085019190915261010090920416151560609092019190915282810151905181519394508693600d938291908401908083835b6020831061181b5780518252601f1990920191602091820191016117fc565b51815160209384036101000a6000190180199092169116179052920194855250604051938490038101909320845161185c9591949190910192509050613d82565b506001608082015260408051858152602080820183815286519383019390935285517fcc59bd48c71c7a35504dacc9451785cdf44e049b67f1e8862fe5e00c7c7f934a93889388939092606084019185019080838360005b838110156118cc5781810151838201526020016118b4565b50505050905090810190601f1680156118f95780820380516001836020036101000a031916815260200191505b50935050505060405180910390a150505050565b6001600160a01b038216600090815260016020526040812061192f90836131f2565b90505b92915050565b6000611942612d76565b6001600160a01b031661195361238c565b6001600160a01b0316146119ae576040805162461bcd60e51b815260206004820181905260248201527f4f776e61626c653a2063616c6c6572206973206e6f7420746865206f776e6572604482015290519081900360640190fd5b60006001600160a01b0316600c836040518082805190602001908083835b602083106119eb5780518252601f1990920191602091820191016119cc565b51815160209384036101000a60001901801990921691161790529201948552506040519384900301909220546001600160a01b031692909214159150611a7a9050576040805162461bcd60e51b815260206004820152601960248201527f54686973207573657220646f6573206e6f742065786973747300000000000000604482015290519081900360640190fd5b600c826040518082805190602001908083835b60208310611aac5780518252601f199092019160209182019101611a8d565b51815160209384036101000a60001901801990921691161790529201948552506040519384900301909220546001600160a01b0316949350505050565b600c846040518082805190602001908083835b60208310611b1b5780518252601f199092019160209182019101611afc565b51815160209384036101000a60001901801990921691161790529201948552506040519384900301909220546001600160a01b031633149150611b9190505760405162461bcd60e51b81526004018080602001828103825260288152602001806141506028913960400191505060405180910390fd5b80341015611bd05760405162461bcd60e51b8152600401808060200182810382526030815260200180613fd46030913960400191505060405180910390fd5b6040805160c08101825285815260208082018690529181018490526060810183905260006080820181905260a08201819052600f8054600181018255915281518051929360059092027f8d1108e10bcb7c27dddfc02ed9d693a074039d026cf4ea4240b40f7d581ac8020192611c499284920190613d82565b506020828101518051611c629260018501920190613d82565b5060408201518051611c7e916002840191602090910190613d82565b506060820151816003015560808201518160040160006101000a81548160ff02191690831515021790555060a08201518160040160016101000a81548160ff021916908315150217905550505060006001600f805490500390507fe4ee73f89832e5ff7620d747c1a0f4e9d23831e61f79be2dbbd54b5a91e3ab71818686868660405180868152602001806020018060200180602001858152602001848103845288818151815260200191508051906020019080838360005b83811015611d4f578181015183820152602001611d37565b50505050905090810190601f168015611d7c5780820380516001836020036101000a031916815260200191505b50848103835287518152875160209182019189019080838360005b83811015611daf578181015183820152602001611d97565b50505050905090810190601f168015611ddc5780820380516001836020036101000a031916815260200191505b50848103825286518152865160209182019188019080838360005b83811015611e0f578181015183820152602001611df7565b50505050905090810190601f168015611e3c5780820380516001836020036101000a031916815260200191505b509850505050505050505060405180910390a15050505050565b610d7483838360405180602001604052806000815250612501565b600080611e7f6002846131fe565b509392505050565b600061193282604051806060016040528060298152602001613f89602991396002919061321a565b60098054604080516020601f6002600019610100600188161502019095169490940493840181900481028201810190925282815260609390929091830182828015610c325780601f10610c0757610100808354040283529160200191610c32565b60006001600160a01b038216611f575760405162461bcd60e51b815260040180806020018281038252602a815260200180613f5f602a913960400191505060405180910390fd5b6001600160a01b038216600090815260016020526040902061193290612df5565b611f80612d76565b6001600160a01b0316611f9161238c565b6001600160a01b031614611fec576040805162461bcd60e51b815260206004820181905260248201527f4f776e61626c653a2063616c6c6572206973206e6f7420746865206f776e6572604482015290519081900360640190fd5b600a546040516000916001600160a01b0316907f8be0079c531659141344cd1fd0a4f28419497f9722a3daafe3b4186f6b6457e0908390a3600a805473ffffffffffffffffffffffffffffffffffffffff19169055565b61204b612d76565b6001600160a01b031661205c61238c565b6001600160a01b0316146120b7576040805162461bcd60e51b815260206004820181905260248201527f4f776e61626c653a2063616c6c6572206973206e6f7420746865206f776e6572604482015290519081900360640190fd5b60006001600160a01b0316600c836040518082805190602001908083835b602083106120f45780518252601f1990920191602091820191016120d5565b51815160209384036101000a60001901801990921691161790529201948552506040519384900301909220546001600160a01b031692909214915061216c90505760405162461bcd60e51b81526004018080602001828103825260238152602001806140fc6023913960400191505060405180910390fd5b80600c836040518082805190602001908083835b6020831061219f5780518252601f199092019160209182019101612180565b51815160209384036101000a6000190180199092169116179052920194855250604080519485900382018520805473ffffffffffffffffffffffffffffffffffffffff19166001600160a01b0397881617905594861684820152848452865194840194909452505083517fbd24583d1f34ebaec5bacc0cb3d29df1ac91e8fc13018ebc80e3f29e3d49ce16928592859290918291606083019186019080838360005b83811015612259578181015183820152602001612241565b50505050905090810190601f1680156122865780820380516001836020036101000a031916815260200191505b50935050505060405180910390a15050565b6060600d826040518082805190602001908083835b602083106122cc5780518252601f1990920191602091820191016122ad565b518151600019602094850361010090810a820192831692199390931691909117909252949092019687526040805197889003820188208054601f60026001831615909802909501169590950492830182900482028801820190528187529294509250508301828280156123805780601f1061235557610100808354040283529160200191612380565b820191906000526020600020905b81548152906001019060200180831161236357829003601f168201915b50505050509050919050565b600a546001600160a01b031690565b60078054604080516020601f6002600019610100600188161502019095169490940493840181900481028201810190925282815260609390929091830182828015610c325780601f10610c0757610100808354040283529160200191610c32565b612404612d76565b6001600160a01b0316826001600160a01b0316141561246a576040805162461bcd60e51b815260206004820152601960248201527f4552433732313a20617070726f766520746f2063616c6c657200000000000000604482015290519081900360640190fd5b8060056000612477612d76565b6001600160a01b03908116825260208083019390935260409182016000908120918716808252919093529120805460ff1916921515929092179091556124bb612d76565b6001600160a01b03167f17307eab39ab6107e8899845ad3d59bd9653f200f220920489ca2b5937696c318360405180821515815260200191505060405180910390a35050565b61251261250c612d76565b83613002565b61254d5760405162461bcd60e51b815260040180806020018281038252603181526020018061411f6031913960400191505060405180910390fd5b61255984848484613231565b50505050565b8061256981612e00565b8161257381612e59565b61257b613cc3565b600f848154811061258857fe5b600091825260209182902060408051600593909302909101805460026001821615610100026000190190911604601f8101859004909402830160e090810190925260c083018481529293909284929091849184018282801561262b5780601f106126005761010080835404028352916020019161262b565b820191906000526020600020905b81548152906001019060200180831161260e57829003601f168201915b50505050508152602001600182018054600181600116156101000203166002900480601f0160208091040260200160405190810160405280929190818152602001828054600181600116156101000203166002900480156126cd5780601f106126a2576101008083540402835291602001916126cd565b820191906000526020600020905b8154815290600101906020018083116126b057829003601f168201915b5050509183525050600282810180546040805160206001841615610100026000190190931694909404601f8101839004830285018301909152808452938101939083018282801561275f5780601f106127345761010080835404028352916020019161275f565b820191906000526020600020905b81548152906001019060200180831161274257829003601f168201915b5050509183525050600382015460208083019190915260049092015460ff80821615156040808501919091526101009092041615156060909201919091528282015190518151939450600093600c938291908401908083835b602083106127d75780518252601f1990920191602091820191016127b8565b51815160209384036101000a6000190180199092169116179052920194855250604051938490038101842054865180516001600160a01b039092169650600095600c9550909350918291908401908083835b602083106128485780518252601f199092019160209182019101612829565b51815160209384036101000a60001901801990921691161790529201948552506040519384900301909220546001600160a01b03908116935084163314915081905061289c5750336001600160a01b038216145b6128d75760405162461bcd60e51b8152600401808060200182810382526031815260200180613e5a6031913960400191505060405180910390fd5b6128e086612f4c565b606083810151604051600092916001600160a01b038516918481818185875af1925050503d8060008114612930576040519150601f19603f3d011682016040523d82523d6000602084013e612935565b606091505b50915091508161298c576040805162461bcd60e51b815260206004820152601660248201527f4661696c656420746f20726566756e6420657468657200000000000000000000604482015290519081900360640190fd5b5050505050505050565b60606129a182612d69565b6129dc5760405162461bcd60e51b815260040180806020018281038252602f8152602001806140ac602f913960400191505060405180910390fd5b60008281526008602090815260409182902080548351601f6002600019610100600186161502019093169290920491820184900484028101840190945280845260609392830182828015612a715780601f10612a4657610100808354040283529160200191612a71565b820191906000526020600020905b815481529060010190602001808311612a5457829003601f168201915b505050505090506060612a82611eaf565b9050805160001415612a9657509050610ba1565b815115612b575780826040516020018083805190602001908083835b60208310612ad15780518252601f199092019160209182019101612ab2565b51815160209384036101000a600019018019909216911617905285519190930192850191508083835b60208310612b195780518252601f199092019160209182019101612afa565b6001836020036101000a0380198251168184511680821785525050505050509050019250505060405160208183030381529060405292505050610ba1565b80612b6185613283565b6040516020018083805190602001908083835b60208310612b935780518252601f199092019160209182019101612b74565b51815160209384036101000a600019018019909216911617905285519190930192850191508083835b60208310612bdb5780518252601f199092019160209182019101612bbc565b6001836020036101000a0380198251168184511680821785525050505050509050019250505060405160208183030381529060405292505050919050565b6001600160a01b03918216600090815260056020908152604080832093909416825291909152205460ff1690565b612c4f612d76565b6001600160a01b0316612c6061238c565b6001600160a01b031614612cbb576040805162461bcd60e51b815260206004820181905260248201527f4f776e61626c653a2063616c6c6572206973206e6f7420746865206f776e6572604482015290519081900360640190fd5b6001600160a01b038116612d005760405162461bcd60e51b8152600401808060200182810382526026815260200180613e8b6026913960400191505060405180910390fd5b600a546040516001600160a01b038084169216907f8be0079c531659141344cd1fd0a4f28419497f9722a3daafe3b4186f6b6457e090600090a3600a805473ffffffffffffffffffffffffffffffffffffffff19166001600160a01b0392909216919091179055565b6000611932600283613392565b3390565b6000818152600460205260409020805473ffffffffffffffffffffffffffffffffffffffff19166001600160a01b0384169081179091558190612dbc82611e87565b6001600160a01b03167f8c5be1e5ebec7d5bd14f71427d1e84f3dd0314c0f7b2291e5b200ac8c7c3b92560405160405180910390a45050565b60006119328261339e565b600f548110612e56576040805162461bcd60e51b815260206004820152601460248201527f4f6666657220646f6573206e6f74206578697374000000000000000000000000604482015290519081900360640190fd5b50565b600f8181548110612e6657fe5b906000526020600020906005020160040160019054906101000a900460ff1615612ed7576040805162461bcd60e51b815260206004820152601b60248201527f4f6666657220697320616c726561647920636f6d706c657465642e0000000000604482015290519081900360640190fd5b600f8181548110612ee457fe5b600091825260209091206004600590920201015460ff16612e56576040805162461bcd60e51b815260206004820152601660248201527f4f66666572206973206e6f742076657269666965642e00000000000000000000604482015290519081900360640190fd5b80612f5681612e00565b81612f6081612e59565b6000600f8481548110612f6f57fe5b60009182526020918290206004600590920201908101805461ff0019166101001790556040805187815290519193507f422b793202eb794642b1017af34abd55c83b22253a8323bfb35132b8cf8d5cc392908290030190a150505050565b6000612fd9600b6133a2565b6000612fe5600b61339e565b9050612ff8612ff261238c565b826133ab565b61193281846133c9565b600061300d82612d69565b6130485760405162461bcd60e51b815260040180806020018281038252602c815260200180613efb602c913960400191505060405180910390fd5b600061305383611e87565b9050806001600160a01b0316846001600160a01b0316148061308e5750836001600160a01b031661308384610c3c565b6001600160a01b0316145b8061309e575061309e8185612c19565b949350505050565b826001600160a01b03166130b982611e87565b6001600160a01b0316146130fe5760405162461bcd60e51b815260040180806020018281038252602981526020018061405c6029913960400191505060405180910390fd5b6001600160a01b0382166131435760405162461bcd60e51b8152600401808060200182810382526024815260200180613eb16024913960400191505060405180910390fd5b61314e838383610d74565b613159600082612d7a565b6001600160a01b038316600090815260016020526040902061317b908261342c565b506001600160a01b038216600090815260016020526040902061319e9082613438565b506131ab60028284613444565b5080826001600160a01b0316846001600160a01b03167fddf252ad1be2c89b69c2b068fc378daa952ba7f163c4a11628f55a4df523b3ef60405160405180910390a4505050565b600061192f838361345a565b600080808061320d86866134be565b9097909650945050505050565b6000613227848484613539565b90505b9392505050565b61323c8484846130a6565b61324884848484613603565b6125595760405162461bcd60e51b8152600401808060200182810382526032815260200180613e286032913960400191505060405180910390fd5b6060816132c4575060408051808201909152600181527f30000000000000000000000000000000000000000000000000000000000000006020820152610ba1565b8160005b81156132dc57600101600a820491506132c8565b60608167ffffffffffffffff811180156132f557600080fd5b506040519080825280601f01601f191660200182016040528015613320576020820181803683370190505b50859350905060001982015b831561338957600a840660300160f81b8282806001900393508151811061334f57fe5b60200101907effffffffffffffffffffffffffffffffffffffffffffffffffffffffffffff1916908160001a905350600a8404935061332c565b50949350505050565b600061192f83836137ad565b5490565b80546001019055565b6133c58282604051806020016040528060008152506137c5565b5050565b6133d282612d69565b61340d5760405162461bcd60e51b815260040180806020018281038252602c815260200180614030602c913960400191505060405180910390fd5b60008281526008602090815260409091208251610d7492840190613d82565b600061192f8383613817565b600061192f83836138dd565b600061322784846001600160a01b038516613927565b8154600090821061349c5760405162461bcd60e51b8152600401808060200182810382526022815260200180613e066022913960400191505060405180910390fd5b8260000182815481106134ab57fe5b9060005260206000200154905092915050565b8154600090819083106135025760405162461bcd60e51b8152600401808060200182810382526022815260200180613fb26022913960400191505060405180910390fd5b600084600001848154811061351357fe5b906000526020600020906002020190508060000154816001015492509250509250929050565b600082815260018401602052604081205482816135d45760405162461bcd60e51b81526004018080602001828103825283818151815260200191508051906020019080838360005b83811015613599578181015183820152602001613581565b50505050905090810190601f1680156135c65780820380516001836020036101000a031916815260200191505b509250505060405180910390fd5b508460000160018203815481106135e757fe5b9060005260206000209060020201600101549150509392505050565b6000613617846001600160a01b03166139be565b6136235750600161309e565b606061375b630a85bd0160e11b613638612d76565b88878760405160240180856001600160a01b03168152602001846001600160a01b0316815260200183815260200180602001828103825283818151815260200191508051906020019080838360005b8381101561369f578181015183820152602001613687565b50505050905090810190601f1680156136cc5780820380516001836020036101000a031916815260200191505b5095505050505050604051602081830303815290604052907bffffffffffffffffffffffffffffffffffffffffffffffffffffffff19166020820180517bffffffffffffffffffffffffffffffffffffffffffffffffffffffff8381831617835250505050604051806060016040528060328152602001613e28603291396001600160a01b03881691906139c4565b9050600081806020019051602081101561377457600080fd5b50517fffffffff0000000000000000000000000000000000000000000000000000000016630a85bd0160e11b1492505050949350505050565b60009081526001919091016020526040902054151590565b6137cf83836139d3565b6137dc6000848484613603565b610d745760405162461bcd60e51b8152600401808060200182810382526032815260200180613e286032913960400191505060405180910390fd5b600081815260018301602052604081205480156138d3578354600019808301919081019060009087908390811061384a57fe5b906000526020600020015490508087600001848154811061386757fe5b60009182526020808320909101929092558281526001898101909252604090209084019055865487908061389757fe5b60019003818190600052602060002001600090559055866001016000878152602001908152602001600020600090556001945050505050611932565b6000915050611932565b60006138e983836137ad565b61391f57508154600181810184556000848152602080822090930184905584548482528286019093526040902091909155611932565b506000611932565b60008281526001840160205260408120548061398c57505060408051808201825283815260208082018481528654600181810189556000898152848120955160029093029095019182559151908201558654868452818801909252929091205561322a565b8285600001600183038154811061399f57fe5b906000526020600020906002020160010181905550600091505061322a565b3b151590565b60606132278484600085613b01565b6001600160a01b038216613a2e576040805162461bcd60e51b815260206004820181905260248201527f4552433732313a206d696e7420746f20746865207a65726f2061646472657373604482015290519081900360640190fd5b613a3781612d69565b15613a89576040805162461bcd60e51b815260206004820152601c60248201527f4552433732313a20746f6b656e20616c7265616479206d696e74656400000000604482015290519081900360640190fd5b613a9560008383610d74565b6001600160a01b0382166000908152600160205260409020613ab79082613438565b50613ac460028284613444565b5060405181906001600160a01b038416906000907fddf252ad1be2c89b69c2b068fc378daa952ba7f163c4a11628f55a4df523b3ef908290a45050565b606082471015613b425760405162461bcd60e51b8152600401808060200182810382526026815260200180613ed56026913960400191505060405180910390fd5b613b4b856139be565b613b9c576040805162461bcd60e51b815260206004820152601d60248201527f416464726573733a2063616c6c20746f206e6f6e2d636f6e7472616374000000604482015290519081900360640190fd5b60006060866001600160a01b031685876040518082805190602001908083835b60208310613bdb5780518252601f199092019160209182019101613bbc565b6001836020036101000a03801982511681845116808217855250505050505090500191505060006040518083038185875af1925050503d8060008114613c3d576040519150601f19603f3d011682016040523d82523d6000602084013e613c42565b606091505b5091509150613c52828286613c5d565b979650505050505050565b60608315613c6c57508161322a565b825115613c7c5782518084602001fd5b60405162461bcd60e51b8152602060048201818152845160248401528451859391928392604401919085019080838360008315613599578181015183820152602001613581565b6040518060c00160405280606081526020016060815260200160608152602001600081526020016000151581526020016000151581525090565b828054600181600116156101000203166002900490600052602060002090601f016020900481019282601f10613d365780548555613d72565b82800160010185558215613d7257600052602060002091601f016020900482015b82811115613d72578254825591600101919060010190613d57565b50613d7e929150613df0565b5090565b828054600181600116156101000203166002900490600052602060002090601f016020900481019282601f10613dc357805160ff1916838001178555613d72565b82800160010185558215613d72579182015b82811115613d72578251825591602001919060010190613dd5565b5b80821115613d7e5760008155600101613df156fe456e756d657261626c655365743a20696e646578206f7574206f6620626f756e64734552433732313a207472616e7366657220746f206e6f6e20455243373231526563656976657220696d706c656d656e746572596f7520617265206e6f7420746865206275796572206f72207468652073656c6c6572206f662074686973206f666665724f776e61626c653a206e6577206f776e657220697320746865207a65726f20616464726573734552433732313a207472616e7366657220746f20746865207a65726f2061646472657373416464726573733a20696e73756666696369656e742062616c616e636520666f722063616c6c4552433732313a206f70657261746f7220717565727920666f72206e6f6e6578697374656e7420746f6b656e4552433732313a20617070726f76652063616c6c6572206973206e6f74206f776e6572206e6f7220617070726f76656420666f7220616c6c4552433732313a2062616c616e636520717565727920666f7220746865207a65726f20616464726573734552433732313a206f776e657220717565727920666f72206e6f6e6578697374656e7420746f6b656e456e756d657261626c654d61703a20696e646578206f7574206f6620626f756e6473496e73756666696369656e742076616c75652c20706c65617365206d61746368207468652062696420616d6f756e742e4552433732313a20617070726f76656420717565727920666f72206e6f6e6578697374656e7420746f6b656e4552433732314d657461646174613a2055524920736574206f66206e6f6e6578697374656e7420746f6b656e4552433732313a207472616e73666572206f6620746f6b656e2074686174206973206e6f74206f776e4f6e6c79207468652073656c6c65722063616e2063616c6c20746869732066756e6374696f6e2e4552433732314d657461646174613a2055524920717565727920666f72206e6f6e6578697374656e7420746f6b656e4552433732313a20617070726f76616c20746f2063757272656e74206f776e6572557365726e616d6520616c726561647920697320616c7265616479206c696e6b6564214552433732313a207472616e736665722063616c6c6572206973206e6f74206f776e6572206e6f7220617070726f766564596f752063616e206f6e6c7920637265617465206f66666572732066726f6d20796f757273656c66a2646970667358221220a7672c275368bf3b4a904b21965f719415434726bc2ec592a01f5fce121800af64736f6c63430007030033",
  "linkReferences": {},
  "deployedLinkReferences": {}
}