{
  "_format": "hh-sol-artifact-1",
  "contractName": "TreasureTokenFactory",
  "sourceName": "contracts/TreasureTokenFactory.sol",
  "abi": [
    {
      "inputs": [],
      "stateMutability": "nonpayable",
      "type": "constructor"
    },
    {
      "anonymous": false,
      "inputs": [
        {
          "indexed": true,
          "internalType": "address",
          "name": "owner",
          "type": "address"
        },
        {
          "indexed": true,
          "internalType": "address",
          "name": "approved",
          "type": "address"
        },
        {
          "indexed": true,
          "internalType": "uint256",
          "name": "tokenId",
          "type": "uint256"
        }
      ],
      "name": "Approval",
      "type": "event"
    },
    {
      "anonymous": false,
      "inputs": [
        {
          "indexed": true,
          "internalType": "address",
          "name": "owner",
          "type": "address"
        },
        {
          "indexed": true,
          "internalType": "address",
          "name": "operator",
          "type": "address"
        },
        {
          "indexed": false,
          "internalType": "bool",
          "name": "approved",
          "type": "bool"
        }
      ],
      "name": "ApprovalForAll",
      "type": "event"
    },
    {
      "anonymous": false,
      "inputs": [
        {
          "indexed": false,
          "internalType": "uint256",
          "name": "offerId",
          "type": "uint256"
        },
        {
          "indexed": false,
          "internalType": "string",
          "name": "buyerId",
          "type": "string"
        },
        {
          "indexed": false,
          "internalType": "string",
          "name": "sellerId",
          "type": "string"
        },
        {
          "indexed": false,
          "internalType": "string",
          "name": "postId",
          "type": "string"
        },
        {
          "indexed": false,
          "internalType": "uint256",
          "name": "bidAmount",
          "type": "uint256"
        }
      ],
      "name": "OfferCreated",
      "type": "event"
    },
    {
      "anonymous": false,
      "inputs": [
        {
          "indexed": true,
          "internalType": "address",
          "name": "previousOwner",
          "type": "address"
        },
        {
          "indexed": true,
          "internalType": "address",
          "name": "newOwner",
          "type": "address"
        }
      ],
      "name": "OwnershipTransferred",
      "type": "event"
    },
    {
      "anonymous": false,
      "inputs": [
        {
          "indexed": true,
          "internalType": "address",
          "name": "from",
          "type": "address"
        },
        {
          "indexed": true,
          "internalType": "address",
          "name": "to",
          "type": "address"
        },
        {
          "indexed": true,
          "internalType": "uint256",
          "name": "tokenId",
          "type": "uint256"
        }
      ],
      "name": "Transfer",
      "type": "event"
    },
    {
      "anonymous": false,
      "inputs": [
        {
          "indexed": false,
          "internalType": "string",
          "name": "userId",
          "type": "string"
        },
        {
          "indexed": false,
          "internalType": "address",
          "name": "userAddress",
          "type": "address"
        }
      ],
      "name": "UserLinked",
      "type": "event"
    },
    {
      "inputs": [
        {
          "internalType": "address",
          "name": "to",
          "type": "address"
        },
        {
          "internalType": "uint256",
          "name": "tokenId",
          "type": "uint256"
        }
      ],
      "name": "approve",
      "outputs": [],
      "stateMutability": "nonpayable",
      "type": "function"
    },
    {
      "inputs": [
        {
          "internalType": "address",
          "name": "owner",
          "type": "address"
        }
      ],
      "name": "balanceOf",
      "outputs": [
        {
          "internalType": "uint256",
          "name": "",
          "type": "uint256"
        }
      ],
      "stateMutability": "view",
      "type": "function"
    },
    {
      "inputs": [],
      "name": "baseURI",
      "outputs": [
        {
          "internalType": "string",
          "name": "",
          "type": "string"
        }
      ],
      "stateMutability": "view",
      "type": "function"
    },
    {
      "inputs": [
        {
          "internalType": "string",
          "name": "_buyerId",
          "type": "string"
        },
        {
          "internalType": "string",
          "name": "_sellerId",
          "type": "string"
        },
        {
          "internalType": "string",
          "name": "_postId",
          "type": "string"
        },
        {
          "internalType": "uint256",
          "name": "_bidAmount",
          "type": "uint256"
        }
      ],
      "name": "createOffer",
      "outputs": [],
      "stateMutability": "nonpayable",
      "type": "function"
    },
    {
      "inputs": [
        {
          "internalType": "uint256",
          "name": "_contractId",
          "type": "uint256"
        }
      ],
      "name": "fundContract",
      "outputs": [],
      "stateMutability": "nonpayable",
      "type": "function"
    },
    {
      "inputs": [
        {
          "internalType": "uint256",
          "name": "tokenId",
          "type": "uint256"
        }
      ],
      "name": "getApproved",
      "outputs": [
        {
          "internalType": "address",
          "name": "",
          "type": "address"
        }
      ],
      "stateMutability": "view",
      "type": "function"
    },
    {
      "inputs": [
        {
          "internalType": "string",
          "name": "_userId",
          "type": "string"
        }
      ],
      "name": "getUser",
      "outputs": [
        {
          "internalType": "address payable",
          "name": "",
          "type": "address"
        }
      ],
      "stateMutability": "nonpayable",
      "type": "function"
    },
    {
      "inputs": [
        {
          "internalType": "address",
          "name": "owner",
          "type": "address"
        },
        {
          "internalType": "address",
          "name": "operator",
          "type": "address"
        }
      ],
      "name": "isApprovedForAll",
      "outputs": [
        {
          "internalType": "bool",
          "name": "",
          "type": "bool"
        }
      ],
      "stateMutability": "view",
      "type": "function"
    },
    {
      "inputs": [
        {
          "internalType": "string",
          "name": "_userId",
          "type": "string"
        },
        {
          "internalType": "address payable",
          "name": "_userAddress",
          "type": "address"
        }
      ],
      "name": "mapUser",
      "outputs": [],
      "stateMutability": "nonpayable",
      "type": "function"
    },
    {
      "inputs": [
        {
          "internalType": "address",
          "name": "recipient",
          "type": "address"
        },
        {
          "internalType": "string",
          "name": "tokenURI",
          "type": "string"
        }
      ],
      "name": "mintNFT",
      "outputs": [
        {
          "internalType": "uint256",
          "name": "",
          "type": "uint256"
        }
      ],
      "stateMutability": "nonpayable",
      "type": "function"
    },
    {
      "inputs": [],
      "name": "name",
      "outputs": [
        {
          "internalType": "string",
          "name": "",
          "type": "string"
        }
      ],
      "stateMutability": "view",
      "type": "function"
    },
    {
      "inputs": [],
      "name": "owner",
      "outputs": [
        {
          "internalType": "address",
          "name": "",
          "type": "address"
        }
      ],
      "stateMutability": "view",
      "type": "function"
    },
    {
      "inputs": [
        {
          "internalType": "uint256",
          "name": "tokenId",
          "type": "uint256"
        }
      ],
      "name": "ownerOf",
      "outputs": [
        {
          "internalType": "address",
          "name": "",
          "type": "address"
        }
      ],
      "stateMutability": "view",
      "type": "function"
    },
    {
      "inputs": [
        {
          "internalType": "uint256",
          "name": "_contractId",
          "type": "uint256"
        }
      ],
      "name": "reject",
      "outputs": [],
      "stateMutability": "nonpayable",
      "type": "function"
    },
    {
      "inputs": [],
      "name": "renounceOwnership",
      "outputs": [],
      "stateMutability": "nonpayable",
      "type": "function"
    },
    {
      "inputs": [
        {
          "internalType": "address",
          "name": "from",
          "type": "address"
        },
        {
          "internalType": "address",
          "name": "to",
          "type": "address"
        },
        {
          "internalType": "uint256",
          "name": "tokenId",
          "type": "uint256"
        }
      ],
      "name": "safeTransferFrom",
      "outputs": [],
      "stateMutability": "nonpayable",
      "type": "function"
    },
    {
      "inputs": [
        {
          "internalType": "address",
          "name": "from",
          "type": "address"
        },
        {
          "internalType": "address",
          "name": "to",
          "type": "address"
        },
        {
          "internalType": "uint256",
          "name": "tokenId",
          "type": "uint256"
        },
        {
          "internalType": "bytes",
          "name": "_data",
          "type": "bytes"
        }
      ],
      "name": "safeTransferFrom",
      "outputs": [],
      "stateMutability": "nonpayable",
      "type": "function"
    },
    {
      "inputs": [
        {
          "internalType": "address",
          "name": "operator",
          "type": "address"
        },
        {
          "internalType": "bool",
          "name": "approved",
          "type": "bool"
        }
      ],
      "name": "setApprovalForAll",
      "outputs": [],
      "stateMutability": "nonpayable",
      "type": "function"
    },
    {
      "inputs": [
        {
          "internalType": "uint256",
          "name": "_contractId",
          "type": "uint256"
        }
      ],
      "name": "success",
      "outputs": [],
      "stateMutability": "nonpayable",
      "type": "function"
    },
    {
      "inputs": [
        {
          "internalType": "bytes4",
          "name": "interfaceId",
          "type": "bytes4"
        }
      ],
      "name": "supportsInterface",
      "outputs": [
        {
          "internalType": "bool",
          "name": "",
          "type": "bool"
        }
      ],
      "stateMutability": "view",
      "type": "function"
    },
    {
      "inputs": [],
      "name": "symbol",
      "outputs": [
        {
          "internalType": "string",
          "name": "",
          "type": "string"
        }
      ],
      "stateMutability": "view",
      "type": "function"
    },
    {
      "inputs": [
        {
          "internalType": "uint256",
          "name": "index",
          "type": "uint256"
        }
      ],
      "name": "tokenByIndex",
      "outputs": [
        {
          "internalType": "uint256",
          "name": "",
          "type": "uint256"
        }
      ],
      "stateMutability": "view",
      "type": "function"
    },
    {
      "inputs": [
        {
          "internalType": "address",
          "name": "owner",
          "type": "address"
        },
        {
          "internalType": "uint256",
          "name": "index",
          "type": "uint256"
        }
      ],
      "name": "tokenOfOwnerByIndex",
      "outputs": [
        {
          "internalType": "uint256",
          "name": "",
          "type": "uint256"
        }
      ],
      "stateMutability": "view",
      "type": "function"
    },
    {
      "inputs": [
        {
          "internalType": "uint256",
          "name": "tokenId",
          "type": "uint256"
        }
      ],
      "name": "tokenURI",
      "outputs": [
        {
          "internalType": "string",
          "name": "",
          "type": "string"
        }
      ],
      "stateMutability": "view",
      "type": "function"
    },
    {
      "inputs": [],
      "name": "totalSupply",
      "outputs": [
        {
          "internalType": "uint256",
          "name": "",
          "type": "uint256"
        }
      ],
      "stateMutability": "view",
      "type": "function"
    },
    {
      "inputs": [
        {
          "internalType": "address",
          "name": "from",
          "type": "address"
        },
        {
          "internalType": "address",
          "name": "to",
          "type": "address"
        },
        {
          "internalType": "uint256",
          "name": "tokenId",
          "type": "uint256"
        }
      ],
      "name": "transferFrom",
      "outputs": [],
      "stateMutability": "nonpayable",
      "type": "function"
    },
    {
      "inputs": [
        {
          "internalType": "address",
          "name": "newOwner",
          "type": "address"
        }
      ],
      "name": "transferOwnership",
      "outputs": [],
      "stateMutability": "nonpayable",
      "type": "function"
    }
  ],
  "bytecode": "0x60806040523480156200001157600080fd5b506040518060400160405280600f81526020017f54726561737572654f72626974616c00000000000000000000000000000000008152506040518060400160405280600381526020017f544f520000000000000000000000000000000000000000000000000000000000815250620000966301ffc9a760e01b620001c960201b60201c565b8160069080519060200190620000ae929190620002da565b508060079080519060200190620000c7929190620002da565b50620000e06380ac58cd60e01b620001c960201b60201c565b620000f8635b5e139f60e01b620001c960201b60201c565b6200011063780e9d6360e01b620001c960201b60201c565b5050600062000124620002d260201b60201c565b905080600a60006101000a81548173ffffffffffffffffffffffffffffffffffffffff021916908373ffffffffffffffffffffffffffffffffffffffff1602179055508073ffffffffffffffffffffffffffffffffffffffff16600073ffffffffffffffffffffffffffffffffffffffff167f8be0079c531659141344cd1fd0a4f28419497f9722a3daafe3b4186f6b6457e060405160405180910390a35062000380565b63ffffffff60e01b817bffffffffffffffffffffffffffffffffffffffffffffffffffffffff1916141562000266576040517f08c379a000000000000000000000000000000000000000000000000000000000815260040180806020018281038252601c8152602001807f4552433136353a20696e76616c696420696e746572666163652069640000000081525060200191505060405180910390fd5b6001600080837bffffffffffffffffffffffffffffffffffffffffffffffffffffffff19167bffffffffffffffffffffffffffffffffffffffffffffffffffffffff1916815260200190815260200160002060006101000a81548160ff02191690831515021790555050565b600033905090565b828054600181600116156101000203166002900490600052602060002090601f016020900481019282601f106200031d57805160ff19168380011785556200034e565b828001600101855582156200034e579182015b828111156200034d57825182559160200191906001019062000330565b5b5090506200035d919062000361565b5090565b5b808211156200037c57600081600090555060010162000362565b5090565b61451080620003906000396000f3fe608060405234801561001057600080fd5b50600436106101a95760003560e01c80636c0360eb116100f9578063a22cb46511610097578063c87b56dd11610071578063c87b56dd14610c5e578063e985e9c514610d05578063eacabe1414610d7f578063f2fde38b14610e6e576101a9565b8063a22cb46514610adb578063b88d4fde14610b2b578063b8adaa1114610c30576101a9565b80637db582a9116100d35780637db582a91461091b578063888ea243146109f65780638da5cb5b14610a2457806395d89b4114610a58576101a9565b80636c0360eb1461083657806370a08231146108b9578063715018a614610911576101a9565b80632f745c591161016657806338061d821161014057806338061d821461053b57806342842e0e1461072e5780634f6ccce71461079c5780636352211e146107de576101a9565b80632f745c59146103c657806331feb671146104285780633519a2f81461050d576101a9565b806301ffc9a7146101ae57806306fdde0314610211578063081812fc14610294578063095ea7b3146102ec57806318160ddd1461033a57806323b872dd14610358575b600080fd5b6101f9600480360360208110156101c457600080fd5b8101908080357bffffffffffffffffffffffffffffffffffffffffffffffffffffffff19169060200190929190505050610eb2565b60405180821515815260200191505060405180910390f35b610219610f19565b6040518080602001828103825283818151815260200191508051906020019080838360005b8381101561025957808201518184015260208101905061023e565b50505050905090810190601f1680156102865780820380516001836020036101000a031916815260200191505b509250505060405180910390f35b6102c0600480360360208110156102aa57600080fd5b8101908080359060200190929190505050610fbb565b604051808273ffffffffffffffffffffffffffffffffffffffff16815260200191505060405180910390f35b6103386004803603604081101561030257600080fd5b81019080803573ffffffffffffffffffffffffffffffffffffffff16906020019092919080359060200190929190505050611056565b005b61034261119a565b6040518082815260200191505060405180910390f35b6103c46004803603606081101561036e57600080fd5b81019080803573ffffffffffffffffffffffffffffffffffffffff169060200190929190803573ffffffffffffffffffffffffffffffffffffffff169060200190929190803590602001909291905050506111ab565b005b610412600480360360408110156103dc57600080fd5b81019080803573ffffffffffffffffffffffffffffffffffffffff16906020019092919080359060200190929190505050611221565b6040518082815260200191505060405180910390f35b6104e16004803603602081101561043e57600080fd5b810190808035906020019064010000000081111561045b57600080fd5b82018360208201111561046d57600080fd5b8035906020019184600183028401116401000000008311171561048f57600080fd5b91908080601f016020809104026020016040519081016040528093929190818152602001838380828437600081840152601f19601f82011690508083019250505050505050919291929050505061127c565b604051808273ffffffffffffffffffffffffffffffffffffffff16815260200191505060405180910390f35b6105396004803603602081101561052357600080fd5b81019080803590602001909291905050506114e9565b005b61072c6004803603608081101561055157600080fd5b810190808035906020019064010000000081111561056e57600080fd5b82018360208201111561058057600080fd5b803590602001918460018302840111640100000000831117156105a257600080fd5b91908080601f016020809104026020016040519081016040528093929190818152602001838380828437600081840152601f19601f8201169050808301925050505050505091929192908035906020019064010000000081111561060557600080fd5b82018360208201111561061757600080fd5b8035906020019184600183028401116401000000008311171561063957600080fd5b91908080601f016020809104026020016040519081016040528093929190818152602001838380828437600081840152601f19601f8201169050808301925050505050505091929192908035906020019064010000000081111561069c57600080fd5b8201836020820111156106ae57600080fd5b803590602001918460018302840111640100000000831117156106d057600080fd5b91908080601f016020809104026020016040519081016040528093929190818152602001838380828437600081840152601f19601f820116905080830192505050505050509192919290803590602001909291905050506115d8565b005b61079a6004803603606081101561074457600080fd5b81019080803573ffffffffffffffffffffffffffffffffffffffff169060200190929190803573ffffffffffffffffffffffffffffffffffffffff16906020019092919080359060200190929190505050611980565b005b6107c8600480360360208110156107b257600080fd5b81019080803590602001909291905050506119a0565b6040518082815260200191505060405180910390f35b61080a600480360360208110156107f457600080fd5b81019080803590602001909291905050506119c3565b604051808273ffffffffffffffffffffffffffffffffffffffff16815260200191505060405180910390f35b61083e6119fa565b6040518080602001828103825283818151815260200191508051906020019080838360005b8381101561087e578082015181840152602081019050610863565b50505050905090810190601f1680156108ab5780820380516001836020036101000a031916815260200191505b509250505060405180910390f35b6108fb600480360360208110156108cf57600080fd5b81019080803573ffffffffffffffffffffffffffffffffffffffff169060200190929190505050611a9c565b6040518082815260200191505060405180910390f35b610919611b71565b005b6109f46004803603604081101561093157600080fd5b810190808035906020019064010000000081111561094e57600080fd5b82018360208201111561096057600080fd5b8035906020019184600183028401116401000000008311171561098257600080fd5b91908080601f016020809104026020016040519081016040528093929190818152602001838380828437600081840152601f19601f820116905080830192505050505050509192919290803573ffffffffffffffffffffffffffffffffffffffff169060200190929190505050611ce1565b005b610a2260048036036020811015610a0c57600080fd5b8101908080359060200190929190505050612004565b005b610a2c612233565b604051808273ffffffffffffffffffffffffffffffffffffffff16815260200191505060405180910390f35b610a6061225d565b6040518080602001828103825283818151815260200191508051906020019080838360005b83811015610aa0578082015181840152602081019050610a85565b50505050905090810190601f168015610acd5780820380516001836020036101000a031916815260200191505b509250505060405180910390f35b610b2960048036036040811015610af157600080fd5b81019080803573ffffffffffffffffffffffffffffffffffffffff1690602001909291908035151590602001909291905050506122ff565b005b610c2e60048036036080811015610b4157600080fd5b81019080803573ffffffffffffffffffffffffffffffffffffffff169060200190929190803573ffffffffffffffffffffffffffffffffffffffff1690602001909291908035906020019092919080359060200190640100000000811115610ba857600080fd5b820183602082011115610bba57600080fd5b80359060200191846001830284011164010000000083111715610bdc57600080fd5b91908080601f016020809104026020016040519081016040528093929190818152602001838380828437600081840152601f19601f8201169050808301925050505050505091929192905050506124b5565b005b610c5c60048036036020811015610c4657600080fd5b810190808035906020019092919050505061252d565b005b610c8a60048036036020811015610c7457600080fd5b8101908080359060200190929190505050612711565b6040518080602001828103825283818151815260200191508051906020019080838360005b83811015610cca578082015181840152602081019050610caf565b50505050905090810190601f168015610cf75780820380516001836020036101000a031916815260200191505b509250505060405180910390f35b610d6760048036036040811015610d1b57600080fd5b81019080803573ffffffffffffffffffffffffffffffffffffffff169060200190929190803573ffffffffffffffffffffffffffffffffffffffff1690602001909291905050506129e2565b60405180821515815260200191505060405180910390f35b610e5860048036036040811015610d9557600080fd5b81019080803573ffffffffffffffffffffffffffffffffffffffff16906020019092919080359060200190640100000000811115610dd257600080fd5b820183602082011115610de457600080fd5b80359060200191846001830284011164010000000083111715610e0657600080fd5b91908080601f016020809104026020016040519081016040528093929190818152602001838380828437600081840152601f19601f820116905080830192505050505050509192919290505050612a76565b6040518082815260200191505060405180910390f35b610eb060048036036020811015610e8457600080fd5b81019080803573ffffffffffffffffffffffffffffffffffffffff169060200190929190505050612b5d565b005b6000806000837bffffffffffffffffffffffffffffffffffffffffffffffffffffffff19167bffffffffffffffffffffffffffffffffffffffffffffffffffffffff1916815260200190815260200160002060009054906101000a900460ff169050919050565b606060068054600181600116156101000203166002900480601f016020809104026020016040519081016040528092919081815260200182805460018160011615610100020316600290048015610fb15780601f10610f8657610100808354040283529160200191610fb1565b820191906000526020600020905b815481529060010190602001808311610f9457829003601f168201915b5050505050905090565b6000610fc682612d52565b61101b576040517f08c379a000000000000000000000000000000000000000000000000000000000815260040180806020018281038252602c81526020018061438e602c913960400191505060405180910390fd5b6004600083815260200190815260200160002060009054906101000a900473ffffffffffffffffffffffffffffffffffffffff169050919050565b6000611061826119c3565b90508073ffffffffffffffffffffffffffffffffffffffff168373ffffffffffffffffffffffffffffffffffffffff1614156110e8576040517f08c379a000000000000000000000000000000000000000000000000000000000815260040180806020018281038252602181526020018061443e6021913960400191505060405180910390fd5b8073ffffffffffffffffffffffffffffffffffffffff16611107612d6f565b73ffffffffffffffffffffffffffffffffffffffff161480611136575061113581611130612d6f565b6129e2565b5b61118b576040517f08c379a00000000000000000000000000000000000000000000000000000000081526004018080602001828103825260388152602001806142bd6038913960400191505060405180910390fd5b6111958383612d77565b505050565b60006111a66002612e30565b905090565b6111bc6111b6612d6f565b82612e45565b611211576040517f08c379a00000000000000000000000000000000000000000000000000000000081526004018080602001828103825260318152602001806144826031913960400191505060405180910390fd5b61121c838383612f39565b505050565b600061127482600160008673ffffffffffffffffffffffffffffffffffffffff1673ffffffffffffffffffffffffffffffffffffffff16815260200190815260200160002061317c90919063ffffffff16565b905092915050565b6000611286612d6f565b73ffffffffffffffffffffffffffffffffffffffff166112a4612233565b73ffffffffffffffffffffffffffffffffffffffff161461132d576040517f08c379a00000000000000000000000000000000000000000000000000000000081526004018080602001828103825260208152602001807f4f776e61626c653a2063616c6c6572206973206e6f7420746865206f776e657281525060200191505060405180910390fd5b600073ffffffffffffffffffffffffffffffffffffffff16600c836040518082805190602001908083835b6020831061137b5780518252602082019150602081019050602083039250611358565b6001836020036101000a038019825116818451168082178552505050505050905001915050908152602001604051809103902060009054906101000a900473ffffffffffffffffffffffffffffffffffffffff1673ffffffffffffffffffffffffffffffffffffffff1614611458576040517f08c379a00000000000000000000000000000000000000000000000000000000081526004018080602001828103825260198152602001807f54686973207573657220646f6573206e6f74206578697374730000000000000081525060200191505060405180910390fd5b600c826040518082805190602001908083835b6020831061148e578051825260208201915060208101905060208303925061146b565b6001836020036101000a038019825116818451168082178552505050505050905001915050908152602001604051809103902060009054906101000a900473ffffffffffffffffffffffffffffffffffffffff169050919050565b6114f1612d6f565b73ffffffffffffffffffffffffffffffffffffffff1661150f612233565b73ffffffffffffffffffffffffffffffffffffffff1614611598576040517f08c379a00000000000000000000000000000000000000000000000000000000081526004018080602001828103825260208152602001807f4f776e61626c653a2063616c6c6572206973206e6f7420746865206f776e657281525060200191505060405180910390fd5b6000600d82815481106115a757fe5b9060005260206000209060050201905060018160040160006101000a81548160ff0219169083151502179055505050565b600c846040518082805190602001908083835b6020831061160e57805182526020820191506020810190506020830392506115eb565b6001836020036101000a038019825116818451168082178552505050505050905001915050908152602001604051809103902060009054906101000a900473ffffffffffffffffffffffffffffffffffffffff1673ffffffffffffffffffffffffffffffffffffffff163373ffffffffffffffffffffffffffffffffffffffff16146116e5576040517f08c379a00000000000000000000000000000000000000000000000000000000081526004018080602001828103825260288152602001806144b36028913960400191505060405180910390fd5b600d6040518060c00160405280868152602001858152602001848152602001838152602001600015158152602001600015158152509080600181540180825580915050600190039060005260206000209060050201600090919091909150600082015181600001908051906020019061175f92919061412f565b50602082015181600101908051906020019061177c92919061412f565b50604082015181600201908051906020019061179992919061412f565b506060820151816003015560808201518160040160006101000a81548160ff02191690831515021790555060a08201518160040160016101000a81548160ff021916908315150217905550505060006001600d805490500390507fe4ee73f89832e5ff7620d747c1a0f4e9d23831e61f79be2dbbd54b5a91e3ab71818686868660405180868152602001806020018060200180602001858152602001848103845288818151815260200191508051906020019080838360005b8381101561186d578082015181840152602081019050611852565b50505050905090810190601f16801561189a5780820380516001836020036101000a031916815260200191505b50848103835287818151815260200191508051906020019080838360005b838110156118d35780820151818401526020810190506118b8565b50505050905090810190601f1680156119005780820380516001836020036101000a031916815260200191505b50848103825286818151815260200191508051906020019080838360005b8381101561193957808201518184015260208101905061191e565b50505050905090810190601f1680156119665780820380516001836020036101000a031916815260200191505b509850505050505050505060405180910390a15050505050565b61199b838383604051806020016040528060008152506124b5565b505050565b6000806119b783600261319690919063ffffffff16565b50905080915050919050565b60006119f38260405180606001604052806029815260200161431f6029913960026131c29092919063ffffffff16565b9050919050565b606060098054600181600116156101000203166002900480601f016020809104026020016040519081016040528092919081815260200182805460018160011615610100020316600290048015611a925780601f10611a6757610100808354040283529160200191611a92565b820191906000526020600020905b815481529060010190602001808311611a7557829003601f168201915b5050505050905090565b60008073ffffffffffffffffffffffffffffffffffffffff168273ffffffffffffffffffffffffffffffffffffffff161415611b23576040517f08c379a000000000000000000000000000000000000000000000000000000000815260040180806020018281038252602a8152602001806142f5602a913960400191505060405180910390fd5b611b6a600160008473ffffffffffffffffffffffffffffffffffffffff1673ffffffffffffffffffffffffffffffffffffffff1681526020019081526020016000206131e1565b9050919050565b611b79612d6f565b73ffffffffffffffffffffffffffffffffffffffff16611b97612233565b73ffffffffffffffffffffffffffffffffffffffff1614611c20576040517f08c379a00000000000000000000000000000000000000000000000000000000081526004018080602001828103825260208152602001807f4f776e61626c653a2063616c6c6572206973206e6f7420746865206f776e657281525060200191505060405180910390fd5b600073ffffffffffffffffffffffffffffffffffffffff16600a60009054906101000a900473ffffffffffffffffffffffffffffffffffffffff1673ffffffffffffffffffffffffffffffffffffffff167f8be0079c531659141344cd1fd0a4f28419497f9722a3daafe3b4186f6b6457e060405160405180910390a36000600a60006101000a81548173ffffffffffffffffffffffffffffffffffffffff021916908373ffffffffffffffffffffffffffffffffffffffff160217905550565b611ce9612d6f565b73ffffffffffffffffffffffffffffffffffffffff16611d07612233565b73ffffffffffffffffffffffffffffffffffffffff1614611d90576040517f08c379a00000000000000000000000000000000000000000000000000000000081526004018080602001828103825260208152602001807f4f776e61626c653a2063616c6c6572206973206e6f7420746865206f776e657281525060200191505060405180910390fd5b600073ffffffffffffffffffffffffffffffffffffffff16600c836040518082805190602001908083835b60208310611dde5780518252602082019150602081019050602083039250611dbb565b6001836020036101000a038019825116818451168082178552505050505050905001915050908152602001604051809103902060009054906101000a900473ffffffffffffffffffffffffffffffffffffffff1673ffffffffffffffffffffffffffffffffffffffff1614611e9e576040517f08c379a000000000000000000000000000000000000000000000000000000000815260040180806020018281038252602381526020018061445f6023913960400191505060405180910390fd5b80600c836040518082805190602001908083835b60208310611ed55780518252602082019150602081019050602083039250611eb2565b6001836020036101000a038019825116818451168082178552505050505050905001915050908152602001604051809103902060006101000a81548173ffffffffffffffffffffffffffffffffffffffff021916908373ffffffffffffffffffffffffffffffffffffffff1602179055507fbd24583d1f34ebaec5bacc0cb3d29df1ac91e8fc13018ebc80e3f29e3d49ce16828260405180806020018373ffffffffffffffffffffffffffffffffffffffff168152602001828103825284818151815260200191508051906020019080838360005b83811015611fc5578082015181840152602081019050611faa565b50505050905090810190601f168015611ff25780820380516001836020036101000a031916815260200191505b50935050505060405180910390a15050565b6000600d828154811061201357fe5b906000526020600020906005020190506000600c8260010160405180828054600181600116156101000203166002900480156120865780601f10612064576101008083540402835291820191612086565b820191906000526020600020905b815481529060010190602001808311612072575b5050915050908152602001604051809103902060009054906101000a900473ffffffffffffffffffffffffffffffffffffffff1690508073ffffffffffffffffffffffffffffffffffffffff163373ffffffffffffffffffffffffffffffffffffffff1614612140576040517f08c379a00000000000000000000000000000000000000000000000000000000081526004018080602001828103825260248152602001806143486024913960400191505060405180910390fd5b612149836131f6565b600060608273ffffffffffffffffffffffffffffffffffffffff16846003015460405180600001905060006040518083038185875af1925050503d80600081146121af576040519150601f19603f3d011682016040523d82523d6000602084013e6121b4565b606091505b50915091508161222c576040517f08c379a00000000000000000000000000000000000000000000000000000000081526004018080602001828103825260148152602001807f4661696c656420746f2073656e6420657468657200000000000000000000000081525060200191505060405180910390fd5b5050505050565b6000600a60009054906101000a900473ffffffffffffffffffffffffffffffffffffffff16905090565b606060078054600181600116156101000203166002900480601f0160208091040260200160405190810160405280929190818152602001828054600181600116156101000203166002900480156122f55780601f106122ca576101008083540402835291602001916122f5565b820191906000526020600020905b8154815290600101906020018083116122d857829003601f168201915b5050505050905090565b612307612d6f565b73ffffffffffffffffffffffffffffffffffffffff168273ffffffffffffffffffffffffffffffffffffffff1614156123a8576040517f08c379a00000000000000000000000000000000000000000000000000000000081526004018080602001828103825260198152602001807f4552433732313a20617070726f766520746f2063616c6c65720000000000000081525060200191505060405180910390fd5b80600560006123b5612d6f565b73ffffffffffffffffffffffffffffffffffffffff1673ffffffffffffffffffffffffffffffffffffffff16815260200190815260200160002060008473ffffffffffffffffffffffffffffffffffffffff1673ffffffffffffffffffffffffffffffffffffffff16815260200190815260200160002060006101000a81548160ff0219169083151502179055508173ffffffffffffffffffffffffffffffffffffffff16612462612d6f565b73ffffffffffffffffffffffffffffffffffffffff167f17307eab39ab6107e8899845ad3d59bd9653f200f220920489ca2b5937696c318360405180821515815260200191505060405180910390a35050565b6124c66124c0612d6f565b83612e45565b61251b576040517f08c379a00000000000000000000000000000000000000000000000000000000081526004018080602001828103825260318152602001806144826031913960400191505060405180910390fd5b612527848484846132e5565b50505050565b6000600d828154811061253c57fe5b906000526020600020906005020190506000600c8260010160405180828054600181600116156101000203166002900480156125af5780601f1061258d5761010080835404028352918201916125af565b820191906000526020600020905b81548152906001019060200180831161259b575b5050915050908152602001604051809103902060009054906101000a900473ffffffffffffffffffffffffffffffffffffffff1690506000600c8360000160405180828054600181600116156101000203166002900480156126485780601f10612626576101008083540402835291820191612648565b820191906000526020600020905b815481529060010190602001808311612634575b5050915050908152602001604051809103902060009054906101000a900473ffffffffffffffffffffffffffffffffffffffff1690508173ffffffffffffffffffffffffffffffffffffffff163373ffffffffffffffffffffffffffffffffffffffff1614612702576040517f08c379a00000000000000000000000000000000000000000000000000000000081526004018080602001828103825260248152602001806143486024913960400191505060405180910390fd5b61270b846131f6565b50505050565b606061271c82612d52565b612771576040517f08c379a000000000000000000000000000000000000000000000000000000000815260040180806020018281038252602f81526020018061440f602f913960400191505060405180910390fd5b6060600860008481526020019081526020016000208054600181600116156101000203166002900480601f01602080910402602001604051908101604052809291908181526020018280546001816001161561010002031660029004801561281a5780601f106127ef5761010080835404028352916020019161281a565b820191906000526020600020905b8154815290600101906020018083116127fd57829003601f168201915b50505050509050606061282b6119fa565b90506000815114156128415781925050506129dd565b6000825111156129125780826040516020018083805190602001908083835b602083106128835780518252602082019150602081019050602083039250612860565b6001836020036101000a03801982511681845116808217855250505050505090500182805190602001908083835b602083106128d457805182526020820191506020810190506020830392506128b1565b6001836020036101000a03801982511681845116808217855250505050505090500192505050604051602081830303815290604052925050506129dd565b8061291c85613357565b6040516020018083805190602001908083835b60208310612952578051825260208201915060208101905060208303925061292f565b6001836020036101000a03801982511681845116808217855250505050505090500182805190602001908083835b602083106129a35780518252602082019150602081019050602083039250612980565b6001836020036101000a03801982511681845116808217855250505050505090500192505050604051602081830303815290604052925050505b919050565b6000600560008473ffffffffffffffffffffffffffffffffffffffff1673ffffffffffffffffffffffffffffffffffffffff16815260200190815260200160002060008373ffffffffffffffffffffffffffffffffffffffff1673ffffffffffffffffffffffffffffffffffffffff16815260200190815260200160002060009054906101000a900460ff16905092915050565b6000612a80612d6f565b73ffffffffffffffffffffffffffffffffffffffff16612a9e612233565b73ffffffffffffffffffffffffffffffffffffffff1614612b27576040517f08c379a00000000000000000000000000000000000000000000000000000000081526004018080602001828103825260208152602001807f4f776e61626c653a2063616c6c6572206973206e6f7420746865206f776e657281525060200191505060405180910390fd5b612b31600b61349e565b6000612b3d600b6134b4565b9050612b4984826134c2565b612b5381846136b6565b8091505092915050565b612b65612d6f565b73ffffffffffffffffffffffffffffffffffffffff16612b83612233565b73ffffffffffffffffffffffffffffffffffffffff1614612c0c576040517f08c379a00000000000000000000000000000000000000000000000000000000081526004018080602001828103825260208152602001807f4f776e61626c653a2063616c6c6572206973206e6f7420746865206f776e657281525060200191505060405180910390fd5b600073ffffffffffffffffffffffffffffffffffffffff168173ffffffffffffffffffffffffffffffffffffffff161415612c92576040517f08c379a00000000000000000000000000000000000000000000000000000000081526004018080602001828103825260268152602001806142216026913960400191505060405180910390fd5b8073ffffffffffffffffffffffffffffffffffffffff16600a60009054906101000a900473ffffffffffffffffffffffffffffffffffffffff1673ffffffffffffffffffffffffffffffffffffffff167f8be0079c531659141344cd1fd0a4f28419497f9722a3daafe3b4186f6b6457e060405160405180910390a380600a60006101000a81548173ffffffffffffffffffffffffffffffffffffffff021916908373ffffffffffffffffffffffffffffffffffffffff16021790555050565b6000612d6882600261374090919063ffffffff16565b9050919050565b600033905090565b816004600083815260200190815260200160002060006101000a81548173ffffffffffffffffffffffffffffffffffffffff021916908373ffffffffffffffffffffffffffffffffffffffff160217905550808273ffffffffffffffffffffffffffffffffffffffff16612dea836119c3565b73ffffffffffffffffffffffffffffffffffffffff167f8c5be1e5ebec7d5bd14f71427d1e84f3dd0314c0f7b2291e5b200ac8c7c3b92560405160405180910390a45050565b6000612e3e8260000161375a565b9050919050565b6000612e5082612d52565b612ea5576040517f08c379a000000000000000000000000000000000000000000000000000000000815260040180806020018281038252602c815260200180614291602c913960400191505060405180910390fd5b6000612eb0836119c3565b90508073ffffffffffffffffffffffffffffffffffffffff168473ffffffffffffffffffffffffffffffffffffffff161480612f1f57508373ffffffffffffffffffffffffffffffffffffffff16612f0784610fbb565b73ffffffffffffffffffffffffffffffffffffffff16145b80612f305750612f2f81856129e2565b5b91505092915050565b8273ffffffffffffffffffffffffffffffffffffffff16612f59826119c3565b73ffffffffffffffffffffffffffffffffffffffff1614612fc5576040517f08c379a00000000000000000000000000000000000000000000000000000000081526004018080602001828103825260298152602001806143e66029913960400191505060405180910390fd5b600073ffffffffffffffffffffffffffffffffffffffff168273ffffffffffffffffffffffffffffffffffffffff16141561304b576040517f08c379a00000000000000000000000000000000000000000000000000000000081526004018080602001828103825260248152602001806142476024913960400191505060405180910390fd5b61305683838361376b565b613061600082612d77565b6130b281600160008673ffffffffffffffffffffffffffffffffffffffff1673ffffffffffffffffffffffffffffffffffffffff16815260200190815260200160002061377090919063ffffffff16565b5061310481600160008573ffffffffffffffffffffffffffffffffffffffff1673ffffffffffffffffffffffffffffffffffffffff16815260200190815260200160002061378a90919063ffffffff16565b5061311b818360026137a49092919063ffffffff16565b50808273ffffffffffffffffffffffffffffffffffffffff168473ffffffffffffffffffffffffffffffffffffffff167fddf252ad1be2c89b69c2b068fc378daa952ba7f163c4a11628f55a4df523b3ef60405160405180910390a4505050565b600061318b83600001836137d9565b60001c905092915050565b6000806000806131a9866000018661385c565b915091508160001c8160001c9350935050509250929050565b60006131d5846000018460001b846138f5565b60001c90509392505050565b60006131ef826000016139eb565b9050919050565b6131fe612d6f565b73ffffffffffffffffffffffffffffffffffffffff1661321c612233565b73ffffffffffffffffffffffffffffffffffffffff16146132a5576040517f08c379a00000000000000000000000000000000000000000000000000000000081526004018080602001828103825260208152602001807f4f776e61626c653a2063616c6c6572206973206e6f7420746865206f776e657281525060200191505060405180910390fd5b6000600d82815481106132b457fe5b9060005260206000209060050201905060018160040160016101000a81548160ff0219169083151502179055505050565b6132f0848484612f39565b6132fc848484846139fc565b613351576040517f08c379a00000000000000000000000000000000000000000000000000000000081526004018080602001828103825260328152602001806141ef6032913960400191505060405180910390fd5b50505050565b6060600082141561339f576040518060400160405280600181526020017f30000000000000000000000000000000000000000000000000000000000000008152509050613499565b600082905060005b600082146133c9578080600101915050600a82816133c157fe5b0491506133a7565b60608167ffffffffffffffff811180156133e257600080fd5b506040519080825280601f01601f1916602001820160405280156134155781602001600182028036833780820191505090505b50905060006001830390508593505b6000841461349157600a848161343657fe5b0660300160f81b8282806001900393508151811061345057fe5b60200101907effffffffffffffffffffffffffffffffffffffffffffffffffffffffffffff1916908160001a905350600a848161348957fe5b049350613424565b819450505050505b919050565b6001816000016000828254019250508190555050565b600081600001549050919050565b600073ffffffffffffffffffffffffffffffffffffffff168273ffffffffffffffffffffffffffffffffffffffff161415613565576040517f08c379a00000000000000000000000000000000000000000000000000000000081526004018080602001828103825260208152602001807f4552433732313a206d696e7420746f20746865207a65726f206164647265737381525060200191505060405180910390fd5b61356e81612d52565b156135e1576040517f08c379a000000000000000000000000000000000000000000000000000000000815260040180806020018281038252601c8152602001807f4552433732313a20746f6b656e20616c7265616479206d696e7465640000000081525060200191505060405180910390fd5b6135ed6000838361376b565b61363e81600160008573ffffffffffffffffffffffffffffffffffffffff1673ffffffffffffffffffffffffffffffffffffffff16815260200190815260200160002061378a90919063ffffffff16565b50613655818360026137a49092919063ffffffff16565b50808273ffffffffffffffffffffffffffffffffffffffff16600073ffffffffffffffffffffffffffffffffffffffff167fddf252ad1be2c89b69c2b068fc378daa952ba7f163c4a11628f55a4df523b3ef60405160405180910390a45050565b6136bf82612d52565b613714576040517f08c379a000000000000000000000000000000000000000000000000000000000815260040180806020018281038252602c8152602001806143ba602c913960400191505060405180910390fd5b8060086000848152602001908152602001600020908051906020019061373b92919061412f565b505050565b6000613752836000018360001b613c15565b905092915050565b600081600001805490509050919050565b505050565b6000613782836000018360001b613c38565b905092915050565b600061379c836000018360001b613d20565b905092915050565b60006137d0846000018460001b8473ffffffffffffffffffffffffffffffffffffffff1660001b613d90565b90509392505050565b60008183600001805490501161383a576040517f08c379a00000000000000000000000000000000000000000000000000000000081526004018080602001828103825260228152602001806141cd6022913960400191505060405180910390fd5b82600001828154811061384957fe5b9060005260206000200154905092915050565b600080828460000180549050116138be576040517f08c379a000000000000000000000000000000000000000000000000000000000815260040180806020018281038252602281526020018061436c6022913960400191505060405180910390fd5b60008460000184815481106138cf57fe5b906000526020600020906002020190508060000154816001015492509250509250929050565b600080846001016000858152602001908152602001600020549050600081141583906139bc576040517f08c379a00000000000000000000000000000000000000000000000000000000081526004018080602001828103825283818151815260200191508051906020019080838360005b83811015613981578082015181840152602081019050613966565b50505050905090810190601f1680156139ae5780820380516001836020036101000a031916815260200191505b509250505060405180910390fd5b508460000160018203815481106139cf57fe5b9060005260206000209060020201600101549150509392505050565b600081600001805490509050919050565b6000613a1d8473ffffffffffffffffffffffffffffffffffffffff16613e6c565b613a2a5760019050613c0d565b6060613b9463150b7a0260e01b613a3f612d6f565b888787604051602401808573ffffffffffffffffffffffffffffffffffffffff1681526020018473ffffffffffffffffffffffffffffffffffffffff16815260200183815260200180602001828103825283818151815260200191508051906020019080838360005b83811015613ac3578082015181840152602081019050613aa8565b50505050905090810190601f168015613af05780820380516001836020036101000a031916815260200191505b5095505050505050604051602081830303815290604052907bffffffffffffffffffffffffffffffffffffffffffffffffffffffff19166020820180517bffffffffffffffffffffffffffffffffffffffffffffffffffffffff83818316178352505050506040518060600160405280603281526020016141ef603291398773ffffffffffffffffffffffffffffffffffffffff16613e7f9092919063ffffffff16565b90506000818060200190516020811015613bad57600080fd5b8101908080519060200190929190505050905063150b7a0260e01b7bffffffffffffffffffffffffffffffffffffffffffffffffffffffff1916817bffffffffffffffffffffffffffffffffffffffffffffffffffffffff191614925050505b949350505050565b600080836001016000848152602001908152602001600020541415905092915050565b60008083600101600084815260200190815260200160002054905060008114613d145760006001820390506000600186600001805490500390506000866000018281548110613c8357fe5b9060005260206000200154905080876000018481548110613ca057fe5b9060005260206000200181905550600183018760010160008381526020019081526020016000208190555086600001805480613cd857fe5b60019003818190600052602060002001600090559055866001016000878152602001908152602001600020600090556001945050505050613d1a565b60009150505b92915050565b6000613d2c8383613e97565b613d85578260000182908060018154018082558091505060019003906000526020600020016000909190919091505582600001805490508360010160008481526020019081526020016000208190555060019050613d8a565b600090505b92915050565b6000808460010160008581526020019081526020016000205490506000811415613e3757846000016040518060400160405280868152602001858152509080600181540180825580915050600190039060005260206000209060020201600090919091909150600082015181600001556020820151816001015550508460000180549050856001016000868152602001908152602001600020819055506001915050613e65565b82856000016001830381548110613e4a57fe5b90600052602060002090600202016001018190555060009150505b9392505050565b600080823b905060008111915050919050565b6060613e8e8484600085613eba565b90509392505050565b600080836001016000848152602001908152602001600020541415905092915050565b606082471015613f15576040517f08c379a000000000000000000000000000000000000000000000000000000000815260040180806020018281038252602681526020018061426b6026913960400191505060405180910390fd5b613f1e85613e6c565b613f90576040517f08c379a000000000000000000000000000000000000000000000000000000000815260040180806020018281038252601d8152602001807f416464726573733a2063616c6c20746f206e6f6e2d636f6e747261637400000081525060200191505060405180910390fd5b600060608673ffffffffffffffffffffffffffffffffffffffff1685876040518082805190602001908083835b60208310613fe05780518252602082019150602081019050602083039250613fbd565b6001836020036101000a03801982511681845116808217855250505050505090500191505060006040518083038185875af1925050503d8060008114614042576040519150601f19603f3d011682016040523d82523d6000602084013e614047565b606091505b5091509150614057828286614063565b92505050949350505050565b6060831561407357829050614128565b6000835111156140865782518084602001fd5b816040517f08c379a00000000000000000000000000000000000000000000000000000000081526004018080602001828103825283818151815260200191508051906020019080838360005b838110156140ed5780820151818401526020810190506140d2565b50505050905090810190601f16801561411a5780820380516001836020036101000a031916815260200191505b509250505060405180910390fd5b9392505050565b828054600181600116156101000203166002900490600052602060002090601f016020900481019282601f1061417057805160ff191683800117855561419e565b8280016001018555821561419e579182015b8281111561419d578251825591602001919060010190614182565b5b5090506141ab91906141af565b5090565b5b808211156141c85760008160009055506001016141b0565b509056fe456e756d657261626c655365743a20696e646578206f7574206f6620626f756e64734552433732313a207472616e7366657220746f206e6f6e20455243373231526563656976657220696d706c656d656e7465724f776e61626c653a206e6577206f776e657220697320746865207a65726f20616464726573734552433732313a207472616e7366657220746f20746865207a65726f2061646472657373416464726573733a20696e73756666696369656e742062616c616e636520666f722063616c6c4552433732313a206f70657261746f7220717565727920666f72206e6f6e6578697374656e7420746f6b656e4552433732313a20617070726f76652063616c6c6572206973206e6f74206f776e6572206e6f7220617070726f76656420666f7220616c6c4552433732313a2062616c616e636520717565727920666f7220746865207a65726f20616464726573734552433732313a206f776e657220717565727920666f72206e6f6e6578697374656e7420746f6b656e4f6e6c79207468652073656c6c65722063616e2061636365707420616e206f666665722e456e756d657261626c654d61703a20696e646578206f7574206f6620626f756e64734552433732313a20617070726f76656420717565727920666f72206e6f6e6578697374656e7420746f6b656e4552433732314d657461646174613a2055524920736574206f66206e6f6e6578697374656e7420746f6b656e4552433732313a207472616e73666572206f6620746f6b656e2074686174206973206e6f74206f776e4552433732314d657461646174613a2055524920717565727920666f72206e6f6e6578697374656e7420746f6b656e4552433732313a20617070726f76616c20746f2063757272656e74206f776e6572557365726e616d6520616c726561647920697320616c7265616479206c696e6b6564214552433732313a207472616e736665722063616c6c6572206973206e6f74206f776e6572206e6f7220617070726f766564596f752063616e206f6e6c7920637265617465206f66666572732066726f6d20796f757273656c66a26469706673582212203dcc176b21ae8e24e977d94e4f81b6484960e598ec096cb3c0b0b5ed7286ba8f64736f6c63430007030033",
  "linkReferences": {},
  "deployedLinkReferences": {}
}