{
  "_format": "hh-sol-artifact-1",
  "contractName": "TreasureTokenFactory",
  "sourceName": "contracts/TreasureTokenFactory.sol",
  "abi": [
    {
      "inputs": [],
      "stateMutability": "nonpayable",
      "type": "constructor"
    },
    {
      "anonymous": false,
      "inputs": [
        {
          "indexed": true,
          "internalType": "address",
          "name": "owner",
          "type": "address"
        },
        {
          "indexed": true,
          "internalType": "address",
          "name": "approved",
          "type": "address"
        },
        {
          "indexed": true,
          "internalType": "uint256",
          "name": "tokenId",
          "type": "uint256"
        }
      ],
      "name": "Approval",
      "type": "event"
    },
    {
      "anonymous": false,
      "inputs": [
        {
          "indexed": true,
          "internalType": "address",
          "name": "owner",
          "type": "address"
        },
        {
          "indexed": true,
          "internalType": "address",
          "name": "operator",
          "type": "address"
        },
        {
          "indexed": false,
          "internalType": "bool",
          "name": "approved",
          "type": "bool"
        }
      ],
      "name": "ApprovalForAll",
      "type": "event"
    },
    {
      "anonymous": false,
      "inputs": [
        {
          "indexed": false,
          "internalType": "uint256",
          "name": "offerId",
          "type": "uint256"
        }
      ],
      "name": "OfferCompleted",
      "type": "event"
    },
    {
      "anonymous": false,
      "inputs": [
        {
          "indexed": false,
          "internalType": "uint256",
          "name": "offerId",
          "type": "uint256"
        },
        {
          "indexed": false,
          "internalType": "string",
          "name": "buyerId",
          "type": "string"
        },
        {
          "indexed": false,
          "internalType": "string",
          "name": "postId",
          "type": "string"
        },
        {
          "indexed": false,
          "internalType": "uint256",
          "name": "bidAmount",
          "type": "uint256"
        }
      ],
      "name": "OfferCreated",
      "type": "event"
    },
    {
      "anonymous": false,
      "inputs": [
        {
          "indexed": false,
          "internalType": "uint256",
          "name": "offerId",
          "type": "uint256"
        },
        {
          "indexed": false,
          "internalType": "string",
          "name": "tokenUri",
          "type": "string"
        }
      ],
      "name": "OfferVerified",
      "type": "event"
    },
    {
      "anonymous": false,
      "inputs": [
        {
          "indexed": true,
          "internalType": "address",
          "name": "previousOwner",
          "type": "address"
        },
        {
          "indexed": true,
          "internalType": "address",
          "name": "newOwner",
          "type": "address"
        }
      ],
      "name": "OwnershipTransferred",
      "type": "event"
    },
    {
      "anonymous": false,
      "inputs": [
        {
          "indexed": false,
          "internalType": "uint256",
          "name": "tokenId",
          "type": "uint256"
        },
        {
          "indexed": false,
          "internalType": "string",
          "name": "ownerId",
          "type": "string"
        }
      ],
      "name": "TokenCreated",
      "type": "event"
    },
    {
      "anonymous": false,
      "inputs": [
        {
          "indexed": false,
          "internalType": "uint256",
          "name": "tokenId",
          "type": "uint256"
        },
        {
          "indexed": false,
          "internalType": "string",
          "name": "ownerId",
          "type": "string"
        }
      ],
      "name": "TokenOwnerChanged",
      "type": "event"
    },
    {
      "anonymous": false,
      "inputs": [
        {
          "indexed": true,
          "internalType": "address",
          "name": "from",
          "type": "address"
        },
        {
          "indexed": true,
          "internalType": "address",
          "name": "to",
          "type": "address"
        },
        {
          "indexed": true,
          "internalType": "uint256",
          "name": "tokenId",
          "type": "uint256"
        }
      ],
      "name": "Transfer",
      "type": "event"
    },
    {
      "anonymous": false,
      "inputs": [
        {
          "indexed": false,
          "internalType": "string",
          "name": "userId",
          "type": "string"
        },
        {
          "indexed": false,
          "internalType": "address",
          "name": "userAddress",
          "type": "address"
        }
      ],
      "name": "UserLinked",
      "type": "event"
    },
    {
      "inputs": [
        {
          "internalType": "uint256",
          "name": "_offerId",
          "type": "uint256"
        }
      ],
      "name": "accept",
      "outputs": [],
      "stateMutability": "nonpayable",
      "type": "function"
    },
    {
      "inputs": [
        {
          "internalType": "address",
          "name": "to",
          "type": "address"
        },
        {
          "internalType": "uint256",
          "name": "tokenId",
          "type": "uint256"
        }
      ],
      "name": "approve",
      "outputs": [],
      "stateMutability": "nonpayable",
      "type": "function"
    },
    {
      "inputs": [
        {
          "internalType": "address",
          "name": "owner",
          "type": "address"
        }
      ],
      "name": "balanceOf",
      "outputs": [
        {
          "internalType": "uint256",
          "name": "",
          "type": "uint256"
        }
      ],
      "stateMutability": "view",
      "type": "function"
    },
    {
      "inputs": [],
      "name": "baseURI",
      "outputs": [
        {
          "internalType": "string",
          "name": "",
          "type": "string"
        }
      ],
      "stateMutability": "view",
      "type": "function"
    },
    {
      "inputs": [
        {
          "internalType": "string",
          "name": "_buyerId",
          "type": "string"
        },
        {
          "internalType": "string",
          "name": "_postId",
          "type": "string"
        },
        {
          "internalType": "uint256",
          "name": "_bidAmount",
          "type": "uint256"
        }
      ],
      "name": "createOffer",
      "outputs": [],
      "stateMutability": "payable",
      "type": "function"
    },
    {
      "inputs": [
        {
          "internalType": "uint256",
          "name": "tokenId",
          "type": "uint256"
        }
      ],
      "name": "getApproved",
      "outputs": [
        {
          "internalType": "address",
          "name": "",
          "type": "address"
        }
      ],
      "stateMutability": "view",
      "type": "function"
    },
    {
      "inputs": [
        {
          "internalType": "uint256",
          "name": "_tokenId",
          "type": "uint256"
        }
      ],
      "name": "getOwner",
      "outputs": [
        {
          "internalType": "string",
          "name": "",
          "type": "string"
        }
      ],
      "stateMutability": "view",
      "type": "function"
    },
    {
      "inputs": [
        {
          "internalType": "string",
          "name": "_postId",
          "type": "string"
        }
      ],
      "name": "getTokenUri",
      "outputs": [
        {
          "internalType": "string",
          "name": "",
          "type": "string"
        }
      ],
      "stateMutability": "view",
      "type": "function"
    },
    {
      "inputs": [
        {
          "internalType": "address",
          "name": "owner",
          "type": "address"
        },
        {
          "internalType": "address",
          "name": "operator",
          "type": "address"
        }
      ],
      "name": "isApprovedForAll",
      "outputs": [
        {
          "internalType": "bool",
          "name": "",
          "type": "bool"
        }
      ],
      "stateMutability": "view",
      "type": "function"
    },
    {
      "inputs": [
        {
          "internalType": "string",
          "name": "_userId",
          "type": "string"
        },
        {
          "internalType": "address payable",
          "name": "_userAddress",
          "type": "address"
        }
      ],
      "name": "mapUser",
      "outputs": [],
      "stateMutability": "nonpayable",
      "type": "function"
    },
    {
      "inputs": [],
      "name": "name",
      "outputs": [
        {
          "internalType": "string",
          "name": "",
          "type": "string"
        }
      ],
      "stateMutability": "view",
      "type": "function"
    },
    {
      "inputs": [],
      "name": "owner",
      "outputs": [
        {
          "internalType": "address",
          "name": "",
          "type": "address"
        }
      ],
      "stateMutability": "view",
      "type": "function"
    },
    {
      "inputs": [
        {
          "internalType": "uint256",
          "name": "tokenId",
          "type": "uint256"
        }
      ],
      "name": "ownerOf",
      "outputs": [
        {
          "internalType": "address",
          "name": "",
          "type": "address"
        }
      ],
      "stateMutability": "view",
      "type": "function"
    },
    {
      "inputs": [
        {
          "internalType": "uint256",
          "name": "_offerId",
          "type": "uint256"
        }
      ],
      "name": "reject",
      "outputs": [],
      "stateMutability": "nonpayable",
      "type": "function"
    },
    {
      "inputs": [],
      "name": "renounceOwnership",
      "outputs": [],
      "stateMutability": "nonpayable",
      "type": "function"
    },
    {
      "inputs": [
        {
          "internalType": "address",
          "name": "from",
          "type": "address"
        },
        {
          "internalType": "address",
          "name": "to",
          "type": "address"
        },
        {
          "internalType": "uint256",
          "name": "tokenId",
          "type": "uint256"
        }
      ],
      "name": "safeTransferFrom",
      "outputs": [],
      "stateMutability": "nonpayable",
      "type": "function"
    },
    {
      "inputs": [
        {
          "internalType": "address",
          "name": "from",
          "type": "address"
        },
        {
          "internalType": "address",
          "name": "to",
          "type": "address"
        },
        {
          "internalType": "uint256",
          "name": "tokenId",
          "type": "uint256"
        },
        {
          "internalType": "bytes",
          "name": "_data",
          "type": "bytes"
        }
      ],
      "name": "safeTransferFrom",
      "outputs": [],
      "stateMutability": "nonpayable",
      "type": "function"
    },
    {
      "inputs": [
        {
          "internalType": "address",
          "name": "operator",
          "type": "address"
        },
        {
          "internalType": "bool",
          "name": "approved",
          "type": "bool"
        }
      ],
      "name": "setApprovalForAll",
      "outputs": [],
      "stateMutability": "nonpayable",
      "type": "function"
    },
    {
      "inputs": [
        {
          "internalType": "bytes4",
          "name": "interfaceId",
          "type": "bytes4"
        }
      ],
      "name": "supportsInterface",
      "outputs": [
        {
          "internalType": "bool",
          "name": "",
          "type": "bool"
        }
      ],
      "stateMutability": "view",
      "type": "function"
    },
    {
      "inputs": [],
      "name": "symbol",
      "outputs": [
        {
          "internalType": "string",
          "name": "",
          "type": "string"
        }
      ],
      "stateMutability": "view",
      "type": "function"
    },
    {
      "inputs": [
        {
          "internalType": "uint256",
          "name": "index",
          "type": "uint256"
        }
      ],
      "name": "tokenByIndex",
      "outputs": [
        {
          "internalType": "uint256",
          "name": "",
          "type": "uint256"
        }
      ],
      "stateMutability": "view",
      "type": "function"
    },
    {
      "inputs": [
        {
          "internalType": "address",
          "name": "owner",
          "type": "address"
        },
        {
          "internalType": "uint256",
          "name": "index",
          "type": "uint256"
        }
      ],
      "name": "tokenOfOwnerByIndex",
      "outputs": [
        {
          "internalType": "uint256",
          "name": "",
          "type": "uint256"
        }
      ],
      "stateMutability": "view",
      "type": "function"
    },
    {
      "inputs": [
        {
          "internalType": "uint256",
          "name": "tokenId",
          "type": "uint256"
        }
      ],
      "name": "tokenURI",
      "outputs": [
        {
          "internalType": "string",
          "name": "",
          "type": "string"
        }
      ],
      "stateMutability": "view",
      "type": "function"
    },
    {
      "inputs": [],
      "name": "totalSupply",
      "outputs": [
        {
          "internalType": "uint256",
          "name": "",
          "type": "uint256"
        }
      ],
      "stateMutability": "view",
      "type": "function"
    },
    {
      "inputs": [
        {
          "internalType": "address",
          "name": "from",
          "type": "address"
        },
        {
          "internalType": "address",
          "name": "to",
          "type": "address"
        },
        {
          "internalType": "uint256",
          "name": "tokenId",
          "type": "uint256"
        }
      ],
      "name": "transferFrom",
      "outputs": [],
      "stateMutability": "nonpayable",
      "type": "function"
    },
    {
      "inputs": [
        {
          "internalType": "address",
          "name": "newOwner",
          "type": "address"
        }
      ],
      "name": "transferOwnership",
      "outputs": [],
      "stateMutability": "nonpayable",
      "type": "function"
    },
    {
      "inputs": [
        {
          "internalType": "uint256",
          "name": "_offerId",
          "type": "uint256"
        },
        {
          "internalType": "string",
          "name": "_tokenUri",
          "type": "string"
        },
        {
          "internalType": "string",
          "name": "_sellerId",
          "type": "string"
        }
      ],
      "name": "verifyOffer",
      "outputs": [],
      "stateMutability": "nonpayable",
      "type": "function"
    }
  ],
  "bytecode": "0x60806040523480156200001157600080fd5b50604080518082018252600f81526e151c99585cdd5c9953dc989a5d185b608a1b602080830191909152825180840190935260038352622a27a960e91b9083015290620000656301ffc9a760e01b6200012a565b81516200007a906006906020850190620001b3565b50805162000090906007906020840190620001b3565b50620000a36380ac58cd60e01b6200012a565b620000b5635b5e139f60e01b6200012a565b620000c763780e9d6360e01b6200012a565b5060009050620000d6620001af565b600a80546001600160a01b0319166001600160a01b038316908117909155604051919250906000907f8be0079c531659141344cd1fd0a4f28419497f9722a3daafe3b4186f6b6457e0908290a3506200024f565b6001600160e01b031980821614156200018a576040805162461bcd60e51b815260206004820152601c60248201527f4552433136353a20696e76616c696420696e7465726661636520696400000000604482015290519081900360640190fd5b6001600160e01b0319166000908152602081905260409020805460ff19166001179055565b3390565b828054600181600116156101000203166002900490600052602060002090601f016020900481019282601f10620001f657805160ff191683800117855562000226565b8280016001018555821562000226579182015b828111156200022657825182559160200191906001019062000209565b506200023492915062000238565b5090565b5b8082111562000234576000815560010162000239565b61448d806200025f6000396000f3fe6080604052600436106101ac5760003560e01c806370a08231116100ec578063b816c56e1161008a578063c41a360a11610064578063c41a360a14610a20578063c87b56dd14610a4a578063e985e9c514610a74578063f2fde38b14610aaf576101ac565b8063b816c56e146107f4578063b88d4fde14610923578063b8adaa11146109f6576101ac565b80638da5cb5b116100c65780638da5cb5b146106dc57806395d89b41146106f15780639c1f1b8c14610706578063a22cb465146107b9576101ac565b806370a08231146105d6578063715018a6146106095780637db582a91461061e576101ac565b806323b872dd116101595780634f6ccce7116101335780634f6ccce71461042c57806350059a01146104565780636352211e146105975780636c0360eb146105c1576101ac565b806323b872dd1461036d5780632f745c59146103b057806342842e0e146103e9576101ac565b8063095ea7b31161018a578063095ea7b3146102e157806318160ddd1461031c57806319b05f4914610343576101ac565b806301ffc9a7146101b157806306fdde0314610211578063081812fc1461029b575b600080fd5b3480156101bd57600080fd5b506101fd600480360360208110156101d457600080fd5b50357fffffffff0000000000000000000000000000000000000000000000000000000016610ae2565b604080519115158252519081900360200190f35b34801561021d57600080fd5b50610226610b1d565b6040805160208082528351818301528351919283929083019185019080838360005b83811015610260578181015183820152602001610248565b50505050905090810190601f16801561028d5780820380516001836020036101000a031916815260200191505b509250505060405180910390f35b3480156102a757600080fd5b506102c5600480360360208110156102be57600080fd5b5035610bb3565b604080516001600160a01b039092168252519081900360200190f35b3480156102ed57600080fd5b5061031a6004803603604081101561030457600080fd5b506001600160a01b038135169060200135610c15565b005b34801561032857600080fd5b50610331610cf0565b60408051918252519081900360200190f35b34801561034f57600080fd5b5061031a6004803603602081101561036657600080fd5b5035610d01565b34801561037957600080fd5b5061031a6004803603606081101561039057600080fd5b506001600160a01b038135811691602081013590911690604001356117c8565b3480156103bc57600080fd5b50610331600480360360408110156103d357600080fd5b506001600160a01b03813516906020013561181f565b3480156103f557600080fd5b5061031a6004803603606081101561040c57600080fd5b506001600160a01b0381358116916020810135909116906040013561184a565b34801561043857600080fd5b506103316004803603602081101561044f57600080fd5b5035611865565b34801561046257600080fd5b5061031a6004803603606081101561047957600080fd5b8135919081019060408101602082013564010000000081111561049b57600080fd5b8201836020820111156104ad57600080fd5b803590602001918460018302840111640100000000831117156104cf57600080fd5b91908080601f016020809104026020016040519081016040528093929190818152602001838380828437600092019190915250929594936020810193503591505064010000000081111561052257600080fd5b82018360208201111561053457600080fd5b8035906020019184600183028401116401000000008311171561055657600080fd5b91908080601f01602080910402602001604051908101604052809392919081815260200183838082843760009201919091525092955061187b945050505050565b3480156105a357600080fd5b506102c5600480360360208110156105ba57600080fd5b5035611ac6565b3480156105cd57600080fd5b50610226611aee565b3480156105e257600080fd5b50610331600480360360208110156105f957600080fd5b50356001600160a01b0316611b4f565b34801561061557600080fd5b5061031a611bb7565b34801561062a57600080fd5b5061031a6004803603604081101561064157600080fd5b81019060208101813564010000000081111561065c57600080fd5b82018360208201111561066e57600080fd5b8035906020019184600183028401116401000000008311171561069057600080fd5b91908080601f016020809104026020016040519081016040528093929190818152602001838380828437600092019190915250929550505090356001600160a01b03169150611c829050565b3480156106e857600080fd5b506102c5611ed7565b3480156106fd57600080fd5b50610226611ee6565b34801561071257600080fd5b506102266004803603602081101561072957600080fd5b81019060208101813564010000000081111561074457600080fd5b82018360208201111561075657600080fd5b8035906020019184600183028401116401000000008311171561077857600080fd5b91908080601f016020809104026020016040519081016040528093929190818152602001838380828437600092019190915250929550611f47945050505050565b3480156107c557600080fd5b5061031a600480360360408110156107dc57600080fd5b506001600160a01b0381351690602001351515611fb3565b61031a6004803603606081101561080a57600080fd5b81019060208101813564010000000081111561082557600080fd5b82018360208201111561083757600080fd5b8035906020019184600183028401116401000000008311171561085957600080fd5b91908080601f01602080910402602001604051908101604052809392919081815260200183838082843760009201919091525092959493602081019350359150506401000000008111156108ac57600080fd5b8201836020820111156108be57600080fd5b803590602001918460018302840111640100000000831117156108e057600080fd5b91908080601f01602080910402602001604051908101604052809392919081815260200183838082843760009201919091525092955050913592506120b8915050565b34801561092f57600080fd5b5061031a6004803603608081101561094657600080fd5b6001600160a01b0382358116926020810135909116916040820135919081019060808101606082013564010000000081111561098157600080fd5b82018360208201111561099357600080fd5b803590602001918460018302840111640100000000831117156109b557600080fd5b91908080601f016020809104026020016040519081016040528093929190818152602001838380828437600092019190915250929550612410945050505050565b348015610a0257600080fd5b5061031a60048036036020811015610a1957600080fd5b503561246e565b348015610a2c57600080fd5b5061022660048036036020811015610a4357600080fd5b5035612947565b348015610a5657600080fd5b5061022660048036036020811015610a6d57600080fd5b50356129e8565b348015610a8057600080fd5b506101fd60048036036040811015610a9757600080fd5b506001600160a01b0381358116916020013516612c6b565b348015610abb57600080fd5b5061031a60048036036020811015610ad257600080fd5b50356001600160a01b0316612c99565b7fffffffff00000000000000000000000000000000000000000000000000000000811660009081526020819052604090205460ff165b919050565b60068054604080516020601f6002600019610100600188161502019095169490940493840181900481028201810190925282815260609390929091830182828015610ba95780601f10610b7e57610100808354040283529160200191610ba9565b820191906000526020600020905b815481529060010190602001808311610b8c57829003601f168201915b5050505050905090565b6000610bbe82612dbb565b610bf95760405162461bcd60e51b815260040180806020018281038252602c8152602001806142e4602c913960400191505060405180910390fd5b506000908152600460205260409020546001600160a01b031690565b6000610c2082611ac6565b9050806001600160a01b0316836001600160a01b03161415610c735760405162461bcd60e51b81526004018080602001828103825260218152602001806143bb6021913960400191505060405180910390fd5b806001600160a01b0316610c85612dc8565b6001600160a01b03161480610ca65750610ca681610ca1612dc8565b612c6b565b610ce15760405162461bcd60e51b81526004018080602001828103825260388152602001806142076038913960400191505060405180910390fd5b610ceb8383612dcc565b505050565b6000610cfc6002612e47565b905090565b80610d0b81612e52565b81610d1581612eab565b82610d1e613f92565b600f8281548110610d2b57fe5b60009182526020918290206040805160079390930290910180546002610100600183161581026000190190921604601f81018690049095028401610120908101909352830184815292939092849290918491840182828015610dce5780601f10610da357610100808354040283529160200191610dce565b820191906000526020600020905b815481529060010190602001808311610db157829003601f168201915b50505050508152602001600182018054600181600116156101000203166002900480601f016020809104026020016040519081016040528092919081815260200182805460018160011615610100020316600290048015610e705780601f10610e4557610100808354040283529160200191610e70565b820191906000526020600020905b815481529060010190602001808311610e5357829003601f168201915b5050509183525050600282810180546040805160206001841615610100026000190190931694909404601f81018390048302850183019091528084529381019390830182828015610f025780601f10610ed757610100808354040283529160200191610f02565b820191906000526020600020905b815481529060010190602001808311610ee557829003601f168201915b50505091835250506003820154602080830191909152600483015460ff808216151560408086019190915261010092839004909116151560608501526005850180548251600260018316159095026000190190911693909304601f81018590048502840185019092528183526080909401939192830182828015610fc75780601f10610f9c57610100808354040283529160200191610fc7565b820191906000526020600020905b815481529060010190602001808311610faa57829003601f168201915b50505091835250506006919091015460ff161515602091820152818101516040518151939450600093600c938291908401908083835b6020831061101c5780518252601f199092019160209182019101610ffd565b51815160209384036101000a60001901801990921691161790529201948552506040519384900301909220546001600160a01b031692505033821490506110945760405162461bcd60e51b81526004018080602001828103825260278152602001806143656027913960400191505060405180910390fd5b61109c613f92565b600f87815481106110a957fe5b60009182526020918290206040805160079390930290910180546002610100600183161581026000190190921604601f8101869004909502840161012090810190935283018481529293909284929091849184018282801561114c5780601f106111215761010080835404028352916020019161114c565b820191906000526020600020905b81548152906001019060200180831161112f57829003601f168201915b50505050508152602001600182018054600181600116156101000203166002900480601f0160208091040260200160405190810160405280929190818152602001828054600181600116156101000203166002900480156111ee5780601f106111c3576101008083540402835291602001916111ee565b820191906000526020600020905b8154815290600101906020018083116111d157829003601f168201915b5050509183525050600282810180546040805160206001841615610100026000190190931694909404601f810183900483028501830190915280845293810193908301828280156112805780601f1061125557610100808354040283529160200191611280565b820191906000526020600020905b81548152906001019060200180831161126357829003601f168201915b50505091835250506003820154602080830191909152600483015460ff808216151560408086019190915261010092839004909116151560608501526005850180548251600260018316159095026000190190911693909304601f810185900485028401850190925281835260809094019391928301828280156113455780601f1061131a57610100808354040283529160200191611345565b820191906000526020600020905b81548152906001019060200180831161132857829003601f168201915b50505091835250506006919091015460ff16151560209091015260e0810151909150156114f2576113df600e82604001516040518082805190602001908083835b602083106113a55780518252601f199092019160209182019101611386565b51815160209384036101000a60001901801990921691161790529201948552506040519384900381019093205492850151915061322a9050565b7f0bd1df0ee9f23ff2475054135e7ffc439511bde8b03720092c524e8dbe4c0700600e82604001516040518082805190602001908083835b602083106114365780518252601f199092019160209182019101611417565b6001836020036101000a03801982511681845116808217855250505050505090500191505090815260200160405180910390205482602001516040518083815260200180602001828103825283818151815260200191508051906020019080838360005b838110156114b257818101518382015260200161149a565b50505050905090810190601f1680156114df5780820380516001836020036101000a031916815260200191505b50935050505060405180910390a16115d1565b60006115018260c00151613249565b82516000828152600d6020908152604090912082519394506115299390929190910190613fdd565b507f5d3ac5872118b949a1f8db596134a0e1587ecf18f2203bb1e3ea420c3c3f8fa98183600001516040518083815260200180602001828103825283818151815260200191508051906020019080838360005b8381101561159457818101518382015260200161157c565b50505050905090810190601f1680156115c15780820380516001836020036101000a031916815260200191505b50935050505060405180910390a1505b6000600c82602001516040518082805190602001908083835b602083106116095780518252601f1990920191602091820191016115ea565b51815160209384036101000a60001901801990921691161790529201948552506040519384900301909220546060858101516001600160a01b0390921694506000935091508390600a9060405191900460090290600081818185875af1925050503d8060008114611696576040519150601f19603f3d011682016040523d82523d6000602084013e61169b565b606091505b50915091506116a98a613273565b600060606116b5611ed7565b6001600160a01b0316600a8760600151816116cc57fe5b60405191900490600081818185875af1925050503d806000811461170c576040519150601f19603f3d011682016040523d82523d6000602084013e611711565b606091505b509150915083611768576040805162461bcd60e51b815260206004820152601e60248201527f4661696c656420746f2073656e6420657468657220746f2073656c6c65720000604482015290519081900360640190fd5b816117ba576040805162461bcd60e51b815260206004820152601d60248201527f4661696c656420746f2073656e6420657468657220746f206f776e6572000000604482015290519081900360640190fd5b505050505050505050505050565b6117d96117d3612dc8565b826132de565b6118145760405162461bcd60e51b81526004018080602001828103825260318152602001806143ff6031913960400191505060405180910390fd5b610ceb838383613382565b6001600160a01b038216600090815260016020526040812061184190836134ce565b90505b92915050565b610ceb83838360405180602001604052806000815250612410565b6000806118736002846134da565b509392505050565b8261188581612e52565b61188d612dc8565b6001600160a01b031661189e611ed7565b6001600160a01b0316146118f9576040805162461bcd60e51b815260206004820181905260248201527f4f776e61626c653a2063616c6c6572206973206e6f7420746865206f776e6572604482015290519081900360640190fd5b6000600f858154811061190857fe5b906000526020600020906007020190506000600e82600201604051808280546001816001161561010002031660029004801561197b5780601f1061195957610100808354040283529182019161197b565b820191906000526020600020905b815481529060010190602001808311611967575b50509283525050604051908190036020019020549050806119b15783516119ab9060018401906020870190613fdd565b506119f6565b60068201805460ff191660019081179091556000828152600d6020526040902080546119f49285810192916002600019928216156101000292909201160461405b565b505b8451611a0b9060058401906020880190613fdd565b5060048201805460ff1916600117905560408051878152602080820183815288519383019390935287517fcc59bd48c71c7a35504dacc9451785cdf44e049b67f1e8862fe5e00c7c7f934a938a938a939092606084019185019080838360005b83811015611a83578181015183820152602001611a6b565b50505050905090810190601f168015611ab05780820380516001836020036101000a031916815260200191505b50935050505060405180910390a1505050505050565b60006118448260405180606001604052806029815260200161426960299139600291906134f6565b60098054604080516020601f6002600019610100600188161502019095169490940493840181900481028201810190925282815260609390929091830182828015610ba95780601f10610b7e57610100808354040283529160200191610ba9565b60006001600160a01b038216611b965760405162461bcd60e51b815260040180806020018281038252602a81526020018061423f602a913960400191505060405180910390fd5b6001600160a01b038216600090815260016020526040902061184490612e47565b611bbf612dc8565b6001600160a01b0316611bd0611ed7565b6001600160a01b031614611c2b576040805162461bcd60e51b815260206004820181905260248201527f4f776e61626c653a2063616c6c6572206973206e6f7420746865206f776e6572604482015290519081900360640190fd5b600a546040516000916001600160a01b0316907f8be0079c531659141344cd1fd0a4f28419497f9722a3daafe3b4186f6b6457e0908390a3600a805473ffffffffffffffffffffffffffffffffffffffff19169055565b611c8a612dc8565b6001600160a01b0316611c9b611ed7565b6001600160a01b031614611cf6576040805162461bcd60e51b815260206004820181905260248201527f4f776e61626c653a2063616c6c6572206973206e6f7420746865206f776e6572604482015290519081900360640190fd5b60006001600160a01b0316600c836040518082805190602001908083835b60208310611d335780518252601f199092019160209182019101611d14565b51815160209384036101000a60001901801990921691161790529201948552506040519384900301909220546001600160a01b0316929092149150611dab90505760405162461bcd60e51b81526004018080602001828103825260238152602001806143dc6023913960400191505060405180910390fd5b80600c836040518082805190602001908083835b60208310611dde5780518252601f199092019160209182019101611dbf565b51815160209384036101000a6000190180199092169116179052920194855250604080519485900382018520805473ffffffffffffffffffffffffffffffffffffffff19166001600160a01b0397881617905594861684820152848452865194840194909452505083517fbd24583d1f34ebaec5bacc0cb3d29df1ac91e8fc13018ebc80e3f29e3d49ce16928592859290918291606083019186019080838360005b83811015611e98578181015183820152602001611e80565b50505050905090810190601f168015611ec55780820380516001836020036101000a031916815260200191505b50935050505060405180910390a15050565b600a546001600160a01b031690565b60078054604080516020601f6002600019610100600188161502019095169490940493840181900481028201810190925282815260609390929091830182828015610ba95780601f10610b7e57610100808354040283529160200191610ba9565b6060611844600e836040518082805190602001908083835b60208310611f7e5780518252601f199092019160209182019101611f5f565b51815160209384036101000a600019018019909216911617905292019485525060405193849003019092205491506129e89050565b611fbb612dc8565b6001600160a01b0316826001600160a01b03161415612021576040805162461bcd60e51b815260206004820152601960248201527f4552433732313a20617070726f766520746f2063616c6c657200000000000000604482015290519081900360640190fd5b806005600061202e612dc8565b6001600160a01b03908116825260208083019390935260409182016000908120918716808252919093529120805460ff191692151592909217909155612072612dc8565b6001600160a01b03167f17307eab39ab6107e8899845ad3d59bd9653f200f220920489ca2b5937696c318360405180821515815260200191505060405180910390a35050565b600c836040518082805190602001908083835b602083106120ea5780518252601f1990920191602091820191016120cb565b51815160209384036101000a60001901801990921691161790529201948552506040519384900301909220546001600160a01b03163314915061216090505760405162461bcd60e51b81526004018080602001828103825260288152602001806144306028913960400191505060405180910390fd5b8034101561219f5760405162461bcd60e51b81526004018080602001828103825260308152602001806142b46030913960400191505060405180910390fd5b6040805161010081018252848152815160208181018452600080835281840192909252828401869052606083018590526080830182905260a08301829052835180820190945281845260c083019390935260e08201819052600f8054600181018255915281518051929360079092027f8d1108e10bcb7c27dddfc02ed9d693a074039d026cf4ea4240b40f7d581ac802019261223e9284920190613fdd565b5060208281015180516122579260018501920190613fdd565b5060408201518051612273916002840191602090910190613fdd565b5060608201516003820155608082015160048201805460a085015115156101000261ff001993151560ff19909216919091179290921691909117905560c082015180516122ca916005840191602090910190613fdd565b5060e08201518160060160006101000a81548160ff021916908315150217905550505060006001600f805490500390507f5959e9fbc5b42ab31702a9038d4329b08cc67277eaad89e9639d8380c7cfeb4381858585604051808581526020018060200180602001848152602001838103835286818151815260200191508051906020019080838360005b8381101561236c578181015183820152602001612354565b50505050905090810190601f1680156123995780820380516001836020036101000a031916815260200191505b50838103825285518152855160209182019187019080838360005b838110156123cc5781810151838201526020016123b4565b50505050905090810190601f1680156123f95780820380516001836020036101000a031916815260200191505b50965050505050505060405180910390a150505050565b61242161241b612dc8565b836132de565b61245c5760405162461bcd60e51b81526004018080602001828103825260318152602001806143ff6031913960400191505060405180910390fd5b6124688484848461350d565b50505050565b8061247881612e52565b8161248281612eab565b61248a613f92565b600f848154811061249757fe5b60009182526020918290206040805160079390930290910180546002610100600183161581026000190190921604601f8101869004909502840161012090810190935283018481529293909284929091849184018282801561253a5780601f1061250f5761010080835404028352916020019161253a565b820191906000526020600020905b81548152906001019060200180831161251d57829003601f168201915b50505050508152602001600182018054600181600116156101000203166002900480601f0160208091040260200160405190810160405280929190818152602001828054600181600116156101000203166002900480156125dc5780601f106125b1576101008083540402835291602001916125dc565b820191906000526020600020905b8154815290600101906020018083116125bf57829003601f168201915b5050509183525050600282810180546040805160206001841615610100026000190190931694909404601f8101839004830285018301909152808452938101939083018282801561266e5780601f106126435761010080835404028352916020019161266e565b820191906000526020600020905b81548152906001019060200180831161265157829003601f168201915b50505091835250506003820154602080830191909152600483015460ff808216151560408086019190915261010092839004909116151560608501526005850180548251600260018316159095026000190190911693909304601f810185900485028401850190925281835260809094019391928301828280156127335780601f1061270857610100808354040283529160200191612733565b820191906000526020600020905b81548152906001019060200180831161271657829003601f168201915b50505091835250506006919091015460ff161515602091820152818101516040518151939450600093600c938291908401908083835b602083106127885780518252601f199092019160209182019101612769565b51815160209384036101000a6000190180199092169116179052920194855250604051938490038101842054865180516001600160a01b039092169650600095600c9550909350918291908401908083835b602083106127f95780518252601f1990920191602091820191016127da565b51815160209384036101000a60001901801990921691161790529201948552506040519384900301909220546001600160a01b03908116935084163314915081905061284d5750336001600160a01b038216145b6128885760405162461bcd60e51b815260040180806020018281038252603181526020018061413a6031913960400191505060405180910390fd5b61289186613273565b606083810151604051600092916001600160a01b038516918481818185875af1925050503d80600081146128e1576040519150601f19603f3d011682016040523d82523d6000602084013e6128e6565b606091505b50915091508161293d576040805162461bcd60e51b815260206004820152601660248201527f4661696c656420746f20726566756e6420657468657200000000000000000000604482015290519081900360640190fd5b5050505050505050565b6000818152600d602090815260409182902080548351601f60026000196101006001861615020190931692909204918201849004840281018401909452808452606093928301828280156129dc5780601f106129b1576101008083540402835291602001916129dc565b820191906000526020600020905b8154815290600101906020018083116129bf57829003601f168201915b50505050509050919050565b60606129f382612dbb565b612a2e5760405162461bcd60e51b815260040180806020018281038252602f81526020018061438c602f913960400191505060405180910390fd5b60008281526008602090815260409182902080548351601f6002600019610100600186161502019093169290920491820184900484028101840190945280845260609392830182828015612ac35780601f10612a9857610100808354040283529160200191612ac3565b820191906000526020600020905b815481529060010190602001808311612aa657829003601f168201915b505050505090506060612ad4611aee565b9050805160001415612ae857509050610b18565b815115612ba95780826040516020018083805190602001908083835b60208310612b235780518252601f199092019160209182019101612b04565b51815160209384036101000a600019018019909216911617905285519190930192850191508083835b60208310612b6b5780518252601f199092019160209182019101612b4c565b6001836020036101000a0380198251168184511680821785525050505050509050019250505060405160208183030381529060405292505050610b18565b80612bb38561355f565b6040516020018083805190602001908083835b60208310612be55780518252601f199092019160209182019101612bc6565b51815160209384036101000a600019018019909216911617905285519190930192850191508083835b60208310612c2d5780518252601f199092019160209182019101612c0e565b6001836020036101000a0380198251168184511680821785525050505050509050019250505060405160208183030381529060405292505050919050565b6001600160a01b03918216600090815260056020908152604080832093909416825291909152205460ff1690565b612ca1612dc8565b6001600160a01b0316612cb2611ed7565b6001600160a01b031614612d0d576040805162461bcd60e51b815260206004820181905260248201527f4f776e61626c653a2063616c6c6572206973206e6f7420746865206f776e6572604482015290519081900360640190fd5b6001600160a01b038116612d525760405162461bcd60e51b815260040180806020018281038252602681526020018061416b6026913960400191505060405180910390fd5b600a546040516001600160a01b038084169216907f8be0079c531659141344cd1fd0a4f28419497f9722a3daafe3b4186f6b6457e090600090a3600a805473ffffffffffffffffffffffffffffffffffffffff19166001600160a01b0392909216919091179055565b600061184460028361366e565b3390565b6000818152600460205260409020805473ffffffffffffffffffffffffffffffffffffffff19166001600160a01b0384169081179091558190612e0e82611ac6565b6001600160a01b03167f8c5be1e5ebec7d5bd14f71427d1e84f3dd0314c0f7b2291e5b200ac8c7c3b92560405160405180910390a45050565b60006118448261367a565b600f548110612ea8576040805162461bcd60e51b815260206004820152601460248201527f4f6666657220646f6573206e6f74206578697374000000000000000000000000604482015290519081900360640190fd5b50565b612eb3613f92565b600f8281548110612ec057fe5b60009182526020918290206040805160079390930290910180546002610100600183161581026000190190921604601f81018690049095028401610120908101909352830184815292939092849290918491840182828015612f635780601f10612f3857610100808354040283529160200191612f63565b820191906000526020600020905b815481529060010190602001808311612f4657829003601f168201915b50505050508152602001600182018054600181600116156101000203166002900480601f0160208091040260200160405190810160405280929190818152602001828054600181600116156101000203166002900480156130055780601f10612fda57610100808354040283529160200191613005565b820191906000526020600020905b815481529060010190602001808311612fe857829003601f168201915b5050509183525050600282810180546040805160206001841615610100026000190190931694909404601f810183900483028501830190915280845293810193908301828280156130975780601f1061306c57610100808354040283529160200191613097565b820191906000526020600020905b81548152906001019060200180831161307a57829003601f168201915b50505091835250506003820154602080830191909152600483015460ff808216151560408086019190915261010092839004909116151560608501526005850180548251600260018316159095026000190190911693909304601f8101859004850284018501909252818352608090940193919283018282801561315c5780601f106131315761010080835404028352916020019161315c565b820191906000526020600020905b81548152906001019060200180831161313f57829003601f168201915b50505091835250506006919091015460ff16151560209091015260a0810151909150156131d0576040805162461bcd60e51b815260206004820152601b60248201527f4f6666657220697320616c726561647920636f6d706c657465642e0000000000604482015290519081900360640190fd5b8060800151613226576040805162461bcd60e51b815260206004820152601660248201527f4f66666572206973206e6f742076657269666965642e00000000000000000000604482015290519081900360640190fd5b5050565b6000828152600d602090815260409091208251610ceb92840190613fdd565b600080613256600b61367a565b9050613269613263611ed7565b8261367e565b6118448184613698565b6000600f828154811061328257fe5b60009182526020918290206004600790920201908101805461ff0019166101001790556040805185815290519193507f422b793202eb794642b1017af34abd55c83b22253a8323bfb35132b8cf8d5cc392908290030190a15050565b60006132e982612dbb565b6133245760405162461bcd60e51b815260040180806020018281038252602c8152602001806141db602c913960400191505060405180910390fd5b600061332f83611ac6565b9050806001600160a01b0316846001600160a01b0316148061336a5750836001600160a01b031661335f84610bb3565b6001600160a01b0316145b8061337a575061337a8185612c6b565b949350505050565b826001600160a01b031661339582611ac6565b6001600160a01b0316146133da5760405162461bcd60e51b815260040180806020018281038252602981526020018061433c6029913960400191505060405180910390fd5b6001600160a01b03821661341f5760405162461bcd60e51b81526004018080602001828103825260248152602001806141916024913960400191505060405180910390fd5b61342a838383610ceb565b613435600082612dcc565b6001600160a01b038316600090815260016020526040902061345790826136fb565b506001600160a01b038216600090815260016020526040902061347a9082613707565b5061348760028284613713565b5080826001600160a01b0316846001600160a01b03167fddf252ad1be2c89b69c2b068fc378daa952ba7f163c4a11628f55a4df523b3ef60405160405180910390a4505050565b60006118418383613729565b60008080806134e9868661378d565b9097909650945050505050565b6000613503848484613808565b90505b9392505050565b613518848484613382565b613524848484846138d2565b6124685760405162461bcd60e51b81526004018080602001828103825260328152602001806141086032913960400191505060405180910390fd5b6060816135a0575060408051808201909152600181527f30000000000000000000000000000000000000000000000000000000000000006020820152610b18565b8160005b81156135b857600101600a820491506135a4565b60608167ffffffffffffffff811180156135d157600080fd5b506040519080825280601f01601f1916602001820160405280156135fc576020820181803683370190505b50859350905060001982015b831561366557600a840660300160f81b8282806001900393508151811061362b57fe5b60200101907effffffffffffffffffffffffffffffffffffffffffffffffffffffffffffff1916908160001a905350600a84049350613608565b50949350505050565b60006118418383613a7c565b5490565b613226828260405180602001604052806000815250613a94565b6136a182612dbb565b6136dc5760405162461bcd60e51b815260040180806020018281038252602c815260200180614310602c913960400191505060405180910390fd5b60008281526008602090815260409091208251610ceb92840190613fdd565b60006118418383613ae6565b60006118418383613bac565b600061350384846001600160a01b038516613bf6565b8154600090821061376b5760405162461bcd60e51b81526004018080602001828103825260228152602001806140e66022913960400191505060405180910390fd5b82600001828154811061377a57fe5b9060005260206000200154905092915050565b8154600090819083106137d15760405162461bcd60e51b81526004018080602001828103825260228152602001806142926022913960400191505060405180910390fd5b60008460000184815481106137e257fe5b906000526020600020906002020190508060000154816001015492509250509250929050565b600082815260018401602052604081205482816138a35760405162461bcd60e51b81526004018080602001828103825283818151815260200191508051906020019080838360005b83811015613868578181015183820152602001613850565b50505050905090810190601f1680156138955780820380516001836020036101000a031916815260200191505b509250505060405180910390fd5b508460000160018203815481106138b657fe5b9060005260206000209060020201600101549150509392505050565b60006138e6846001600160a01b0316613c8d565b6138f25750600161337a565b6060613a2a630a85bd0160e11b613907612dc8565b88878760405160240180856001600160a01b03168152602001846001600160a01b0316815260200183815260200180602001828103825283818151815260200191508051906020019080838360005b8381101561396e578181015183820152602001613956565b50505050905090810190601f16801561399b5780820380516001836020036101000a031916815260200191505b5095505050505050604051602081830303815290604052907bffffffffffffffffffffffffffffffffffffffffffffffffffffffff19166020820180517bffffffffffffffffffffffffffffffffffffffffffffffffffffffff8381831617835250505050604051806060016040528060328152602001614108603291396001600160a01b0388169190613c93565b90506000818060200190516020811015613a4357600080fd5b50517fffffffff0000000000000000000000000000000000000000000000000000000016630a85bd0160e11b1492505050949350505050565b60009081526001919091016020526040902054151590565b613a9e8383613ca2565b613aab60008484846138d2565b610ceb5760405162461bcd60e51b81526004018080602001828103825260328152602001806141086032913960400191505060405180910390fd5b60008181526001830160205260408120548015613ba25783546000198083019190810190600090879083908110613b1957fe5b9060005260206000200154905080876000018481548110613b3657fe5b600091825260208083209091019290925582815260018981019092526040902090840190558654879080613b6657fe5b60019003818190600052602060002001600090559055866001016000878152602001908152602001600020600090556001945050505050611844565b6000915050611844565b6000613bb88383613a7c565b613bee57508154600181810184556000848152602080822090930184905584548482528286019093526040902091909155611844565b506000611844565b600082815260018401602052604081205480613c5b575050604080518082018252838152602080820184815286546001818101895560008981528481209551600290930290950191825591519082015586548684528188019092529290912055613506565b82856000016001830381548110613c6e57fe5b9060005260206000209060020201600101819055506000915050613506565b3b151590565b60606135038484600085613dd0565b6001600160a01b038216613cfd576040805162461bcd60e51b815260206004820181905260248201527f4552433732313a206d696e7420746f20746865207a65726f2061646472657373604482015290519081900360640190fd5b613d0681612dbb565b15613d58576040805162461bcd60e51b815260206004820152601c60248201527f4552433732313a20746f6b656e20616c7265616479206d696e74656400000000604482015290519081900360640190fd5b613d6460008383610ceb565b6001600160a01b0382166000908152600160205260409020613d869082613707565b50613d9360028284613713565b5060405181906001600160a01b038416906000907fddf252ad1be2c89b69c2b068fc378daa952ba7f163c4a11628f55a4df523b3ef908290a45050565b606082471015613e115760405162461bcd60e51b81526004018080602001828103825260268152602001806141b56026913960400191505060405180910390fd5b613e1a85613c8d565b613e6b576040805162461bcd60e51b815260206004820152601d60248201527f416464726573733a2063616c6c20746f206e6f6e2d636f6e7472616374000000604482015290519081900360640190fd5b60006060866001600160a01b031685876040518082805190602001908083835b60208310613eaa5780518252601f199092019160209182019101613e8b565b6001836020036101000a03801982511681845116808217855250505050505090500191505060006040518083038185875af1925050503d8060008114613f0c576040519150601f19603f3d011682016040523d82523d6000602084013e613f11565b606091505b5091509150613f21828286613f2c565b979650505050505050565b60608315613f3b575081613506565b825115613f4b5782518084602001fd5b60405162461bcd60e51b8152602060048201818152845160248401528451859391928392604401919085019080838360008315613868578181015183820152602001613850565b60405180610100016040528060608152602001606081526020016060815260200160008152602001600015158152602001600015158152602001606081526020016000151581525090565b828054600181600116156101000203166002900490600052602060002090601f016020900481019282601f1061401e57805160ff191683800117855561404b565b8280016001018555821561404b579182015b8281111561404b578251825591602001919060010190614030565b506140579291506140d0565b5090565b828054600181600116156101000203166002900490600052602060002090601f016020900481019282601f10614094578054855561404b565b8280016001018555821561404b57600052602060002091601f016020900482015b8281111561404b5782548255916001019190600101906140b5565b5b8082111561405757600081556001016140d156fe456e756d657261626c655365743a20696e646578206f7574206f6620626f756e64734552433732313a207472616e7366657220746f206e6f6e20455243373231526563656976657220696d706c656d656e746572596f7520617265206e6f7420746865206275796572206f72207468652073656c6c6572206f662074686973206f666665724f776e61626c653a206e6577206f776e657220697320746865207a65726f20616464726573734552433732313a207472616e7366657220746f20746865207a65726f2061646472657373416464726573733a20696e73756666696369656e742062616c616e636520666f722063616c6c4552433732313a206f70657261746f7220717565727920666f72206e6f6e6578697374656e7420746f6b656e4552433732313a20617070726f76652063616c6c6572206973206e6f74206f776e6572206e6f7220617070726f76656420666f7220616c6c4552433732313a2062616c616e636520717565727920666f7220746865207a65726f20616464726573734552433732313a206f776e657220717565727920666f72206e6f6e6578697374656e7420746f6b656e456e756d657261626c654d61703a20696e646578206f7574206f6620626f756e6473496e73756666696369656e742076616c75652c20706c65617365206d61746368207468652062696420616d6f756e742e4552433732313a20617070726f76656420717565727920666f72206e6f6e6578697374656e7420746f6b656e4552433732314d657461646174613a2055524920736574206f66206e6f6e6578697374656e7420746f6b656e4552433732313a207472616e73666572206f6620746f6b656e2074686174206973206e6f74206f776e4f6e6c79207468652073656c6c65722063616e2063616c6c20746869732066756e6374696f6e2e4552433732314d657461646174613a2055524920717565727920666f72206e6f6e6578697374656e7420746f6b656e4552433732313a20617070726f76616c20746f2063757272656e74206f776e6572557365726e616d6520616c726561647920697320616c7265616479206c696e6b6564214552433732313a207472616e736665722063616c6c6572206973206e6f74206f776e6572206e6f7220617070726f766564596f752063616e206f6e6c7920637265617465206f66666572732066726f6d20796f757273656c66a26469706673582212208974fcb0575f1d58c841b4f330dbda635dea6d916905d9496ad7437e4ccc7e8a64736f6c63430007030033",
  "linkReferences": {},
  "deployedLinkReferences": {}
}