{
  "_format": "hh-sol-artifact-1",
  "contractName": "TreasureTokenFactory",
  "sourceName": "contracts/TreasureTokenFactory.sol",
  "abi": [
    {
      "inputs": [],
      "stateMutability": "nonpayable",
      "type": "constructor"
    },
    {
      "anonymous": false,
      "inputs": [
        {
          "indexed": true,
          "internalType": "address",
          "name": "owner",
          "type": "address"
        },
        {
          "indexed": true,
          "internalType": "address",
          "name": "approved",
          "type": "address"
        },
        {
          "indexed": true,
          "internalType": "uint256",
          "name": "tokenId",
          "type": "uint256"
        }
      ],
      "name": "Approval",
      "type": "event"
    },
    {
      "anonymous": false,
      "inputs": [
        {
          "indexed": true,
          "internalType": "address",
          "name": "owner",
          "type": "address"
        },
        {
          "indexed": true,
          "internalType": "address",
          "name": "operator",
          "type": "address"
        },
        {
          "indexed": false,
          "internalType": "bool",
          "name": "approved",
          "type": "bool"
        }
      ],
      "name": "ApprovalForAll",
      "type": "event"
    },
    {
      "anonymous": false,
      "inputs": [
        {
          "indexed": false,
          "internalType": "uint256",
          "name": "offerId",
          "type": "uint256"
        }
      ],
      "name": "OfferCompleted",
      "type": "event"
    },
    {
      "anonymous": false,
      "inputs": [
        {
          "indexed": false,
          "internalType": "uint256",
          "name": "offerId",
          "type": "uint256"
        },
        {
          "indexed": false,
          "internalType": "string",
          "name": "buyerId",
          "type": "string"
        },
        {
          "indexed": false,
          "internalType": "string",
          "name": "sellerId",
          "type": "string"
        },
        {
          "indexed": false,
          "internalType": "string",
          "name": "postId",
          "type": "string"
        },
        {
          "indexed": false,
          "internalType": "uint256",
          "name": "bidAmount",
          "type": "uint256"
        }
      ],
      "name": "OfferCreated",
      "type": "event"
    },
    {
      "anonymous": false,
      "inputs": [
        {
          "indexed": false,
          "internalType": "uint256",
          "name": "offerId",
          "type": "uint256"
        }
      ],
      "name": "OfferVerified",
      "type": "event"
    },
    {
      "anonymous": false,
      "inputs": [
        {
          "indexed": true,
          "internalType": "address",
          "name": "previousOwner",
          "type": "address"
        },
        {
          "indexed": true,
          "internalType": "address",
          "name": "newOwner",
          "type": "address"
        }
      ],
      "name": "OwnershipTransferred",
      "type": "event"
    },
    {
      "anonymous": false,
      "inputs": [
        {
          "indexed": true,
          "internalType": "address",
          "name": "from",
          "type": "address"
        },
        {
          "indexed": true,
          "internalType": "address",
          "name": "to",
          "type": "address"
        },
        {
          "indexed": true,
          "internalType": "uint256",
          "name": "tokenId",
          "type": "uint256"
        }
      ],
      "name": "Transfer",
      "type": "event"
    },
    {
      "anonymous": false,
      "inputs": [
        {
          "indexed": false,
          "internalType": "string",
          "name": "userId",
          "type": "string"
        },
        {
          "indexed": false,
          "internalType": "address",
          "name": "userAddress",
          "type": "address"
        }
      ],
      "name": "UserLinked",
      "type": "event"
    },
    {
      "inputs": [
        {
          "internalType": "address",
          "name": "to",
          "type": "address"
        },
        {
          "internalType": "uint256",
          "name": "tokenId",
          "type": "uint256"
        }
      ],
      "name": "approve",
      "outputs": [],
      "stateMutability": "nonpayable",
      "type": "function"
    },
    {
      "inputs": [
        {
          "internalType": "address",
          "name": "owner",
          "type": "address"
        }
      ],
      "name": "balanceOf",
      "outputs": [
        {
          "internalType": "uint256",
          "name": "",
          "type": "uint256"
        }
      ],
      "stateMutability": "view",
      "type": "function"
    },
    {
      "inputs": [],
      "name": "baseURI",
      "outputs": [
        {
          "internalType": "string",
          "name": "",
          "type": "string"
        }
      ],
      "stateMutability": "view",
      "type": "function"
    },
    {
      "inputs": [
        {
          "internalType": "string",
          "name": "_buyerId",
          "type": "string"
        },
        {
          "internalType": "string",
          "name": "_sellerId",
          "type": "string"
        },
        {
          "internalType": "string",
          "name": "_postId",
          "type": "string"
        },
        {
          "internalType": "uint256",
          "name": "_bidAmount",
          "type": "uint256"
        }
      ],
      "name": "createOffer",
      "outputs": [],
      "stateMutability": "payable",
      "type": "function"
    },
    {
      "inputs": [
        {
          "internalType": "uint256",
          "name": "tokenId",
          "type": "uint256"
        }
      ],
      "name": "getApproved",
      "outputs": [
        {
          "internalType": "address",
          "name": "",
          "type": "address"
        }
      ],
      "stateMutability": "view",
      "type": "function"
    },
    {
      "inputs": [
        {
          "internalType": "string",
          "name": "_userId",
          "type": "string"
        }
      ],
      "name": "getUser",
      "outputs": [
        {
          "internalType": "address payable",
          "name": "",
          "type": "address"
        }
      ],
      "stateMutability": "view",
      "type": "function"
    },
    {
      "inputs": [
        {
          "internalType": "address",
          "name": "owner",
          "type": "address"
        },
        {
          "internalType": "address",
          "name": "operator",
          "type": "address"
        }
      ],
      "name": "isApprovedForAll",
      "outputs": [
        {
          "internalType": "bool",
          "name": "",
          "type": "bool"
        }
      ],
      "stateMutability": "view",
      "type": "function"
    },
    {
      "inputs": [
        {
          "internalType": "string",
          "name": "_userId",
          "type": "string"
        },
        {
          "internalType": "address payable",
          "name": "_userAddress",
          "type": "address"
        }
      ],
      "name": "mapUser",
      "outputs": [],
      "stateMutability": "nonpayable",
      "type": "function"
    },
    {
      "inputs": [],
      "name": "name",
      "outputs": [
        {
          "internalType": "string",
          "name": "",
          "type": "string"
        }
      ],
      "stateMutability": "view",
      "type": "function"
    },
    {
      "inputs": [],
      "name": "owner",
      "outputs": [
        {
          "internalType": "address",
          "name": "",
          "type": "address"
        }
      ],
      "stateMutability": "view",
      "type": "function"
    },
    {
      "inputs": [
        {
          "internalType": "uint256",
          "name": "tokenId",
          "type": "uint256"
        }
      ],
      "name": "ownerOf",
      "outputs": [
        {
          "internalType": "address",
          "name": "",
          "type": "address"
        }
      ],
      "stateMutability": "view",
      "type": "function"
    },
    {
      "inputs": [
        {
          "internalType": "uint256",
          "name": "_offerId",
          "type": "uint256"
        }
      ],
      "name": "reject",
      "outputs": [],
      "stateMutability": "nonpayable",
      "type": "function"
    },
    {
      "inputs": [],
      "name": "renounceOwnership",
      "outputs": [],
      "stateMutability": "nonpayable",
      "type": "function"
    },
    {
      "inputs": [
        {
          "internalType": "address",
          "name": "from",
          "type": "address"
        },
        {
          "internalType": "address",
          "name": "to",
          "type": "address"
        },
        {
          "internalType": "uint256",
          "name": "tokenId",
          "type": "uint256"
        }
      ],
      "name": "safeTransferFrom",
      "outputs": [],
      "stateMutability": "nonpayable",
      "type": "function"
    },
    {
      "inputs": [
        {
          "internalType": "address",
          "name": "from",
          "type": "address"
        },
        {
          "internalType": "address",
          "name": "to",
          "type": "address"
        },
        {
          "internalType": "uint256",
          "name": "tokenId",
          "type": "uint256"
        },
        {
          "internalType": "bytes",
          "name": "_data",
          "type": "bytes"
        }
      ],
      "name": "safeTransferFrom",
      "outputs": [],
      "stateMutability": "nonpayable",
      "type": "function"
    },
    {
      "inputs": [
        {
          "internalType": "address",
          "name": "operator",
          "type": "address"
        },
        {
          "internalType": "bool",
          "name": "approved",
          "type": "bool"
        }
      ],
      "name": "setApprovalForAll",
      "outputs": [],
      "stateMutability": "nonpayable",
      "type": "function"
    },
    {
      "inputs": [
        {
          "internalType": "uint256",
          "name": "_offerId",
          "type": "uint256"
        }
      ],
      "name": "success",
      "outputs": [],
      "stateMutability": "nonpayable",
      "type": "function"
    },
    {
      "inputs": [
        {
          "internalType": "bytes4",
          "name": "interfaceId",
          "type": "bytes4"
        }
      ],
      "name": "supportsInterface",
      "outputs": [
        {
          "internalType": "bool",
          "name": "",
          "type": "bool"
        }
      ],
      "stateMutability": "view",
      "type": "function"
    },
    {
      "inputs": [],
      "name": "symbol",
      "outputs": [
        {
          "internalType": "string",
          "name": "",
          "type": "string"
        }
      ],
      "stateMutability": "view",
      "type": "function"
    },
    {
      "inputs": [
        {
          "internalType": "uint256",
          "name": "index",
          "type": "uint256"
        }
      ],
      "name": "tokenByIndex",
      "outputs": [
        {
          "internalType": "uint256",
          "name": "",
          "type": "uint256"
        }
      ],
      "stateMutability": "view",
      "type": "function"
    },
    {
      "inputs": [
        {
          "internalType": "address",
          "name": "owner",
          "type": "address"
        },
        {
          "internalType": "uint256",
          "name": "index",
          "type": "uint256"
        }
      ],
      "name": "tokenOfOwnerByIndex",
      "outputs": [
        {
          "internalType": "uint256",
          "name": "",
          "type": "uint256"
        }
      ],
      "stateMutability": "view",
      "type": "function"
    },
    {
      "inputs": [
        {
          "internalType": "uint256",
          "name": "tokenId",
          "type": "uint256"
        }
      ],
      "name": "tokenURI",
      "outputs": [
        {
          "internalType": "string",
          "name": "",
          "type": "string"
        }
      ],
      "stateMutability": "view",
      "type": "function"
    },
    {
      "inputs": [],
      "name": "totalSupply",
      "outputs": [
        {
          "internalType": "uint256",
          "name": "",
          "type": "uint256"
        }
      ],
      "stateMutability": "view",
      "type": "function"
    },
    {
      "inputs": [
        {
          "internalType": "address",
          "name": "from",
          "type": "address"
        },
        {
          "internalType": "address",
          "name": "to",
          "type": "address"
        },
        {
          "internalType": "uint256",
          "name": "tokenId",
          "type": "uint256"
        }
      ],
      "name": "transferFrom",
      "outputs": [],
      "stateMutability": "nonpayable",
      "type": "function"
    },
    {
      "inputs": [
        {
          "internalType": "address",
          "name": "newOwner",
          "type": "address"
        }
      ],
      "name": "transferOwnership",
      "outputs": [],
      "stateMutability": "nonpayable",
      "type": "function"
    },
    {
      "inputs": [
        {
          "internalType": "uint256",
          "name": "_offerId",
          "type": "uint256"
        }
      ],
      "name": "verifyOffer",
      "outputs": [],
      "stateMutability": "nonpayable",
      "type": "function"
    }
  ],
  "bytecode": "0x60806040523480156200001157600080fd5b506040518060400160405280600f81526020017f54726561737572654f72626974616c00000000000000000000000000000000008152506040518060400160405280600381526020017f544f520000000000000000000000000000000000000000000000000000000000815250620000966301ffc9a760e01b620001c960201b60201c565b8160069080519060200190620000ae929190620002da565b508060079080519060200190620000c7929190620002da565b50620000e06380ac58cd60e01b620001c960201b60201c565b620000f8635b5e139f60e01b620001c960201b60201c565b6200011063780e9d6360e01b620001c960201b60201c565b5050600062000124620002d260201b60201c565b905080600a60006101000a81548173ffffffffffffffffffffffffffffffffffffffff021916908373ffffffffffffffffffffffffffffffffffffffff1602179055508073ffffffffffffffffffffffffffffffffffffffff16600073ffffffffffffffffffffffffffffffffffffffff167f8be0079c531659141344cd1fd0a4f28419497f9722a3daafe3b4186f6b6457e060405160405180910390a35062000380565b63ffffffff60e01b817bffffffffffffffffffffffffffffffffffffffffffffffffffffffff1916141562000266576040517f08c379a000000000000000000000000000000000000000000000000000000000815260040180806020018281038252601c8152602001807f4552433136353a20696e76616c696420696e746572666163652069640000000081525060200191505060405180910390fd5b6001600080837bffffffffffffffffffffffffffffffffffffffffffffffffffffffff19167bffffffffffffffffffffffffffffffffffffffffffffffffffffffff1916815260200190815260200160002060006101000a81548160ff02191690831515021790555050565b600033905090565b828054600181600116156101000203166002900490600052602060002090601f016020900481019282601f106200031d57805160ff19168380011785556200034e565b828001600101855582156200034e579182015b828111156200034d57825182559160200191906001019062000330565b5b5090506200035d919062000361565b5090565b5b808211156200037c57600081600090555060010162000362565b5090565b6154b980620003906000396000f3fe6080604052600436106101815760003560e01c806370a08231116100d1578063a22cb4651161008a578063c87b56dd11610064578063c87b56dd14610d19578063e985e9c514610dcd578063eade033014610e54578063f2fde38b14610e8f57610181565b8063a22cb46514610b6f578063b88d4fde14610bcc578063b8adaa1114610cde57610181565b806370a08231146108ff578063715018a6146109645780637db582a91461097b578063888ea24314610a635780638da5cb5b14610a9e57806395d89b4114610adf57610181565b80632f745c591161013e57806342842e0e1161011857806342842e0e146107405780634f6ccce7146107bb5780636352211e1461080a5780636c0360eb1461086f57610181565b80632f745c59146103ec57806331feb6711461045b57806338061d821461054d57610181565b806301ffc9a71461018657806306fdde03146101f6578063081812fc14610286578063095ea7b3146102eb57806318160ddd1461034657806323b872dd14610371575b600080fd5b34801561019257600080fd5b506101de600480360360208110156101a957600080fd5b8101908080357bffffffffffffffffffffffffffffffffffffffffffffffffffffffff19169060200190929190505050610ee0565b60405180821515815260200191505060405180910390f35b34801561020257600080fd5b5061020b610f47565b6040518080602001828103825283818151815260200191508051906020019080838360005b8381101561024b578082015181840152602081019050610230565b50505050905090810190601f1680156102785780820380516001836020036101000a031916815260200191505b509250505060405180910390f35b34801561029257600080fd5b506102bf600480360360208110156102a957600080fd5b8101908080359060200190929190505050610fe9565b604051808273ffffffffffffffffffffffffffffffffffffffff16815260200191505060405180910390f35b3480156102f757600080fd5b506103446004803603604081101561030e57600080fd5b81019080803573ffffffffffffffffffffffffffffffffffffffff16906020019092919080359060200190929190505050611084565b005b34801561035257600080fd5b5061035b6111c8565b6040518082815260200191505060405180910390f35b34801561037d57600080fd5b506103ea6004803603606081101561039457600080fd5b81019080803573ffffffffffffffffffffffffffffffffffffffff169060200190929190803573ffffffffffffffffffffffffffffffffffffffff169060200190929190803590602001909291905050506111d9565b005b3480156103f857600080fd5b506104456004803603604081101561040f57600080fd5b81019080803573ffffffffffffffffffffffffffffffffffffffff1690602001909291908035906020019092919050505061124f565b6040518082815260200191505060405180910390f35b34801561046757600080fd5b506105216004803603602081101561047e57600080fd5b810190808035906020019064010000000081111561049b57600080fd5b8201836020820111156104ad57600080fd5b803590602001918460018302840111640100000000831117156104cf57600080fd5b91908080601f016020809104026020016040519081016040528093929190818152602001838380828437600081840152601f19601f8201169050808301925050505050505091929192905050506112aa565b604051808273ffffffffffffffffffffffffffffffffffffffff16815260200191505060405180910390f35b61073e6004803603608081101561056357600080fd5b810190808035906020019064010000000081111561058057600080fd5b82018360208201111561059257600080fd5b803590602001918460018302840111640100000000831117156105b457600080fd5b91908080601f016020809104026020016040519081016040528093929190818152602001838380828437600081840152601f19601f8201169050808301925050505050505091929192908035906020019064010000000081111561061757600080fd5b82018360208201111561062957600080fd5b8035906020019184600183028401116401000000008311171561064b57600080fd5b91908080601f016020809104026020016040519081016040528093929190818152602001838380828437600081840152601f19601f820116905080830192505050505050509192919290803590602001906401000000008111156106ae57600080fd5b8201836020820111156106c057600080fd5b803590602001918460018302840111640100000000831117156106e257600080fd5b91908080601f016020809104026020016040519081016040528093929190818152602001838380828437600081840152601f19601f82011690508083019250505050505050919291929080359060200190929190505050611518565b005b34801561074c57600080fd5b506107b96004803603606081101561076357600080fd5b81019080803573ffffffffffffffffffffffffffffffffffffffff169060200190929190803573ffffffffffffffffffffffffffffffffffffffff16906020019092919080359060200190929190505050611919565b005b3480156107c757600080fd5b506107f4600480360360208110156107de57600080fd5b8101908080359060200190929190505050611939565b6040518082815260200191505060405180910390f35b34801561081657600080fd5b506108436004803603602081101561082d57600080fd5b810190808035906020019092919050505061195c565b604051808273ffffffffffffffffffffffffffffffffffffffff16815260200191505060405180910390f35b34801561087b57600080fd5b50610884611993565b6040518080602001828103825283818151815260200191508051906020019080838360005b838110156108c45780820151818401526020810190506108a9565b50505050905090810190601f1680156108f15780820380516001836020036101000a031916815260200191505b509250505060405180910390f35b34801561090b57600080fd5b5061094e6004803603602081101561092257600080fd5b81019080803573ffffffffffffffffffffffffffffffffffffffff169060200190929190505050611a35565b6040518082815260200191505060405180910390f35b34801561097057600080fd5b50610979611b0a565b005b34801561098757600080fd5b50610a616004803603604081101561099e57600080fd5b81019080803590602001906401000000008111156109bb57600080fd5b8201836020820111156109cd57600080fd5b803590602001918460018302840111640100000000831117156109ef57600080fd5b91908080601f016020809104026020016040519081016040528093929190818152602001838380828437600081840152601f19601f820116905080830192505050505050509192919290803573ffffffffffffffffffffffffffffffffffffffff169060200190929190505050611c7a565b005b348015610a6f57600080fd5b50610a9c60048036036020811015610a8657600080fd5b8101908080359060200190929190505050611f9d565b005b348015610aaa57600080fd5b50610ab361287c565b604051808273ffffffffffffffffffffffffffffffffffffffff16815260200191505060405180910390f35b348015610aeb57600080fd5b50610af46128a6565b6040518080602001828103825283818151815260200191508051906020019080838360005b83811015610b34578082015181840152602081019050610b19565b50505050905090810190601f168015610b615780820380516001836020036101000a031916815260200191505b509250505060405180910390f35b348015610b7b57600080fd5b50610bca60048036036040811015610b9257600080fd5b81019080803573ffffffffffffffffffffffffffffffffffffffff169060200190929190803515159060200190929190505050612948565b005b348015610bd857600080fd5b50610cdc60048036036080811015610bef57600080fd5b81019080803573ffffffffffffffffffffffffffffffffffffffff169060200190929190803573ffffffffffffffffffffffffffffffffffffffff1690602001909291908035906020019092919080359060200190640100000000811115610c5657600080fd5b820183602082011115610c6857600080fd5b80359060200191846001830284011164010000000083111715610c8a57600080fd5b91908080601f016020809104026020016040519081016040528093929190818152602001838380828437600081840152601f19601f820116905080830192505050505050509192919290505050612afe565b005b348015610cea57600080fd5b50610d1760048036036020811015610d0157600080fd5b8101908080359060200190929190505050612b76565b005b348015610d2557600080fd5b50610d5260048036036020811015610d3c57600080fd5b8101908080359060200190929190505050613462565b6040518080602001828103825283818151815260200191508051906020019080838360005b83811015610d92578082015181840152602081019050610d77565b50505050905090810190601f168015610dbf5780820380516001836020036101000a031916815260200191505b509250505060405180910390f35b348015610dd957600080fd5b50610e3c60048036036040811015610df057600080fd5b81019080803573ffffffffffffffffffffffffffffffffffffffff169060200190929190803573ffffffffffffffffffffffffffffffffffffffff169060200190929190505050613733565b60405180821515815260200191505060405180910390f35b348015610e6057600080fd5b50610e8d60048036036020811015610e7757600080fd5b81019080803590602001909291905050506137c7565b005b348015610e9b57600080fd5b50610ede60048036036020811015610eb257600080fd5b81019080803573ffffffffffffffffffffffffffffffffffffffff1690602001909291905050506139ea565b005b6000806000837bffffffffffffffffffffffffffffffffffffffffffffffffffffffff19167bffffffffffffffffffffffffffffffffffffffffffffffffffffffff1916815260200190815260200160002060009054906101000a900460ff169050919050565b606060068054600181600116156101000203166002900480601f016020809104026020016040519081016040528092919081815260200182805460018160011615610100020316600290048015610fdf5780601f10610fb457610100808354040283529160200191610fdf565b820191906000526020600020905b815481529060010190602001808311610fc257829003601f168201915b5050505050905090565b6000610ff482613bdf565b611049576040517f08c379a000000000000000000000000000000000000000000000000000000000815260040180806020018281038252602c81526020018061533c602c913960400191505060405180910390fd5b6004600083815260200190815260200160002060009054906101000a900473ffffffffffffffffffffffffffffffffffffffff169050919050565b600061108f8261195c565b90508073ffffffffffffffffffffffffffffffffffffffff168373ffffffffffffffffffffffffffffffffffffffff161415611116576040517f08c379a00000000000000000000000000000000000000000000000000000000081526004018080602001828103825260218152602001806153e76021913960400191505060405180910390fd5b8073ffffffffffffffffffffffffffffffffffffffff16611135613bfc565b73ffffffffffffffffffffffffffffffffffffffff16148061116457506111638161115e613bfc565b613733565b5b6111b9576040517f08c379a000000000000000000000000000000000000000000000000000000000815260040180806020018281038252603881526020018061525f6038913960400191505060405180910390fd5b6111c38383613c04565b505050565b60006111d46002613cbd565b905090565b6111ea6111e4613bfc565b82613cd2565b61123f576040517f08c379a000000000000000000000000000000000000000000000000000000000815260040180806020018281038252603181526020018061542b6031913960400191505060405180910390fd5b61124a838383613dc6565b505050565b60006112a282600160008673ffffffffffffffffffffffffffffffffffffffff1673ffffffffffffffffffffffffffffffffffffffff16815260200190815260200160002061400990919063ffffffff16565b905092915050565b60006112b4613bfc565b73ffffffffffffffffffffffffffffffffffffffff166112d261287c565b73ffffffffffffffffffffffffffffffffffffffff161461135b576040517f08c379a00000000000000000000000000000000000000000000000000000000081526004018080602001828103825260208152602001807f4f776e61626c653a2063616c6c6572206973206e6f7420746865206f776e657281525060200191505060405180910390fd5b600073ffffffffffffffffffffffffffffffffffffffff16600c836040518082805190602001908083835b602083106113a95780518252602082019150602081019050602083039250611386565b6001836020036101000a038019825116818451168082178552505050505050905001915050908152602001604051809103902060009054906101000a900473ffffffffffffffffffffffffffffffffffffffff1673ffffffffffffffffffffffffffffffffffffffff161415611487576040517f08c379a00000000000000000000000000000000000000000000000000000000081526004018080602001828103825260198152602001807f54686973207573657220646f6573206e6f74206578697374730000000000000081525060200191505060405180910390fd5b600c826040518082805190602001908083835b602083106114bd578051825260208201915060208101905060208303925061149a565b6001836020036101000a038019825116818451168082178552505050505050905001915050908152602001604051809103902060009054906101000a900473ffffffffffffffffffffffffffffffffffffffff169050919050565b600c846040518082805190602001908083835b6020831061154e578051825260208201915060208101905060208303925061152b565b6001836020036101000a038019825116818451168082178552505050505050905001915050908152602001604051809103902060009054906101000a900473ffffffffffffffffffffffffffffffffffffffff1673ffffffffffffffffffffffffffffffffffffffff163373ffffffffffffffffffffffffffffffffffffffff1614611625576040517f08c379a000000000000000000000000000000000000000000000000000000000815260040180806020018281038252602881526020018061545c6028913960400191505060405180910390fd5b8034101561167e576040517f08c379a000000000000000000000000000000000000000000000000000000000815260040180806020018281038252603081526020018061530c6030913960400191505060405180910390fd5b600d6040518060c0016040528086815260200185815260200184815260200183815260200160001515815260200160001515815250908060018154018082558091505060019003906000526020600020906005020160009091909190915060008201518160000190805190602001906116f8929190615066565b506020820151816001019080519060200190611715929190615066565b506040820151816002019080519060200190611732929190615066565b506060820151816003015560808201518160040160006101000a81548160ff02191690831515021790555060a08201518160040160016101000a81548160ff021916908315150217905550505060006001600d805490500390507fe4ee73f89832e5ff7620d747c1a0f4e9d23831e61f79be2dbbd54b5a91e3ab71818686868660405180868152602001806020018060200180602001858152602001848103845288818151815260200191508051906020019080838360005b838110156118065780820151818401526020810190506117eb565b50505050905090810190601f1680156118335780820380516001836020036101000a031916815260200191505b50848103835287818151815260200191508051906020019080838360005b8381101561186c578082015181840152602081019050611851565b50505050905090810190601f1680156118995780820380516001836020036101000a031916815260200191505b50848103825286818151815260200191508051906020019080838360005b838110156118d25780820151818401526020810190506118b7565b50505050905090810190601f1680156118ff5780820380516001836020036101000a031916815260200191505b509850505050505050505060405180910390a15050505050565b61193483838360405180602001604052806000815250612afe565b505050565b60008061195083600261402390919063ffffffff16565b50905080915050919050565b600061198c826040518060600160405280602981526020016152c160299139600261404f9092919063ffffffff16565b9050919050565b606060098054600181600116156101000203166002900480601f016020809104026020016040519081016040528092919081815260200182805460018160011615610100020316600290048015611a2b5780601f10611a0057610100808354040283529160200191611a2b565b820191906000526020600020905b815481529060010190602001808311611a0e57829003601f168201915b5050505050905090565b60008073ffffffffffffffffffffffffffffffffffffffff168273ffffffffffffffffffffffffffffffffffffffff161415611abc576040517f08c379a000000000000000000000000000000000000000000000000000000000815260040180806020018281038252602a815260200180615297602a913960400191505060405180910390fd5b611b03600160008473ffffffffffffffffffffffffffffffffffffffff1673ffffffffffffffffffffffffffffffffffffffff16815260200190815260200160002061406e565b9050919050565b611b12613bfc565b73ffffffffffffffffffffffffffffffffffffffff16611b3061287c565b73ffffffffffffffffffffffffffffffffffffffff1614611bb9576040517f08c379a00000000000000000000000000000000000000000000000000000000081526004018080602001828103825260208152602001807f4f776e61626c653a2063616c6c6572206973206e6f7420746865206f776e657281525060200191505060405180910390fd5b600073ffffffffffffffffffffffffffffffffffffffff16600a60009054906101000a900473ffffffffffffffffffffffffffffffffffffffff1673ffffffffffffffffffffffffffffffffffffffff167f8be0079c531659141344cd1fd0a4f28419497f9722a3daafe3b4186f6b6457e060405160405180910390a36000600a60006101000a81548173ffffffffffffffffffffffffffffffffffffffff021916908373ffffffffffffffffffffffffffffffffffffffff160217905550565b611c82613bfc565b73ffffffffffffffffffffffffffffffffffffffff16611ca061287c565b73ffffffffffffffffffffffffffffffffffffffff1614611d29576040517f08c379a00000000000000000000000000000000000000000000000000000000081526004018080602001828103825260208152602001807f4f776e61626c653a2063616c6c6572206973206e6f7420746865206f776e657281525060200191505060405180910390fd5b600073ffffffffffffffffffffffffffffffffffffffff16600c836040518082805190602001908083835b60208310611d775780518252602082019150602081019050602083039250611d54565b6001836020036101000a038019825116818451168082178552505050505050905001915050908152602001604051809103902060009054906101000a900473ffffffffffffffffffffffffffffffffffffffff1673ffffffffffffffffffffffffffffffffffffffff1614611e37576040517f08c379a00000000000000000000000000000000000000000000000000000000081526004018080602001828103825260238152602001806154086023913960400191505060405180910390fd5b80600c836040518082805190602001908083835b60208310611e6e5780518252602082019150602081019050602083039250611e4b565b6001836020036101000a038019825116818451168082178552505050505050905001915050908152602001604051809103902060006101000a81548173ffffffffffffffffffffffffffffffffffffffff021916908373ffffffffffffffffffffffffffffffffffffffff1602179055507fbd24583d1f34ebaec5bacc0cb3d29df1ac91e8fc13018ebc80e3f29e3d49ce16828260405180806020018373ffffffffffffffffffffffffffffffffffffffff168152602001828103825284818151815260200191508051906020019080838360005b83811015611f5e578082015181840152602081019050611f43565b50505050905090810190601f168015611f8b5780820380516001836020036101000a031916815260200191505b50935050505060405180910390a15050565b80600d805490508110612018576040517f08c379a00000000000000000000000000000000000000000000000000000000081526004018080602001828103825260148152602001807f4f6666657220646f6573206e6f7420657869737400000000000000000000000081525060200191505060405180910390fd5b816120216150e6565b600d828154811061202e57fe5b90600052602060002090600502016040518060c0016040529081600082018054600181600116156101000203166002900480601f0160208091040260200160405190810160405280929190818152602001828054600181600116156101000203166002900480156120e05780601f106120b5576101008083540402835291602001916120e0565b820191906000526020600020905b8154815290600101906020018083116120c357829003601f168201915b50505050508152602001600182018054600181600116156101000203166002900480601f0160208091040260200160405190810160405280929190818152602001828054600181600116156101000203166002900480156121825780601f1061215757610100808354040283529160200191612182565b820191906000526020600020905b81548152906001019060200180831161216557829003601f168201915b50505050508152602001600282018054600181600116156101000203166002900480601f0160208091040260200160405190810160405280929190818152602001828054600181600116156101000203166002900480156122245780601f106121f957610100808354040283529160200191612224565b820191906000526020600020905b81548152906001019060200180831161220757829003601f168201915b50505050508152602001600382015481526020016004820160009054906101000a900460ff161515151581526020016004820160019054906101000a900460ff16151515158152505090506000600c82602001516040518082805190602001908083835b602083106122ab5780518252602082019150602081019050602083039250612288565b6001836020036101000a038019825116818451168082178552505050505050905001915050908152602001604051809103902060009054906101000a900473ffffffffffffffffffffffffffffffffffffffff1690508073ffffffffffffffffffffffffffffffffffffffff163373ffffffffffffffffffffffffffffffffffffffff1614612385576040517f08c379a00000000000000000000000000000000000000000000000000000000081526004018080602001828103825260278152602001806153916027913960400191505060405180910390fd5b8461238e6150e6565b600d828154811061239b57fe5b90600052602060002090600502016040518060c0016040529081600082018054600181600116156101000203166002900480601f01602080910402602001604051908101604052809291908181526020018280546001816001161561010002031660029004801561244d5780601f106124225761010080835404028352916020019161244d565b820191906000526020600020905b81548152906001019060200180831161243057829003601f168201915b50505050508152602001600182018054600181600116156101000203166002900480601f0160208091040260200160405190810160405280929190818152602001828054600181600116156101000203166002900480156124ef5780601f106124c4576101008083540402835291602001916124ef565b820191906000526020600020905b8154815290600101906020018083116124d257829003601f168201915b50505050508152602001600282018054600181600116156101000203166002900480601f0160208091040260200160405190810160405280929190818152602001828054600181600116156101000203166002900480156125915780601f1061256657610100808354040283529160200191612591565b820191906000526020600020905b81548152906001019060200180831161257457829003601f168201915b50505050508152602001600382015481526020016004820160009054906101000a900460ff161515151581526020016004820160019054906101000a900460ff16151515158152505090508060a0015115612654576040517f08c379a000000000000000000000000000000000000000000000000000000000815260040180806020018281038252601b8152602001807f4f6666657220697320616c726561647920636f6d706c657465642e000000000081525060200191505060405180910390fd5b80608001516126cb576040517f08c379a00000000000000000000000000000000000000000000000000000000081526004018080602001828103825260168152602001807f4f66666572206973206e6f742076657269666965642e0000000000000000000081525060200191505060405180910390fd5b6000600d88815481106126da57fe5b906000526020600020906005020190506000600c82600101604051808280546001816001161561010002031660029004801561274d5780601f1061272b57610100808354040283529182019161274d565b820191906000526020600020905b815481529060010190602001808311612739575b5050915050908152602001604051809103902060009054906101000a900473ffffffffffffffffffffffffffffffffffffffff169050600060608273ffffffffffffffffffffffffffffffffffffffff16846003015460405180600001905060006040518083038185875af1925050503d80600081146127e9576040519150601f19603f3d011682016040523d82523d6000602084013e6127ee565b606091505b509150915081612866576040517f08c379a00000000000000000000000000000000000000000000000000000000081526004018080602001828103825260148152602001807f4661696c656420746f2073656e6420657468657200000000000000000000000081525060200191505060405180910390fd5b61286f8b614083565b5050505050505050505050565b6000600a60009054906101000a900473ffffffffffffffffffffffffffffffffffffffff16905090565b606060078054600181600116156101000203166002900480601f01602080910402602001604051908101604052809291908181526020018280546001816001161561010002031660029004801561293e5780601f106129135761010080835404028352916020019161293e565b820191906000526020600020905b81548152906001019060200180831161292157829003601f168201915b5050505050905090565b612950613bfc565b73ffffffffffffffffffffffffffffffffffffffff168273ffffffffffffffffffffffffffffffffffffffff1614156129f1576040517f08c379a00000000000000000000000000000000000000000000000000000000081526004018080602001828103825260198152602001807f4552433732313a20617070726f766520746f2063616c6c65720000000000000081525060200191505060405180910390fd5b80600560006129fe613bfc565b73ffffffffffffffffffffffffffffffffffffffff1673ffffffffffffffffffffffffffffffffffffffff16815260200190815260200160002060008473ffffffffffffffffffffffffffffffffffffffff1673ffffffffffffffffffffffffffffffffffffffff16815260200190815260200160002060006101000a81548160ff0219169083151502179055508173ffffffffffffffffffffffffffffffffffffffff16612aab613bfc565b73ffffffffffffffffffffffffffffffffffffffff167f17307eab39ab6107e8899845ad3d59bd9653f200f220920489ca2b5937696c318360405180821515815260200191505060405180910390a35050565b612b0f612b09613bfc565b83613cd2565b612b64576040517f08c379a000000000000000000000000000000000000000000000000000000000815260040180806020018281038252603181526020018061542b6031913960400191505060405180910390fd5b612b70848484846144be565b50505050565b80600d805490508110612bf1576040517f08c379a00000000000000000000000000000000000000000000000000000000081526004018080602001828103825260148152602001807f4f6666657220646f6573206e6f7420657869737400000000000000000000000081525060200191505060405180910390fd5b81612bfa6150e6565b600d8281548110612c0757fe5b90600052602060002090600502016040518060c0016040529081600082018054600181600116156101000203166002900480601f016020809104026020016040519081016040528092919081815260200182805460018160011615610100020316600290048015612cb95780601f10612c8e57610100808354040283529160200191612cb9565b820191906000526020600020905b815481529060010190602001808311612c9c57829003601f168201915b50505050508152602001600182018054600181600116156101000203166002900480601f016020809104026020016040519081016040528092919081815260200182805460018160011615610100020316600290048015612d5b5780601f10612d3057610100808354040283529160200191612d5b565b820191906000526020600020905b815481529060010190602001808311612d3e57829003601f168201915b50505050508152602001600282018054600181600116156101000203166002900480601f016020809104026020016040519081016040528092919081815260200182805460018160011615610100020316600290048015612dfd5780601f10612dd257610100808354040283529160200191612dfd565b820191906000526020600020905b815481529060010190602001808311612de057829003601f168201915b50505050508152602001600382015481526020016004820160009054906101000a900460ff161515151581526020016004820160019054906101000a900460ff16151515158152505090508060a0015115612ec0576040517f08c379a000000000000000000000000000000000000000000000000000000000815260040180806020018281038252601b8152602001807f4f6666657220697320616c726561647920636f6d706c657465642e000000000081525060200191505060405180910390fd5b8060800151612f37576040517f08c379a00000000000000000000000000000000000000000000000000000000081526004018080602001828103825260168152602001807f4f66666572206973206e6f742076657269666965642e0000000000000000000081525060200191505060405180910390fd5b612f3f6150e6565b600d8581548110612f4c57fe5b90600052602060002090600502016040518060c0016040529081600082018054600181600116156101000203166002900480601f016020809104026020016040519081016040528092919081815260200182805460018160011615610100020316600290048015612ffe5780601f10612fd357610100808354040283529160200191612ffe565b820191906000526020600020905b815481529060010190602001808311612fe157829003601f168201915b50505050508152602001600182018054600181600116156101000203166002900480601f0160208091040260200160405190810160405280929190818152602001828054600181600116156101000203166002900480156130a05780601f10613075576101008083540402835291602001916130a0565b820191906000526020600020905b81548152906001019060200180831161308357829003601f168201915b50505050508152602001600282018054600181600116156101000203166002900480601f0160208091040260200160405190810160405280929190818152602001828054600181600116156101000203166002900480156131425780601f1061311757610100808354040283529160200191613142565b820191906000526020600020905b81548152906001019060200180831161312557829003601f168201915b50505050508152602001600382015481526020016004820160009054906101000a900460ff161515151581526020016004820160019054906101000a900460ff16151515158152505090506000600c82602001516040518082805190602001908083835b602083106131c957805182526020820191506020810190506020830392506131a6565b6001836020036101000a038019825116818451168082178552505050505050905001915050908152602001604051809103902060009054906101000a900473ffffffffffffffffffffffffffffffffffffffff1690506000600c83600001516040518082805190602001908083835b6020831061325b5780518252602082019150602081019050602083039250613238565b6001836020036101000a038019825116818451168082178552505050505050905001915050908152602001604051809103902060009054906101000a900473ffffffffffffffffffffffffffffffffffffffff1690508173ffffffffffffffffffffffffffffffffffffffff163373ffffffffffffffffffffffffffffffffffffffff16148061331657508073ffffffffffffffffffffffffffffffffffffffff163373ffffffffffffffffffffffffffffffffffffffff16145b61336b576040517f08c379a00000000000000000000000000000000000000000000000000000000081526004018080602001828103825260318152602001806151926031913960400191505060405180910390fd5b600060608273ffffffffffffffffffffffffffffffffffffffff16856060015160405180600001905060006040518083038185875af1925050503d80600081146133d1576040519150601f19603f3d011682016040523d82523d6000602084013e6133d6565b606091505b50915091508161344e576040517f08c379a00000000000000000000000000000000000000000000000000000000081526004018080602001828103825260168152602001807f4661696c656420746f20726566756e642065746865720000000000000000000081525060200191505060405180910390fd5b61345789614083565b505050505050505050565b606061346d82613bdf565b6134c2576040517f08c379a000000000000000000000000000000000000000000000000000000000815260040180806020018281038252602f8152602001806153b8602f913960400191505060405180910390fd5b6060600860008481526020019081526020016000208054600181600116156101000203166002900480601f01602080910402602001604051908101604052809291908181526020018280546001816001161561010002031660029004801561356b5780601f106135405761010080835404028352916020019161356b565b820191906000526020600020905b81548152906001019060200180831161354e57829003601f168201915b50505050509050606061357c611993565b905060008151141561359257819250505061372e565b6000825111156136635780826040516020018083805190602001908083835b602083106135d457805182526020820191506020810190506020830392506135b1565b6001836020036101000a03801982511681845116808217855250505050505090500182805190602001908083835b602083106136255780518252602082019150602081019050602083039250613602565b6001836020036101000a038019825116818451168082178552505050505050905001925050506040516020818303038152906040529250505061372e565b8061366d85614530565b6040516020018083805190602001908083835b602083106136a35780518252602082019150602081019050602083039250613680565b6001836020036101000a03801982511681845116808217855250505050505090500182805190602001908083835b602083106136f457805182526020820191506020810190506020830392506136d1565b6001836020036101000a03801982511681845116808217855250505050505090500192505050604051602081830303815290604052925050505b919050565b6000600560008473ffffffffffffffffffffffffffffffffffffffff1673ffffffffffffffffffffffffffffffffffffffff16815260200190815260200160002060008373ffffffffffffffffffffffffffffffffffffffff1673ffffffffffffffffffffffffffffffffffffffff16815260200190815260200160002060009054906101000a900460ff16905092915050565b80600d805490508110613842576040517f08c379a00000000000000000000000000000000000000000000000000000000081526004018080602001828103825260148152602001807f4f6666657220646f6573206e6f7420657869737400000000000000000000000081525060200191505060405180910390fd5b61384a613bfc565b73ffffffffffffffffffffffffffffffffffffffff1661386861287c565b73ffffffffffffffffffffffffffffffffffffffff16146138f1576040517f08c379a00000000000000000000000000000000000000000000000000000000081526004018080602001828103825260208152602001807f4f776e61626c653a2063616c6c6572206973206e6f7420746865206f776e657281525060200191505060405180910390fd5b600082101580156139065750600d8054905082105b613978576040517f08c379a00000000000000000000000000000000000000000000000000000000081526004018080602001828103825260158152602001807f4f6666657220646f6573206e6f7420657869737473000000000000000000000081525060200191505060405180910390fd5b6001600d838154811061398757fe5b906000526020600020906005020160040160006101000a81548160ff0219169083151502179055507f4e8eede0f2478306c407ef4ad15f6916989e920e47ef176157e39c991f747b0c826040518082815260200191505060405180910390a15050565b6139f2613bfc565b73ffffffffffffffffffffffffffffffffffffffff16613a1061287c565b73ffffffffffffffffffffffffffffffffffffffff1614613a99576040517f08c379a00000000000000000000000000000000000000000000000000000000081526004018080602001828103825260208152602001807f4f776e61626c653a2063616c6c6572206973206e6f7420746865206f776e657281525060200191505060405180910390fd5b600073ffffffffffffffffffffffffffffffffffffffff168173ffffffffffffffffffffffffffffffffffffffff161415613b1f576040517f08c379a00000000000000000000000000000000000000000000000000000000081526004018080602001828103825260268152602001806151c36026913960400191505060405180910390fd5b8073ffffffffffffffffffffffffffffffffffffffff16600a60009054906101000a900473ffffffffffffffffffffffffffffffffffffffff1673ffffffffffffffffffffffffffffffffffffffff167f8be0079c531659141344cd1fd0a4f28419497f9722a3daafe3b4186f6b6457e060405160405180910390a380600a60006101000a81548173ffffffffffffffffffffffffffffffffffffffff021916908373ffffffffffffffffffffffffffffffffffffffff16021790555050565b6000613bf582600261467790919063ffffffff16565b9050919050565b600033905090565b816004600083815260200190815260200160002060006101000a81548173ffffffffffffffffffffffffffffffffffffffff021916908373ffffffffffffffffffffffffffffffffffffffff160217905550808273ffffffffffffffffffffffffffffffffffffffff16613c778361195c565b73ffffffffffffffffffffffffffffffffffffffff167f8c5be1e5ebec7d5bd14f71427d1e84f3dd0314c0f7b2291e5b200ac8c7c3b92560405160405180910390a45050565b6000613ccb82600001614691565b9050919050565b6000613cdd82613bdf565b613d32576040517f08c379a000000000000000000000000000000000000000000000000000000000815260040180806020018281038252602c815260200180615233602c913960400191505060405180910390fd5b6000613d3d8361195c565b90508073ffffffffffffffffffffffffffffffffffffffff168473ffffffffffffffffffffffffffffffffffffffff161480613dac57508373ffffffffffffffffffffffffffffffffffffffff16613d9484610fe9565b73ffffffffffffffffffffffffffffffffffffffff16145b80613dbd5750613dbc8185613733565b5b91505092915050565b8273ffffffffffffffffffffffffffffffffffffffff16613de68261195c565b73ffffffffffffffffffffffffffffffffffffffff1614613e52576040517f08c379a00000000000000000000000000000000000000000000000000000000081526004018080602001828103825260298152602001806153686029913960400191505060405180910390fd5b600073ffffffffffffffffffffffffffffffffffffffff168273ffffffffffffffffffffffffffffffffffffffff161415613ed8576040517f08c379a00000000000000000000000000000000000000000000000000000000081526004018080602001828103825260248152602001806151e96024913960400191505060405180910390fd5b613ee38383836146a2565b613eee600082613c04565b613f3f81600160008673ffffffffffffffffffffffffffffffffffffffff1673ffffffffffffffffffffffffffffffffffffffff1681526020019081526020016000206146a790919063ffffffff16565b50613f9181600160008573ffffffffffffffffffffffffffffffffffffffff1673ffffffffffffffffffffffffffffffffffffffff1681526020019081526020016000206146c190919063ffffffff16565b50613fa8818360026146db9092919063ffffffff16565b50808273ffffffffffffffffffffffffffffffffffffffff168473ffffffffffffffffffffffffffffffffffffffff167fddf252ad1be2c89b69c2b068fc378daa952ba7f163c4a11628f55a4df523b3ef60405160405180910390a4505050565b60006140188360000183614710565b60001c905092915050565b6000806000806140368660000186614793565b915091508160001c8160001c9350935050509250929050565b6000614062846000018460001b8461482c565b60001c90509392505050565b600061407c82600001614922565b9050919050565b80600d8054905081106140fe576040517f08c379a00000000000000000000000000000000000000000000000000000000081526004018080602001828103825260148152602001807f4f6666657220646f6573206e6f7420657869737400000000000000000000000081525060200191505060405180910390fd5b816141076150e6565b600d828154811061411457fe5b90600052602060002090600502016040518060c0016040529081600082018054600181600116156101000203166002900480601f0160208091040260200160405190810160405280929190818152602001828054600181600116156101000203166002900480156141c65780601f1061419b576101008083540402835291602001916141c6565b820191906000526020600020905b8154815290600101906020018083116141a957829003601f168201915b50505050508152602001600182018054600181600116156101000203166002900480601f0160208091040260200160405190810160405280929190818152602001828054600181600116156101000203166002900480156142685780601f1061423d57610100808354040283529160200191614268565b820191906000526020600020905b81548152906001019060200180831161424b57829003601f168201915b50505050508152602001600282018054600181600116156101000203166002900480601f01602080910402602001604051908101604052809291908181526020018280546001816001161561010002031660029004801561430a5780601f106142df5761010080835404028352916020019161430a565b820191906000526020600020905b8154815290600101906020018083116142ed57829003601f168201915b50505050508152602001600382015481526020016004820160009054906101000a900460ff161515151581526020016004820160019054906101000a900460ff16151515158152505090508060a00151156143cd576040517f08c379a000000000000000000000000000000000000000000000000000000000815260040180806020018281038252601b8152602001807f4f6666657220697320616c726561647920636f6d706c657465642e000000000081525060200191505060405180910390fd5b8060800151614444576040517f08c379a00000000000000000000000000000000000000000000000000000000081526004018080602001828103825260168152602001807f4f66666572206973206e6f742076657269666965642e0000000000000000000081525060200191505060405180910390fd5b6000600d858154811061445357fe5b9060005260206000209060050201905060018160040160016101000a81548160ff0219169083151502179055507f422b793202eb794642b1017af34abd55c83b22253a8323bfb35132b8cf8d5cc3856040518082815260200191505060405180910390a15050505050565b6144c9848484613dc6565b6144d584848484614933565b61452a576040517f08c379a00000000000000000000000000000000000000000000000000000000081526004018080602001828103825260328152602001806151606032913960400191505060405180910390fd5b50505050565b60606000821415614578576040518060400160405280600181526020017f30000000000000000000000000000000000000000000000000000000000000008152509050614672565b600082905060005b600082146145a2578080600101915050600a828161459a57fe5b049150614580565b60608167ffffffffffffffff811180156145bb57600080fd5b506040519080825280601f01601f1916602001820160405280156145ee5781602001600182028036833780820191505090505b50905060006001830390508593505b6000841461466a57600a848161460f57fe5b0660300160f81b8282806001900393508151811061462957fe5b60200101907effffffffffffffffffffffffffffffffffffffffffffffffffffffffffffff1916908160001a905350600a848161466257fe5b0493506145fd565b819450505050505b919050565b6000614689836000018360001b614b4c565b905092915050565b600081600001805490509050919050565b505050565b60006146b9836000018360001b614b6f565b905092915050565b60006146d3836000018360001b614c57565b905092915050565b6000614707846000018460001b8473ffffffffffffffffffffffffffffffffffffffff1660001b614cc7565b90509392505050565b600081836000018054905011614771576040517f08c379a000000000000000000000000000000000000000000000000000000000815260040180806020018281038252602281526020018061513e6022913960400191505060405180910390fd5b82600001828154811061478057fe5b9060005260206000200154905092915050565b600080828460000180549050116147f5576040517f08c379a00000000000000000000000000000000000000000000000000000000081526004018080602001828103825260228152602001806152ea6022913960400191505060405180910390fd5b600084600001848154811061480657fe5b906000526020600020906002020190508060000154816001015492509250509250929050565b600080846001016000858152602001908152602001600020549050600081141583906148f3576040517f08c379a00000000000000000000000000000000000000000000000000000000081526004018080602001828103825283818151815260200191508051906020019080838360005b838110156148b857808201518184015260208101905061489d565b50505050905090810190601f1680156148e55780820380516001836020036101000a031916815260200191505b509250505060405180910390fd5b5084600001600182038154811061490657fe5b9060005260206000209060020201600101549150509392505050565b600081600001805490509050919050565b60006149548473ffffffffffffffffffffffffffffffffffffffff16614da3565b6149615760019050614b44565b6060614acb63150b7a0260e01b614976613bfc565b888787604051602401808573ffffffffffffffffffffffffffffffffffffffff1681526020018473ffffffffffffffffffffffffffffffffffffffff16815260200183815260200180602001828103825283818151815260200191508051906020019080838360005b838110156149fa5780820151818401526020810190506149df565b50505050905090810190601f168015614a275780820380516001836020036101000a031916815260200191505b5095505050505050604051602081830303815290604052907bffffffffffffffffffffffffffffffffffffffffffffffffffffffff19166020820180517bffffffffffffffffffffffffffffffffffffffffffffffffffffffff8381831617835250505050604051806060016040528060328152602001615160603291398773ffffffffffffffffffffffffffffffffffffffff16614db69092919063ffffffff16565b90506000818060200190516020811015614ae457600080fd5b8101908080519060200190929190505050905063150b7a0260e01b7bffffffffffffffffffffffffffffffffffffffffffffffffffffffff1916817bffffffffffffffffffffffffffffffffffffffffffffffffffffffff191614925050505b949350505050565b600080836001016000848152602001908152602001600020541415905092915050565b60008083600101600084815260200190815260200160002054905060008114614c4b5760006001820390506000600186600001805490500390506000866000018281548110614bba57fe5b9060005260206000200154905080876000018481548110614bd757fe5b9060005260206000200181905550600183018760010160008381526020019081526020016000208190555086600001805480614c0f57fe5b60019003818190600052602060002001600090559055866001016000878152602001908152602001600020600090556001945050505050614c51565b60009150505b92915050565b6000614c638383614dce565b614cbc578260000182908060018154018082558091505060019003906000526020600020016000909190919091505582600001805490508360010160008481526020019081526020016000208190555060019050614cc1565b600090505b92915050565b6000808460010160008581526020019081526020016000205490506000811415614d6e57846000016040518060400160405280868152602001858152509080600181540180825580915050600190039060005260206000209060020201600090919091909150600082015181600001556020820151816001015550508460000180549050856001016000868152602001908152602001600020819055506001915050614d9c565b82856000016001830381548110614d8157fe5b90600052602060002090600202016001018190555060009150505b9392505050565b600080823b905060008111915050919050565b6060614dc58484600085614df1565b90509392505050565b600080836001016000848152602001908152602001600020541415905092915050565b606082471015614e4c576040517f08c379a000000000000000000000000000000000000000000000000000000000815260040180806020018281038252602681526020018061520d6026913960400191505060405180910390fd5b614e5585614da3565b614ec7576040517f08c379a000000000000000000000000000000000000000000000000000000000815260040180806020018281038252601d8152602001807f416464726573733a2063616c6c20746f206e6f6e2d636f6e747261637400000081525060200191505060405180910390fd5b600060608673ffffffffffffffffffffffffffffffffffffffff1685876040518082805190602001908083835b60208310614f175780518252602082019150602081019050602083039250614ef4565b6001836020036101000a03801982511681845116808217855250505050505090500191505060006040518083038185875af1925050503d8060008114614f79576040519150601f19603f3d011682016040523d82523d6000602084013e614f7e565b606091505b5091509150614f8e828286614f9a565b92505050949350505050565b60608315614faa5782905061505f565b600083511115614fbd5782518084602001fd5b816040517f08c379a00000000000000000000000000000000000000000000000000000000081526004018080602001828103825283818151815260200191508051906020019080838360005b83811015615024578082015181840152602081019050615009565b50505050905090810190601f1680156150515780820380516001836020036101000a031916815260200191505b509250505060405180910390fd5b9392505050565b828054600181600116156101000203166002900490600052602060002090601f016020900481019282601f106150a757805160ff19168380011785556150d5565b828001600101855582156150d5579182015b828111156150d45782518255916020019190600101906150b9565b5b5090506150e29190615120565b5090565b6040518060c00160405280606081526020016060815260200160608152602001600081526020016000151581526020016000151581525090565b5b80821115615139576000816000905550600101615121565b509056fe456e756d657261626c655365743a20696e646578206f7574206f6620626f756e64734552433732313a207472616e7366657220746f206e6f6e20455243373231526563656976657220696d706c656d656e746572596f7520617265206e6f7420746865206275796572206f72207468652073656c6c6572206f662074686973206f666665724f776e61626c653a206e6577206f776e657220697320746865207a65726f20616464726573734552433732313a207472616e7366657220746f20746865207a65726f2061646472657373416464726573733a20696e73756666696369656e742062616c616e636520666f722063616c6c4552433732313a206f70657261746f7220717565727920666f72206e6f6e6578697374656e7420746f6b656e4552433732313a20617070726f76652063616c6c6572206973206e6f74206f776e6572206e6f7220617070726f76656420666f7220616c6c4552433732313a2062616c616e636520717565727920666f7220746865207a65726f20616464726573734552433732313a206f776e657220717565727920666f72206e6f6e6578697374656e7420746f6b656e456e756d657261626c654d61703a20696e646578206f7574206f6620626f756e6473496e73756666696369656e742076616c75652c20706c65617365206d61746368207468652062696420616d6f756e742e4552433732313a20617070726f76656420717565727920666f72206e6f6e6578697374656e7420746f6b656e4552433732313a207472616e73666572206f6620746f6b656e2074686174206973206e6f74206f776e4f6e6c79207468652073656c6c65722063616e2063616c6c20746869732066756e6374696f6e2e4552433732314d657461646174613a2055524920717565727920666f72206e6f6e6578697374656e7420746f6b656e4552433732313a20617070726f76616c20746f2063757272656e74206f776e6572557365726e616d6520616c726561647920697320616c7265616479206c696e6b6564214552433732313a207472616e736665722063616c6c6572206973206e6f74206f776e6572206e6f7220617070726f766564596f752063616e206f6e6c7920637265617465206f66666572732066726f6d20796f757273656c66a26469706673582212204816c113e203e5646c6e70f9477730d397fa617528cfd0c771b505197f92ed1b64736f6c63430007030033",
  "linkReferences": {},
  "deployedLinkReferences": {}
}