{
  "_format": "hh-sol-artifact-1",
  "contractName": "TreasureTokenFactory",
  "sourceName": "contracts/TreasureTokenFactory.sol",
  "abi": [
    {
      "inputs": [],
      "stateMutability": "nonpayable",
      "type": "constructor"
    },
    {
      "anonymous": false,
      "inputs": [
        {
          "indexed": true,
          "internalType": "address",
          "name": "owner",
          "type": "address"
        },
        {
          "indexed": true,
          "internalType": "address",
          "name": "approved",
          "type": "address"
        },
        {
          "indexed": true,
          "internalType": "uint256",
          "name": "tokenId",
          "type": "uint256"
        }
      ],
      "name": "Approval",
      "type": "event"
    },
    {
      "anonymous": false,
      "inputs": [
        {
          "indexed": true,
          "internalType": "address",
          "name": "owner",
          "type": "address"
        },
        {
          "indexed": true,
          "internalType": "address",
          "name": "operator",
          "type": "address"
        },
        {
          "indexed": false,
          "internalType": "bool",
          "name": "approved",
          "type": "bool"
        }
      ],
      "name": "ApprovalForAll",
      "type": "event"
    },
    {
      "anonymous": false,
      "inputs": [
        {
          "indexed": false,
          "internalType": "uint256",
          "name": "offerId",
          "type": "uint256"
        }
      ],
      "name": "OfferCompleted",
      "type": "event"
    },
    {
      "anonymous": false,
      "inputs": [
        {
          "indexed": false,
          "internalType": "uint256",
          "name": "offerId",
          "type": "uint256"
        },
        {
          "indexed": false,
          "internalType": "string",
          "name": "buyerId",
          "type": "string"
        },
        {
          "indexed": false,
          "internalType": "string",
          "name": "postId",
          "type": "string"
        },
        {
          "indexed": false,
          "internalType": "uint256",
          "name": "bidAmount",
          "type": "uint256"
        }
      ],
      "name": "OfferCreated",
      "type": "event"
    },
    {
      "anonymous": false,
      "inputs": [
        {
          "indexed": false,
          "internalType": "uint256",
          "name": "offerId",
          "type": "uint256"
        },
        {
          "indexed": false,
          "internalType": "string",
          "name": "tokenUri",
          "type": "string"
        },
        {
          "indexed": false,
          "internalType": "string",
          "name": "sellerid",
          "type": "string"
        }
      ],
      "name": "OfferVerified",
      "type": "event"
    },
    {
      "anonymous": false,
      "inputs": [
        {
          "indexed": true,
          "internalType": "address",
          "name": "previousOwner",
          "type": "address"
        },
        {
          "indexed": true,
          "internalType": "address",
          "name": "newOwner",
          "type": "address"
        }
      ],
      "name": "OwnershipTransferred",
      "type": "event"
    },
    {
      "anonymous": false,
      "inputs": [
        {
          "indexed": false,
          "internalType": "uint256",
          "name": "tokenId",
          "type": "uint256"
        },
        {
          "indexed": false,
          "internalType": "string",
          "name": "ownerId",
          "type": "string"
        }
      ],
      "name": "TokenCreated",
      "type": "event"
    },
    {
      "anonymous": false,
      "inputs": [
        {
          "indexed": false,
          "internalType": "uint256",
          "name": "tokenId",
          "type": "uint256"
        },
        {
          "indexed": false,
          "internalType": "string",
          "name": "ownerId",
          "type": "string"
        }
      ],
      "name": "TokenOwnerChanged",
      "type": "event"
    },
    {
      "anonymous": false,
      "inputs": [
        {
          "indexed": true,
          "internalType": "address",
          "name": "from",
          "type": "address"
        },
        {
          "indexed": true,
          "internalType": "address",
          "name": "to",
          "type": "address"
        },
        {
          "indexed": true,
          "internalType": "uint256",
          "name": "tokenId",
          "type": "uint256"
        }
      ],
      "name": "Transfer",
      "type": "event"
    },
    {
      "anonymous": false,
      "inputs": [
        {
          "indexed": false,
          "internalType": "string",
          "name": "userId",
          "type": "string"
        },
        {
          "indexed": false,
          "internalType": "address",
          "name": "userAddress",
          "type": "address"
        }
      ],
      "name": "UserLinked",
      "type": "event"
    },
    {
      "inputs": [
        {
          "internalType": "uint256",
          "name": "_offerId",
          "type": "uint256"
        }
      ],
      "name": "accept",
      "outputs": [],
      "stateMutability": "nonpayable",
      "type": "function"
    },
    {
      "inputs": [
        {
          "internalType": "address",
          "name": "to",
          "type": "address"
        },
        {
          "internalType": "uint256",
          "name": "tokenId",
          "type": "uint256"
        }
      ],
      "name": "approve",
      "outputs": [],
      "stateMutability": "nonpayable",
      "type": "function"
    },
    {
      "inputs": [
        {
          "internalType": "address",
          "name": "owner",
          "type": "address"
        }
      ],
      "name": "balanceOf",
      "outputs": [
        {
          "internalType": "uint256",
          "name": "",
          "type": "uint256"
        }
      ],
      "stateMutability": "view",
      "type": "function"
    },
    {
      "inputs": [],
      "name": "baseURI",
      "outputs": [
        {
          "internalType": "string",
          "name": "",
          "type": "string"
        }
      ],
      "stateMutability": "view",
      "type": "function"
    },
    {
      "inputs": [
        {
          "internalType": "string",
          "name": "_buyerId",
          "type": "string"
        },
        {
          "internalType": "string",
          "name": "_postId",
          "type": "string"
        },
        {
          "internalType": "uint256",
          "name": "_bidAmount",
          "type": "uint256"
        }
      ],
      "name": "createOffer",
      "outputs": [],
      "stateMutability": "payable",
      "type": "function"
    },
    {
      "inputs": [
        {
          "internalType": "string",
          "name": "_userId",
          "type": "string"
        }
      ],
      "name": "getAddress",
      "outputs": [
        {
          "internalType": "address",
          "name": "",
          "type": "address"
        }
      ],
      "stateMutability": "view",
      "type": "function"
    },
    {
      "inputs": [
        {
          "internalType": "uint256",
          "name": "tokenId",
          "type": "uint256"
        }
      ],
      "name": "getApproved",
      "outputs": [
        {
          "internalType": "address",
          "name": "",
          "type": "address"
        }
      ],
      "stateMutability": "view",
      "type": "function"
    },
    {
      "inputs": [
        {
          "internalType": "uint256",
          "name": "_tokenId",
          "type": "uint256"
        }
      ],
      "name": "getOwner",
      "outputs": [
        {
          "internalType": "string",
          "name": "",
          "type": "string"
        }
      ],
      "stateMutability": "view",
      "type": "function"
    },
    {
      "inputs": [
        {
          "internalType": "string",
          "name": "_postId",
          "type": "string"
        }
      ],
      "name": "getTokenUri",
      "outputs": [
        {
          "internalType": "string",
          "name": "",
          "type": "string"
        }
      ],
      "stateMutability": "view",
      "type": "function"
    },
    {
      "inputs": [
        {
          "internalType": "address",
          "name": "owner",
          "type": "address"
        },
        {
          "internalType": "address",
          "name": "operator",
          "type": "address"
        }
      ],
      "name": "isApprovedForAll",
      "outputs": [
        {
          "internalType": "bool",
          "name": "",
          "type": "bool"
        }
      ],
      "stateMutability": "view",
      "type": "function"
    },
    {
      "inputs": [
        {
          "internalType": "string",
          "name": "_userId",
          "type": "string"
        },
        {
          "internalType": "address payable",
          "name": "_userAddress",
          "type": "address"
        }
      ],
      "name": "mapUser",
      "outputs": [],
      "stateMutability": "nonpayable",
      "type": "function"
    },
    {
      "inputs": [],
      "name": "name",
      "outputs": [
        {
          "internalType": "string",
          "name": "",
          "type": "string"
        }
      ],
      "stateMutability": "view",
      "type": "function"
    },
    {
      "inputs": [],
      "name": "owner",
      "outputs": [
        {
          "internalType": "address",
          "name": "",
          "type": "address"
        }
      ],
      "stateMutability": "view",
      "type": "function"
    },
    {
      "inputs": [
        {
          "internalType": "uint256",
          "name": "tokenId",
          "type": "uint256"
        }
      ],
      "name": "ownerOf",
      "outputs": [
        {
          "internalType": "address",
          "name": "",
          "type": "address"
        }
      ],
      "stateMutability": "view",
      "type": "function"
    },
    {
      "inputs": [
        {
          "internalType": "uint256",
          "name": "_offerId",
          "type": "uint256"
        }
      ],
      "name": "reject",
      "outputs": [],
      "stateMutability": "nonpayable",
      "type": "function"
    },
    {
      "inputs": [],
      "name": "renounceOwnership",
      "outputs": [],
      "stateMutability": "nonpayable",
      "type": "function"
    },
    {
      "inputs": [
        {
          "internalType": "address",
          "name": "from",
          "type": "address"
        },
        {
          "internalType": "address",
          "name": "to",
          "type": "address"
        },
        {
          "internalType": "uint256",
          "name": "tokenId",
          "type": "uint256"
        }
      ],
      "name": "safeTransferFrom",
      "outputs": [],
      "stateMutability": "nonpayable",
      "type": "function"
    },
    {
      "inputs": [
        {
          "internalType": "address",
          "name": "from",
          "type": "address"
        },
        {
          "internalType": "address",
          "name": "to",
          "type": "address"
        },
        {
          "internalType": "uint256",
          "name": "tokenId",
          "type": "uint256"
        },
        {
          "internalType": "bytes",
          "name": "_data",
          "type": "bytes"
        }
      ],
      "name": "safeTransferFrom",
      "outputs": [],
      "stateMutability": "nonpayable",
      "type": "function"
    },
    {
      "inputs": [
        {
          "internalType": "address",
          "name": "operator",
          "type": "address"
        },
        {
          "internalType": "bool",
          "name": "approved",
          "type": "bool"
        }
      ],
      "name": "setApprovalForAll",
      "outputs": [],
      "stateMutability": "nonpayable",
      "type": "function"
    },
    {
      "inputs": [
        {
          "internalType": "bytes4",
          "name": "interfaceId",
          "type": "bytes4"
        }
      ],
      "name": "supportsInterface",
      "outputs": [
        {
          "internalType": "bool",
          "name": "",
          "type": "bool"
        }
      ],
      "stateMutability": "view",
      "type": "function"
    },
    {
      "inputs": [],
      "name": "symbol",
      "outputs": [
        {
          "internalType": "string",
          "name": "",
          "type": "string"
        }
      ],
      "stateMutability": "view",
      "type": "function"
    },
    {
      "inputs": [
        {
          "internalType": "uint256",
          "name": "index",
          "type": "uint256"
        }
      ],
      "name": "tokenByIndex",
      "outputs": [
        {
          "internalType": "uint256",
          "name": "",
          "type": "uint256"
        }
      ],
      "stateMutability": "view",
      "type": "function"
    },
    {
      "inputs": [
        {
          "internalType": "address",
          "name": "owner",
          "type": "address"
        },
        {
          "internalType": "uint256",
          "name": "index",
          "type": "uint256"
        }
      ],
      "name": "tokenOfOwnerByIndex",
      "outputs": [
        {
          "internalType": "uint256",
          "name": "",
          "type": "uint256"
        }
      ],
      "stateMutability": "view",
      "type": "function"
    },
    {
      "inputs": [
        {
          "internalType": "uint256",
          "name": "tokenId",
          "type": "uint256"
        }
      ],
      "name": "tokenURI",
      "outputs": [
        {
          "internalType": "string",
          "name": "",
          "type": "string"
        }
      ],
      "stateMutability": "view",
      "type": "function"
    },
    {
      "inputs": [],
      "name": "totalSupply",
      "outputs": [
        {
          "internalType": "uint256",
          "name": "",
          "type": "uint256"
        }
      ],
      "stateMutability": "view",
      "type": "function"
    },
    {
      "inputs": [
        {
          "internalType": "address",
          "name": "from",
          "type": "address"
        },
        {
          "internalType": "address",
          "name": "to",
          "type": "address"
        },
        {
          "internalType": "uint256",
          "name": "tokenId",
          "type": "uint256"
        }
      ],
      "name": "transferFrom",
      "outputs": [],
      "stateMutability": "nonpayable",
      "type": "function"
    },
    {
      "inputs": [
        {
          "internalType": "address",
          "name": "newOwner",
          "type": "address"
        }
      ],
      "name": "transferOwnership",
      "outputs": [],
      "stateMutability": "nonpayable",
      "type": "function"
    },
    {
      "inputs": [
        {
          "internalType": "uint256",
          "name": "_offerId",
          "type": "uint256"
        },
        {
          "internalType": "string",
          "name": "_tokenUri",
          "type": "string"
        },
        {
          "internalType": "string",
          "name": "_sellerId",
          "type": "string"
        }
      ],
      "name": "verifyOffer",
      "outputs": [],
      "stateMutability": "nonpayable",
      "type": "function"
    }
  ],
  "bytecode": "0x60806040523480156200001157600080fd5b50604080518082018252600f81526e151c99585cdd5c9953dc989a5d185b608a1b602080830191909152825180840190935260038352622a27a960e91b9083015290620000656301ffc9a760e01b6200012a565b81516200007a906006906020850190620001b3565b50805162000090906007906020840190620001b3565b50620000a36380ac58cd60e01b6200012a565b620000b5635b5e139f60e01b6200012a565b620000c763780e9d6360e01b6200012a565b5060009050620000d6620001af565b600a80546001600160a01b0319166001600160a01b038316908117909155604051919250906000907f8be0079c531659141344cd1fd0a4f28419497f9722a3daafe3b4186f6b6457e0908290a3506200024f565b6001600160e01b031980821614156200018a576040805162461bcd60e51b815260206004820152601c60248201527f4552433136353a20696e76616c696420696e7465726661636520696400000000604482015290519081900360640190fd5b6001600160e01b0319166000908152602081905260409020805460ff19166001179055565b3390565b828054600181600116156101000203166002900490600052602060002090601f016020900481019282601f10620001f657805160ff191683800117855562000226565b8280016001018555821562000226579182015b828111156200022657825182559160200191906001019062000209565b506200023492915062000238565b5090565b5b8082111562000234576000815560010162000239565b6143b0806200025f6000396000f3fe6080604052600436106101b75760003560e01c8063715018a6116100ec578063b88d4fde1161008a578063c41a360a11610064578063c41a360a14610ade578063c87b56dd14610b08578063e985e9c514610b32578063f2fde38b14610b6d576101b7565b8063b88d4fde1461092e578063b8adaa1114610a01578063bf40fac114610a2b576101b7565b806395d89b41116100c657806395d89b41146106fc5780639c1f1b8c14610711578063a22cb465146107c4578063b816c56e146107ff576101b7565b8063715018a6146106145780637db582a9146106295780638da5cb5b146106e7576101b7565b80632f745c591161015957806350059a011161013357806350059a01146104615780636352211e146105a25780636c0360eb146105cc57806370a08231146105e1576101b7565b80632f745c59146103bb57806342842e0e146103f45780634f6ccce714610437576101b7565b8063095ea7b311610195578063095ea7b3146102ec57806318160ddd1461032757806319b05f491461034e57806323b872dd14610378576101b7565b806301ffc9a7146101bc57806306fdde031461021c578063081812fc146102a6575b600080fd5b3480156101c857600080fd5b50610208600480360360208110156101df57600080fd5b50357fffffffff0000000000000000000000000000000000000000000000000000000016610ba0565b604080519115158252519081900360200190f35b34801561022857600080fd5b50610231610bdb565b6040805160208082528351818301528351919283929083019185019080838360005b8381101561026b578181015183820152602001610253565b50505050905090810190601f1680156102985780820380516001836020036101000a031916815260200191505b509250505060405180910390f35b3480156102b257600080fd5b506102d0600480360360208110156102c957600080fd5b5035610c71565b604080516001600160a01b039092168252519081900360200190f35b3480156102f857600080fd5b506103256004803603604081101561030f57600080fd5b506001600160a01b038135169060200135610cd3565b005b34801561033357600080fd5b5061033c610dae565b60408051918252519081900360200190f35b34801561035a57600080fd5b506103256004803603602081101561037157600080fd5b5035610dbf565b34801561038457600080fd5b506103256004803603606081101561039b57600080fd5b506001600160a01b038135811691602081013590911690604001356117dc565b3480156103c757600080fd5b5061033c600480360360408110156103de57600080fd5b506001600160a01b038135169060200135611833565b34801561040057600080fd5b506103256004803603606081101561041757600080fd5b506001600160a01b0381358116916020810135909116906040013561185e565b34801561044357600080fd5b5061033c6004803603602081101561045a57600080fd5b5035611879565b34801561046d57600080fd5b506103256004803603606081101561048457600080fd5b813591908101906040810160208201356401000000008111156104a657600080fd5b8201836020820111156104b857600080fd5b803590602001918460018302840111640100000000831117156104da57600080fd5b91908080601f016020809104026020016040519081016040528093929190818152602001838380828437600092019190915250929594936020810193503591505064010000000081111561052d57600080fd5b82018360208201111561053f57600080fd5b8035906020019184600183028401116401000000008311171561056157600080fd5b91908080601f01602080910402602001604051908101604052809392919081815260200183838082843760009201919091525092955061188f945050505050565b3480156105ae57600080fd5b506102d0600480360360208110156105c557600080fd5b5035611b86565b3480156105d857600080fd5b50610231611bae565b3480156105ed57600080fd5b5061033c6004803603602081101561060457600080fd5b50356001600160a01b0316611c0f565b34801561062057600080fd5b50610325611c77565b34801561063557600080fd5b506103256004803603604081101561064c57600080fd5b81019060208101813564010000000081111561066757600080fd5b82018360208201111561067957600080fd5b8035906020019184600183028401116401000000008311171561069b57600080fd5b91908080601f016020809104026020016040519081016040528093929190818152602001838380828437600092019190915250929550505090356001600160a01b03169150611d429050565b3480156106f357600080fd5b506102d0611f97565b34801561070857600080fd5b50610231611fa6565b34801561071d57600080fd5b506102316004803603602081101561073457600080fd5b81019060208101813564010000000081111561074f57600080fd5b82018360208201111561076157600080fd5b8035906020019184600183028401116401000000008311171561078357600080fd5b91908080601f016020809104026020016040519081016040528093929190818152602001838380828437600092019190915250929550612007945050505050565b3480156107d057600080fd5b50610325600480360360408110156107e757600080fd5b506001600160a01b0381351690602001351515612073565b6103256004803603606081101561081557600080fd5b81019060208101813564010000000081111561083057600080fd5b82018360208201111561084257600080fd5b8035906020019184600183028401116401000000008311171561086457600080fd5b91908080601f01602080910402602001604051908101604052809392919081815260200183838082843760009201919091525092959493602081019350359150506401000000008111156108b757600080fd5b8201836020820111156108c957600080fd5b803590602001918460018302840111640100000000831117156108eb57600080fd5b91908080601f0160208091040260200160405190810160405280939291908181526020018383808284376000920191909152509295505091359250612178915050565b34801561093a57600080fd5b506103256004803603608081101561095157600080fd5b6001600160a01b0382358116926020810135909116916040820135919081019060808101606082013564010000000081111561098c57600080fd5b82018360208201111561099e57600080fd5b803590602001918460018302840111640100000000831117156109c057600080fd5b91908080601f0160208091040260200160405190810160405280939291908181526020018383808284376000920191909152509295506124d0945050505050565b348015610a0d57600080fd5b5061032560048036036020811015610a2457600080fd5b503561252e565b348015610a3757600080fd5b506102d060048036036020811015610a4e57600080fd5b810190602081018135640100000000811115610a6957600080fd5b820183602082011115610a7b57600080fd5b80359060200191846001830284011164010000000083111715610a9d57600080fd5b91908080601f016020809104026020016040519081016040528093929190818152602001838380828437600092019190915250929550612a07945050505050565b348015610aea57600080fd5b5061023160048036036020811015610b0157600080fd5b5035612a78565b348015610b1457600080fd5b5061023160048036036020811015610b2b57600080fd5b5035612b19565b348015610b3e57600080fd5b5061020860048036036040811015610b5557600080fd5b506001600160a01b0381358116916020013516612d9c565b348015610b7957600080fd5b5061032560048036036020811015610b9057600080fd5b50356001600160a01b0316612dca565b7fffffffff00000000000000000000000000000000000000000000000000000000811660009081526020819052604090205460ff165b919050565b60068054604080516020601f6002600019610100600188161502019095169490940493840181900481028201810190925282815260609390929091830182828015610c675780601f10610c3c57610100808354040283529160200191610c67565b820191906000526020600020905b815481529060010190602001808311610c4a57829003601f168201915b5050505050905090565b6000610c7c82612eec565b610cb75760405162461bcd60e51b815260040180806020018281038252602c815260200180614207602c913960400191505060405180910390fd5b506000908152600460205260409020546001600160a01b031690565b6000610cde82611b86565b9050806001600160a01b0316836001600160a01b03161415610d315760405162461bcd60e51b81526004018080602001828103825260218152602001806142de6021913960400191505060405180910390fd5b806001600160a01b0316610d43612ef9565b6001600160a01b03161480610d645750610d6481610d5f612ef9565b612d9c565b610d9f5760405162461bcd60e51b815260040180806020018281038252603881526020018061412a6038913960400191505060405180910390fd5b610da98383612efd565b505050565b6000610dba6002612f78565b905090565b80610dc981612f83565b81610dd381612fdc565b82610ddc613eb5565b600f8281548110610de957fe5b60009182526020918290206040805160079390930290910180546002610100600183161581026000190190921604601f81018690049095028401610120908101909352830184815292939092849290918491840182828015610e8c5780601f10610e6157610100808354040283529160200191610e8c565b820191906000526020600020905b815481529060010190602001808311610e6f57829003601f168201915b50505050508152602001600182018054600181600116156101000203166002900480601f016020809104026020016040519081016040528092919081815260200182805460018160011615610100020316600290048015610f2e5780601f10610f0357610100808354040283529160200191610f2e565b820191906000526020600020905b815481529060010190602001808311610f1157829003601f168201915b5050509183525050600282810180546040805160206001841615610100026000190190931694909404601f81018390048302850183019091528084529381019390830182828015610fc05780601f10610f9557610100808354040283529160200191610fc0565b820191906000526020600020905b815481529060010190602001808311610fa357829003601f168201915b50505091835250506003820154602080830191909152600483015460ff808216151560408086019190915261010092839004909116151560608501526005850180548251600260018316159095026000190190911693909304601f810185900485028401850190925281835260809094019391928301828280156110855780601f1061105a57610100808354040283529160200191611085565b820191906000526020600020905b81548152906001019060200180831161106857829003601f168201915b50505091835250506006919091015460ff161515602091820152818101516040518151939450600093600c938291908401908083835b602083106110da5780518252601f1990920191602091820191016110bb565b51815160209384036101000a60001901801990921691161790529201948552506040519384900301909220546001600160a01b031692505033821490506111525760405162461bcd60e51b81526004018080602001828103825260278152602001806142886027913960400191505060405180910390fd5b61115a613eb5565b600f878154811061116757fe5b60009182526020918290206040805160079390930290910180546002610100600183161581026000190190921604601f8101869004909502840161012090810190935283018481529293909284929091849184018282801561120a5780601f106111df5761010080835404028352916020019161120a565b820191906000526020600020905b8154815290600101906020018083116111ed57829003601f168201915b50505050508152602001600182018054600181600116156101000203166002900480601f0160208091040260200160405190810160405280929190818152602001828054600181600116156101000203166002900480156112ac5780601f10611281576101008083540402835291602001916112ac565b820191906000526020600020905b81548152906001019060200180831161128f57829003601f168201915b5050509183525050600282810180546040805160206001841615610100026000190190931694909404601f8101839004830285018301909152808452938101939083018282801561133e5780601f106113135761010080835404028352916020019161133e565b820191906000526020600020905b81548152906001019060200180831161132157829003601f168201915b50505091835250506003820154602080830191909152600483015460ff808216151560408086019190915261010092839004909116151560608501526005850180548251600260018316159095026000190190911693909304601f810185900485028401850190925281835260809094019391928301828280156114035780601f106113d857610100808354040283529160200191611403565b820191906000526020600020905b8154815290600101906020018083116113e657829003601f168201915b50505091835250506006919091015460ff16151560209091015260e0810151909150156114a05761149b600e82604001516040518082805190602001908083835b602083106114635780518252601f199092019160209182019101611444565b51815160209384036101000a6000190180199092169116179052920194855250604051938490030190922054845190925090506130cf565b6115e5565b60006114af8260c00151613154565b82516000828152600d6020908152604090912082519394506114d79390929190910190613f00565b5080600e83604001516040518082805190602001908083835b6020831061150f5780518252601f1990920191602091820191016114f0565b51815160209384036101000a600019018019909216911617905292019485525060408051948590038201852095909555865186855284820186815281519686019690965280517f5d3ac5872118b949a1f8db596134a0e1587ecf18f2203bb1e3ea420c3c3f8fa9968896929550919350909160608401919085019080838360005b838110156115a8578181015183820152602001611590565b50505050905090810190601f1680156115d55780820380516001836020036101000a031916815260200191505b50935050505060405180910390a1505b6115ee87613189565b6000600c82602001516040518082805190602001908083835b602083106116265780518252601f199092019160209182019101611607565b51815160209384036101000a60001901801990921691161790529201948552506040519384900301909220546060858101516001600160a01b0390921694506000935091508390600a9060405191900460090290600081818185875af1925050503d80600081146116b3576040519150601f19603f3d011682016040523d82523d6000602084013e6116b8565b606091505b5091509150600060606116c9611f97565b6001600160a01b0316600a8760600151816116e057fe5b60405191900490600081818185875af1925050503d8060008114611720576040519150601f19603f3d011682016040523d82523d6000602084013e611725565b606091505b50915091508361177c576040805162461bcd60e51b815260206004820152601e60248201527f4661696c656420746f2073656e6420657468657220746f2073656c6c65720000604482015290519081900360640190fd5b816117ce576040805162461bcd60e51b815260206004820152601d60248201527f4661696c656420746f2073656e6420657468657220746f206f776e6572000000604482015290519081900360640190fd5b505050505050505050505050565b6117ed6117e7612ef9565b826131f4565b6118285760405162461bcd60e51b81526004018080602001828103825260318152602001806143226031913960400191505060405180910390fd5b610da9838383613298565b6001600160a01b038216600090815260016020526040812061185590836133e4565b90505b92915050565b610da9838383604051806020016040528060008152506124d0565b6000806118876002846133f0565b509392505050565b8261189981612f83565b6118a1612ef9565b6001600160a01b03166118b2611f97565b6001600160a01b03161461190d576040805162461bcd60e51b815260206004820181905260248201527f4f776e61626c653a2063616c6c6572206973206e6f7420746865206f776e6572604482015290519081900360640190fd5b6000600f858154811061191c57fe5b906000526020600020906007020190506000600e82600201604051808280546001816001161561010002031660029004801561198f5780601f1061196d57610100808354040283529182019161198f565b820191906000526020600020905b81548152906001019060200180831161197b575b505092835250506040805160209281900383019020546000818152600d909352912054909150600260018216156101000260001901909116046119e75783516119e19060018401906020870190613f00565b50611a2c565b60068201805460ff191660019081179091556000828152600d602052604090208054611a2a92858101929160026000199282161561010002929092011604613f7e565b505b8451611a419060058401906020880190613f00565b5060018260040160006101000a81548160ff0219169083151502179055507fcc4d5a0d24dba490533398c6fa77123040c206d5b8a402f0a861223e93d0aa9a868684600101604051808481526020018060200180602001838103835285818151815260200191508051906020019080838360005b83811015611acd578181015183820152602001611ab5565b50505050905090810190601f168015611afa5780820380516001836020036101000a031916815260200191505b50838103825284546002600019610100600184161502019091160480825260209091019085908015611b6d5780601f10611b4257610100808354040283529160200191611b6d565b820191906000526020600020905b815481529060010190602001808311611b5057829003601f168201915b50509550505050505060405180910390a1505050505050565b60006118588260405180606001604052806029815260200161418c602991396002919061340c565b60098054604080516020601f6002600019610100600188161502019095169490940493840181900481028201810190925282815260609390929091830182828015610c675780601f10610c3c57610100808354040283529160200191610c67565b60006001600160a01b038216611c565760405162461bcd60e51b815260040180806020018281038252602a815260200180614162602a913960400191505060405180910390fd5b6001600160a01b038216600090815260016020526040902061185890612f78565b611c7f612ef9565b6001600160a01b0316611c90611f97565b6001600160a01b031614611ceb576040805162461bcd60e51b815260206004820181905260248201527f4f776e61626c653a2063616c6c6572206973206e6f7420746865206f776e6572604482015290519081900360640190fd5b600a546040516000916001600160a01b0316907f8be0079c531659141344cd1fd0a4f28419497f9722a3daafe3b4186f6b6457e0908390a3600a805473ffffffffffffffffffffffffffffffffffffffff19169055565b611d4a612ef9565b6001600160a01b0316611d5b611f97565b6001600160a01b031614611db6576040805162461bcd60e51b815260206004820181905260248201527f4f776e61626c653a2063616c6c6572206973206e6f7420746865206f776e6572604482015290519081900360640190fd5b60006001600160a01b0316600c836040518082805190602001908083835b60208310611df35780518252601f199092019160209182019101611dd4565b51815160209384036101000a60001901801990921691161790529201948552506040519384900301909220546001600160a01b0316929092149150611e6b90505760405162461bcd60e51b81526004018080602001828103825260238152602001806142ff6023913960400191505060405180910390fd5b80600c836040518082805190602001908083835b60208310611e9e5780518252601f199092019160209182019101611e7f565b51815160209384036101000a6000190180199092169116179052920194855250604080519485900382018520805473ffffffffffffffffffffffffffffffffffffffff19166001600160a01b0397881617905594861684820152848452865194840194909452505083517fbd24583d1f34ebaec5bacc0cb3d29df1ac91e8fc13018ebc80e3f29e3d49ce16928592859290918291606083019186019080838360005b83811015611f58578181015183820152602001611f40565b50505050905090810190601f168015611f855780820380516001836020036101000a031916815260200191505b50935050505060405180910390a15050565b600a546001600160a01b031690565b60078054604080516020601f6002600019610100600188161502019095169490940493840181900481028201810190925282815260609390929091830182828015610c675780601f10610c3c57610100808354040283529160200191610c67565b6060611858600e836040518082805190602001908083835b6020831061203e5780518252601f19909201916020918201910161201f565b51815160209384036101000a60001901801990921691161790529201948552506040519384900301909220549150612b199050565b61207b612ef9565b6001600160a01b0316826001600160a01b031614156120e1576040805162461bcd60e51b815260206004820152601960248201527f4552433732313a20617070726f766520746f2063616c6c657200000000000000604482015290519081900360640190fd5b80600560006120ee612ef9565b6001600160a01b03908116825260208083019390935260409182016000908120918716808252919093529120805460ff191692151592909217909155612132612ef9565b6001600160a01b03167f17307eab39ab6107e8899845ad3d59bd9653f200f220920489ca2b5937696c318360405180821515815260200191505060405180910390a35050565b600c836040518082805190602001908083835b602083106121aa5780518252601f19909201916020918201910161218b565b51815160209384036101000a60001901801990921691161790529201948552506040519384900301909220546001600160a01b03163314915061222090505760405162461bcd60e51b81526004018080602001828103825260288152602001806143536028913960400191505060405180910390fd5b8034101561225f5760405162461bcd60e51b81526004018080602001828103825260308152602001806141d76030913960400191505060405180910390fd5b6040805161010081018252848152815160208181018452600080835281840192909252828401869052606083018590526080830182905260a08301829052835180820190945281845260c083019390935260e08201819052600f8054600181018255915281518051929360079092027f8d1108e10bcb7c27dddfc02ed9d693a074039d026cf4ea4240b40f7d581ac80201926122fe9284920190613f00565b5060208281015180516123179260018501920190613f00565b5060408201518051612333916002840191602090910190613f00565b5060608201516003820155608082015160048201805460a085015115156101000261ff001993151560ff19909216919091179290921691909117905560c0820151805161238a916005840191602090910190613f00565b5060e08201518160060160006101000a81548160ff021916908315150217905550505060006001600f805490500390507f5959e9fbc5b42ab31702a9038d4329b08cc67277eaad89e9639d8380c7cfeb4381858585604051808581526020018060200180602001848152602001838103835286818151815260200191508051906020019080838360005b8381101561242c578181015183820152602001612414565b50505050905090810190601f1680156124595780820380516001836020036101000a031916815260200191505b50838103825285518152855160209182019187019080838360005b8381101561248c578181015183820152602001612474565b50505050905090810190601f1680156124b95780820380516001836020036101000a031916815260200191505b50965050505050505060405180910390a150505050565b6124e16124db612ef9565b836131f4565b61251c5760405162461bcd60e51b81526004018080602001828103825260318152602001806143226031913960400191505060405180910390fd5b61252884848484613423565b50505050565b8061253881612f83565b8161254281612fdc565b61254a613eb5565b600f848154811061255757fe5b60009182526020918290206040805160079390930290910180546002610100600183161581026000190190921604601f810186900490950284016101209081019093528301848152929390928492909184918401828280156125fa5780601f106125cf576101008083540402835291602001916125fa565b820191906000526020600020905b8154815290600101906020018083116125dd57829003601f168201915b50505050508152602001600182018054600181600116156101000203166002900480601f01602080910402602001604051908101604052809291908181526020018280546001816001161561010002031660029004801561269c5780601f106126715761010080835404028352916020019161269c565b820191906000526020600020905b81548152906001019060200180831161267f57829003601f168201915b5050509183525050600282810180546040805160206001841615610100026000190190931694909404601f8101839004830285018301909152808452938101939083018282801561272e5780601f106127035761010080835404028352916020019161272e565b820191906000526020600020905b81548152906001019060200180831161271157829003601f168201915b50505091835250506003820154602080830191909152600483015460ff808216151560408086019190915261010092839004909116151560608501526005850180548251600260018316159095026000190190911693909304601f810185900485028401850190925281835260809094019391928301828280156127f35780601f106127c8576101008083540402835291602001916127f3565b820191906000526020600020905b8154815290600101906020018083116127d657829003601f168201915b50505091835250506006919091015460ff161515602091820152818101516040518151939450600093600c938291908401908083835b602083106128485780518252601f199092019160209182019101612829565b51815160209384036101000a6000190180199092169116179052920194855250604051938490038101842054865180516001600160a01b039092169650600095600c9550909350918291908401908083835b602083106128b95780518252601f19909201916020918201910161289a565b51815160209384036101000a60001901801990921691161790529201948552506040519384900301909220546001600160a01b03908116935084163314915081905061290d5750336001600160a01b038216145b6129485760405162461bcd60e51b815260040180806020018281038252603181526020018061405d6031913960400191505060405180910390fd5b61295186613189565b606083810151604051600092916001600160a01b038516918481818185875af1925050503d80600081146129a1576040519150601f19603f3d011682016040523d82523d6000602084013e6129a6565b606091505b5091509150816129fd576040805162461bcd60e51b815260206004820152601660248201527f4661696c656420746f20726566756e6420657468657200000000000000000000604482015290519081900360640190fd5b5050505050505050565b6000600c826040518082805190602001908083835b60208310612a3b5780518252601f199092019160209182019101612a1c565b51815160209384036101000a60001901801990921691161790529201948552506040519384900301909220546001600160a01b0316949350505050565b6000818152600d602090815260409182902080548351601f6002600019610100600186161502019093169290920491820184900484028101840190945280845260609392830182828015612b0d5780601f10612ae257610100808354040283529160200191612b0d565b820191906000526020600020905b815481529060010190602001808311612af057829003601f168201915b50505050509050919050565b6060612b2482612eec565b612b5f5760405162461bcd60e51b815260040180806020018281038252602f8152602001806142af602f913960400191505060405180910390fd5b60008281526008602090815260409182902080548351601f6002600019610100600186161502019093169290920491820184900484028101840190945280845260609392830182828015612bf45780601f10612bc957610100808354040283529160200191612bf4565b820191906000526020600020905b815481529060010190602001808311612bd757829003601f168201915b505050505090506060612c05611bae565b9050805160001415612c1957509050610bd6565b815115612cda5780826040516020018083805190602001908083835b60208310612c545780518252601f199092019160209182019101612c35565b51815160209384036101000a600019018019909216911617905285519190930192850191508083835b60208310612c9c5780518252601f199092019160209182019101612c7d565b6001836020036101000a0380198251168184511680821785525050505050509050019250505060405160208183030381529060405292505050610bd6565b80612ce485613475565b6040516020018083805190602001908083835b60208310612d165780518252601f199092019160209182019101612cf7565b51815160209384036101000a600019018019909216911617905285519190930192850191508083835b60208310612d5e5780518252601f199092019160209182019101612d3f565b6001836020036101000a0380198251168184511680821785525050505050509050019250505060405160208183030381529060405292505050919050565b6001600160a01b03918216600090815260056020908152604080832093909416825291909152205460ff1690565b612dd2612ef9565b6001600160a01b0316612de3611f97565b6001600160a01b031614612e3e576040805162461bcd60e51b815260206004820181905260248201527f4f776e61626c653a2063616c6c6572206973206e6f7420746865206f776e6572604482015290519081900360640190fd5b6001600160a01b038116612e835760405162461bcd60e51b815260040180806020018281038252602681526020018061408e6026913960400191505060405180910390fd5b600a546040516001600160a01b038084169216907f8be0079c531659141344cd1fd0a4f28419497f9722a3daafe3b4186f6b6457e090600090a3600a805473ffffffffffffffffffffffffffffffffffffffff19166001600160a01b0392909216919091179055565b6000611858600283613584565b3390565b6000818152600460205260409020805473ffffffffffffffffffffffffffffffffffffffff19166001600160a01b0384169081179091558190612f3f82611b86565b6001600160a01b03167f8c5be1e5ebec7d5bd14f71427d1e84f3dd0314c0f7b2291e5b200ac8c7c3b92560405160405180910390a45050565b600061185882613590565b600f548110612fd9576040805162461bcd60e51b815260206004820152601460248201527f4f6666657220646f6573206e6f74206578697374000000000000000000000000604482015290519081900360640190fd5b50565b600f8181548110612fe957fe5b906000526020600020906007020160040160019054906101000a900460ff161561305a576040805162461bcd60e51b815260206004820152601b60248201527f4f6666657220697320616c726561647920636f6d706c657465642e0000000000604482015290519081900360640190fd5b600f818154811061306757fe5b600091825260209091206004600790920201015460ff16612fd9576040805162461bcd60e51b815260206004820152601660248201527f4f66666572206973206e6f742076657269666965642e00000000000000000000604482015290519081900360640190fd5b6000828152600d6020908152604090912082516130ee92840190613f00565b507f0bd1df0ee9f23ff2475054135e7ffc439511bde8b03720092c524e8dbe4c0700828260405180838152602001806020018281038252838181518152602001915080519060200190808383600083811015611f58578181015183820152602001611f40565b6000613160600b613594565b600061316c600b613590565b905061317f613179611f97565b8261359d565b61185881846135bb565b6000600f828154811061319857fe5b60009182526020918290206004600790920201908101805461ff0019166101001790556040805185815290519193507f422b793202eb794642b1017af34abd55c83b22253a8323bfb35132b8cf8d5cc392908290030190a15050565b60006131ff82612eec565b61323a5760405162461bcd60e51b815260040180806020018281038252602c8152602001806140fe602c913960400191505060405180910390fd5b600061324583611b86565b9050806001600160a01b0316846001600160a01b031614806132805750836001600160a01b031661327584610c71565b6001600160a01b0316145b8061329057506132908185612d9c565b949350505050565b826001600160a01b03166132ab82611b86565b6001600160a01b0316146132f05760405162461bcd60e51b815260040180806020018281038252602981526020018061425f6029913960400191505060405180910390fd5b6001600160a01b0382166133355760405162461bcd60e51b81526004018080602001828103825260248152602001806140b46024913960400191505060405180910390fd5b613340838383610da9565b61334b600082612efd565b6001600160a01b038316600090815260016020526040902061336d908261361e565b506001600160a01b0382166000908152600160205260409020613390908261362a565b5061339d60028284613636565b5080826001600160a01b0316846001600160a01b03167fddf252ad1be2c89b69c2b068fc378daa952ba7f163c4a11628f55a4df523b3ef60405160405180910390a4505050565b6000611855838361364c565b60008080806133ff86866136b0565b9097909650945050505050565b600061341984848461372b565b90505b9392505050565b61342e848484613298565b61343a848484846137f5565b6125285760405162461bcd60e51b815260040180806020018281038252603281526020018061402b6032913960400191505060405180910390fd5b6060816134b6575060408051808201909152600181527f30000000000000000000000000000000000000000000000000000000000000006020820152610bd6565b8160005b81156134ce57600101600a820491506134ba565b60608167ffffffffffffffff811180156134e757600080fd5b506040519080825280601f01601f191660200182016040528015613512576020820181803683370190505b50859350905060001982015b831561357b57600a840660300160f81b8282806001900393508151811061354157fe5b60200101907effffffffffffffffffffffffffffffffffffffffffffffffffffffffffffff1916908160001a905350600a8404935061351e565b50949350505050565b6000611855838361399f565b5490565b80546001019055565b6135b78282604051806020016040528060008152506139b7565b5050565b6135c482612eec565b6135ff5760405162461bcd60e51b815260040180806020018281038252602c815260200180614233602c913960400191505060405180910390fd5b60008281526008602090815260409091208251610da992840190613f00565b60006118558383613a09565b60006118558383613acf565b600061341984846001600160a01b038516613b19565b8154600090821061368e5760405162461bcd60e51b81526004018080602001828103825260228152602001806140096022913960400191505060405180910390fd5b82600001828154811061369d57fe5b9060005260206000200154905092915050565b8154600090819083106136f45760405162461bcd60e51b81526004018080602001828103825260228152602001806141b56022913960400191505060405180910390fd5b600084600001848154811061370557fe5b906000526020600020906002020190508060000154816001015492509250509250929050565b600082815260018401602052604081205482816137c65760405162461bcd60e51b81526004018080602001828103825283818151815260200191508051906020019080838360005b8381101561378b578181015183820152602001613773565b50505050905090810190601f1680156137b85780820380516001836020036101000a031916815260200191505b509250505060405180910390fd5b508460000160018203815481106137d957fe5b9060005260206000209060020201600101549150509392505050565b6000613809846001600160a01b0316613bb0565b61381557506001613290565b606061394d630a85bd0160e11b61382a612ef9565b88878760405160240180856001600160a01b03168152602001846001600160a01b0316815260200183815260200180602001828103825283818151815260200191508051906020019080838360005b83811015613891578181015183820152602001613879565b50505050905090810190601f1680156138be5780820380516001836020036101000a031916815260200191505b5095505050505050604051602081830303815290604052907bffffffffffffffffffffffffffffffffffffffffffffffffffffffff19166020820180517bffffffffffffffffffffffffffffffffffffffffffffffffffffffff838183161783525050505060405180606001604052806032815260200161402b603291396001600160a01b0388169190613bb6565b9050600081806020019051602081101561396657600080fd5b50517fffffffff0000000000000000000000000000000000000000000000000000000016630a85bd0160e11b1492505050949350505050565b60009081526001919091016020526040902054151590565b6139c18383613bc5565b6139ce60008484846137f5565b610da95760405162461bcd60e51b815260040180806020018281038252603281526020018061402b6032913960400191505060405180910390fd5b60008181526001830160205260408120548015613ac55783546000198083019190810190600090879083908110613a3c57fe5b9060005260206000200154905080876000018481548110613a5957fe5b600091825260208083209091019290925582815260018981019092526040902090840190558654879080613a8957fe5b60019003818190600052602060002001600090559055866001016000878152602001908152602001600020600090556001945050505050611858565b6000915050611858565b6000613adb838361399f565b613b1157508154600181810184556000848152602080822090930184905584548482528286019093526040902091909155611858565b506000611858565b600082815260018401602052604081205480613b7e57505060408051808201825283815260208082018481528654600181810189556000898152848120955160029093029095019182559151908201558654868452818801909252929091205561341c565b82856000016001830381548110613b9157fe5b906000526020600020906002020160010181905550600091505061341c565b3b151590565b60606134198484600085613cf3565b6001600160a01b038216613c20576040805162461bcd60e51b815260206004820181905260248201527f4552433732313a206d696e7420746f20746865207a65726f2061646472657373604482015290519081900360640190fd5b613c2981612eec565b15613c7b576040805162461bcd60e51b815260206004820152601c60248201527f4552433732313a20746f6b656e20616c7265616479206d696e74656400000000604482015290519081900360640190fd5b613c8760008383610da9565b6001600160a01b0382166000908152600160205260409020613ca9908261362a565b50613cb660028284613636565b5060405181906001600160a01b038416906000907fddf252ad1be2c89b69c2b068fc378daa952ba7f163c4a11628f55a4df523b3ef908290a45050565b606082471015613d345760405162461bcd60e51b81526004018080602001828103825260268152602001806140d86026913960400191505060405180910390fd5b613d3d85613bb0565b613d8e576040805162461bcd60e51b815260206004820152601d60248201527f416464726573733a2063616c6c20746f206e6f6e2d636f6e7472616374000000604482015290519081900360640190fd5b60006060866001600160a01b031685876040518082805190602001908083835b60208310613dcd5780518252601f199092019160209182019101613dae565b6001836020036101000a03801982511681845116808217855250505050505090500191505060006040518083038185875af1925050503d8060008114613e2f576040519150601f19603f3d011682016040523d82523d6000602084013e613e34565b606091505b5091509150613e44828286613e4f565b979650505050505050565b60608315613e5e57508161341c565b825115613e6e5782518084602001fd5b60405162461bcd60e51b815260206004820181815284516024840152845185939192839260440191908501908083836000831561378b578181015183820152602001613773565b60405180610100016040528060608152602001606081526020016060815260200160008152602001600015158152602001600015158152602001606081526020016000151581525090565b828054600181600116156101000203166002900490600052602060002090601f016020900481019282601f10613f4157805160ff1916838001178555613f6e565b82800160010185558215613f6e579182015b82811115613f6e578251825591602001919060010190613f53565b50613f7a929150613ff3565b5090565b828054600181600116156101000203166002900490600052602060002090601f016020900481019282601f10613fb75780548555613f6e565b82800160010185558215613f6e57600052602060002091601f016020900482015b82811115613f6e578254825591600101919060010190613fd8565b5b80821115613f7a5760008155600101613ff456fe456e756d657261626c655365743a20696e646578206f7574206f6620626f756e64734552433732313a207472616e7366657220746f206e6f6e20455243373231526563656976657220696d706c656d656e746572596f7520617265206e6f7420746865206275796572206f72207468652073656c6c6572206f662074686973206f666665724f776e61626c653a206e6577206f776e657220697320746865207a65726f20616464726573734552433732313a207472616e7366657220746f20746865207a65726f2061646472657373416464726573733a20696e73756666696369656e742062616c616e636520666f722063616c6c4552433732313a206f70657261746f7220717565727920666f72206e6f6e6578697374656e7420746f6b656e4552433732313a20617070726f76652063616c6c6572206973206e6f74206f776e6572206e6f7220617070726f76656420666f7220616c6c4552433732313a2062616c616e636520717565727920666f7220746865207a65726f20616464726573734552433732313a206f776e657220717565727920666f72206e6f6e6578697374656e7420746f6b656e456e756d657261626c654d61703a20696e646578206f7574206f6620626f756e6473496e73756666696369656e742076616c75652c20706c65617365206d61746368207468652062696420616d6f756e742e4552433732313a20617070726f76656420717565727920666f72206e6f6e6578697374656e7420746f6b656e4552433732314d657461646174613a2055524920736574206f66206e6f6e6578697374656e7420746f6b656e4552433732313a207472616e73666572206f6620746f6b656e2074686174206973206e6f74206f776e4f6e6c79207468652073656c6c65722063616e2063616c6c20746869732066756e6374696f6e2e4552433732314d657461646174613a2055524920717565727920666f72206e6f6e6578697374656e7420746f6b656e4552433732313a20617070726f76616c20746f2063757272656e74206f776e6572557365726e616d6520616c726561647920697320616c7265616479206c696e6b6564214552433732313a207472616e736665722063616c6c6572206973206e6f74206f776e6572206e6f7220617070726f766564596f752063616e206f6e6c7920637265617465206f66666572732066726f6d20796f757273656c66a2646970667358221220885253f96f6f6737fec8111452c5525c5393ce2a0101b61806a7cd70c45281e864736f6c63430007030033",
  "linkReferences": {},
  "deployedLinkReferences": {}
}